{
  "transactions": [
    {
      "hash": "0x42dc1fa83d07399f0ee1d42055015685acef4bec9253785706c6b452166aed87",
      "transactionType": "CALL",
      "contractName": null,
      "contractAddress": "0x75faf114eafb1bdbe2f0316df893fd58ce46aa4d",
      "function": "transfer(address,uint256)",
      "arguments": [
        "0xc6899D9845fe8aA1d5acf42b84c90FdBE807ad2D",
        "100000"
      ],
      "transaction": {
        "from": "0x23bf95de9f90338f973056351c8cd2cb78cbe52f",
        "to": "0x75faf114eafb1bdbe2f0316df893fd58ce46aa4d",
        "gas": "0x19e39",
        "value": "0x0",
        "input": "0xa9059cbb000000000000000000000000c6899d9845fe8aa1d5acf42b84c90fdbe807ad2d00000000000000000000000000000000000000000000000000000000000186a0",
        "nonce": "0x1e5",
        "chainId": "0x66eee"
      },
      "additionalContracts": [],
      "isFixedGasLimit": false
    }
  ],
  "receipts": [
    {
      "status": "0x1",
      "cumulativeGasUsed": "0x12d3b",
      "logs": [
        {
          "address": "0x75faf114eafb1bdbe2f0316df893fd58ce46aa4d",
          "topics": [
            "0xddf252ad1be2c89b69c2b068fc378daa952ba7f163c4a11628f55a4df523b3ef",
            "0x00000000000000000000000023bf95de9f90338f973056351c8cd2cb78cbe52f",
            "0x000000000000000000000000c6899d9845fe8aa1d5acf42b84c90fdbe807ad2d"
          ],
          "data": "0x00000000000000000000000000000000000000000000000000000000000186a0",
          "blockHash": "0x1870c21d785787969c7d500c1495402310cf5ebd86958798971df0c265de07c3",
          "blockNumber": "0xd113d78",
          "blockTimestamp": "0x69275e1d",
          "transactionHash": "0x42dc1fa83d07399f0ee1d42055015685acef4bec9253785706c6b452166aed87",
          "transactionIndex": "0x1",
          "logIndex": "0x0",
          "removed": false
        }
      ],
      "logsBloom": "0x00000000000000000000000000000000000000000000000000000000000000000000000000000000000000000000000000000000000000000000002000000000800000000008000000000008000000000000000000000000000000000000000000000000000000000000000000000000000000000000000000000010000000000000000000000000000000000000000000000000000000000000000000000000000000008000000000000000000100000000000000000000000000000000000000000002000000000000000000000000008000000010000000000000000000000000000000000000000000000000000000000000000000000100000000000004",
      "type": "0x2",
      "transactionHash": "0x42dc1fa83d07399f0ee1d42055015685acef4bec9253785706c6b452166aed87",
      "transactionIndex": "0x1",
      "blockHash": "0x1870c21d785787969c7d500c1495402310cf5ebd86958798971df0c265de07c3",
      "blockNumber": "0xd113d78",
      "gasUsed": "0x12d3b",
      "effectiveGasPrice": "0x1312d00",
      "from": "0x23bf95de9f90338f973056351c8cd2cb78cbe52f",
      "to": "0x75faf114eafb1bdbe2f0316df893fd58ce46aa4d",
      "contractAddress": null,
      "gasUsedForL1": "0x3a6c",
      "l1BlockNumber": "0x943546",
      "timeboosted": false
    }
  ],
  "libraries": [
    "src/config/Configuration.ArbitrumSepolia.sol:ConfigurationArbitrumSepolia:0xeA877Bb50e4550FAAB3dE0de21110FF2eaDbd607",
    "src/config/Configuration.Base.sol:ConfigurationBaseMainnet:0x42dBf5358d04c4fC65b8A2501732e1b799Cf8C7F",
    "src/config/Configuration.BaseSepolia.sol:ConfigurationBaseSepolia:0x8CD9F0A3Fb33793daeA0828985e8A39b014e4c25",
    "src/config/Configuration.Ethereum.sol:ConfigurationEthereumMainnet:0x7C59aB12ae1cE53A28aeE34d615Eb6f476774fa7",
    "src/config/Configuration.EthereumSepolia.sol:ConfigurationEthereumSepolia:0x43A0e44F7EbbC8DB17807C9583859dc5A06f6E3b",
    "src/config/Configuration.Local.sol:ConfigurationLocal:0xf471EeAbD90669d272Ff633CAAf2d9d6ab6FFC03",
    "src/config/Configuration.OptimismSepolia.sol:ConfigurationOptimismSepolia:0x1447f089Fd0673aD2B03920122Bc9788Be8746cd",
    "src/config/Configuration.sol:Configuration:0xE31E4AE4606486363084bf49f238d681784a7620"
  ],
  "pending": [],
  "returns": {},
  "timestamp": 1764187677926,
  "chain": 421614,
  "commit": "e057b48"
}