{
  "transactions": [
    {
      "hash": "0x414f07f99eb4dd8ce396363006a53e71384b7fa4be26489c5186f2b70d2aaecf",
      "transactionType": "CALL",
      "contractName": null,
      "contractAddress": "0x75faf114eafb1bdbe2f0316df893fd58ce46aa4d",
      "function": "transfer(address,uint256)",
      "arguments": [
        "0x45599A44fF403a958cF712153a1e325758d80e6A",
        "100000"
      ],
      "transaction": {
        "from": "0x23bf95de9f90338f973056351c8cd2cb78cbe52f",
        "to": "0x75faf114eafb1bdbe2f0316df893fd58ce46aa4d",
        "gas": "0x13fdd",
        "value": "0x0",
        "input": "0xa9059cbb00000000000000000000000045599a44ff403a958cf712153a1e325758d80e6a00000000000000000000000000000000000000000000000000000000000186a0",
        "nonce": "0x1fe",
        "chainId": "0x66eee"
      },
      "additionalContracts": [],
      "isFixedGasLimit": false
    }
  ],
  "receipts": [
    {
      "status": "0x1",
      "cumulativeGasUsed": "0xf2cf",
      "logs": [
        {
          "address": "0x75faf114eafb1bdbe2f0316df893fd58ce46aa4d",
          "topics": [
            "0xddf252ad1be2c89b69c2b068fc378daa952ba7f163c4a11628f55a4df523b3ef",
            "0x00000000000000000000000023bf95de9f90338f973056351c8cd2cb78cbe52f",
            "0x00000000000000000000000045599a44ff403a958cf712153a1e325758d80e6a"
          ],
          "data": "0x00000000000000000000000000000000000000000000000000000000000186a0",
          "blockHash": "0x3b96a0bd3a4f109ff1bb4df5bf9e514db8619050c208a9b3b5a6e05a01c61e8d",
          "blockNumber": "0xd19170b",
          "blockTimestamp": "0x69297303",
          "transactionHash": "0x414f07f99eb4dd8ce396363006a53e71384b7fa4be26489c5186f2b70d2aaecf",
          "transactionIndex": "0x1",
          "logIndex": "0x0",
          "removed": false
        }
      ],
      "logsBloom": "0x00000000000000000000000000000000000000000000000000000000000000000000000000000000000000000000000000000000000000000000000000004000800000000000000000000008000000000000000000000000000000000000000000000000000000000000000000000000000000000000000000010010000000000000000000000000000000000000000000000000000000000000000000000000000000008000000000000000000100000000000000000000000000000000000000000002000000000000000000000000008000000000004000000000000000000000000000000000000000000000000000000000000000000100000000000004",
      "type": "0x2",
      "transactionHash": "0x414f07f99eb4dd8ce396363006a53e71384b7fa4be26489c5186f2b70d2aaecf",
      "transactionIndex": "0x1",
      "blockHash": "0x3b96a0bd3a4f109ff1bb4df5bf9e514db8619050c208a9b3b5a6e05a01c61e8d",
      "blockNumber": "0xd19170b",
      "gasUsed": "0xf2cf",
      "effectiveGasPrice": "0x1312d00",
      "from": "0x23bf95de9f90338f973056351c8cd2cb78cbe52f",
      "to": "0x75faf114eafb1bdbe2f0316df893fd58ce46aa4d",
      "contractAddress": null,
      "gasUsedForL1": "0x0",
      "l1BlockNumber": "0x945eb8",
      "timeboosted": false
    }
  ],
  "libraries": [
    "src/config/Configuration.ArbitrumSepolia.sol:ConfigurationArbitrumSepolia:0xeA877Bb50e4550FAAB3dE0de21110FF2eaDbd607",
    "src/config/Configuration.Base.sol:ConfigurationBaseMainnet:0x42dBf5358d04c4fC65b8A2501732e1b799Cf8C7F",
    "src/config/Configuration.BaseSepolia.sol:ConfigurationBaseSepolia:0x8CD9F0A3Fb33793daeA0828985e8A39b014e4c25",
    "src/config/Configuration.Ethereum.sol:ConfigurationEthereumMainnet:0x7C59aB12ae1cE53A28aeE34d615Eb6f476774fa7",
    "src/config/Configuration.EthereumSepolia.sol:ConfigurationEthereumSepolia:0x43A0e44F7EbbC8DB17807C9583859dc5A06f6E3b",
    "src/config/Configuration.Local.sol:ConfigurationLocal:0xf471EeAbD90669d272Ff633CAAf2d9d6ab6FFC03",
    "src/config/Configuration.OptimismSepolia.sol:ConfigurationOptimismSepolia:0x1447f089Fd0673aD2B03920122Bc9788Be8746cd",
    "src/config/Configuration.sol:Configuration:0xE31E4AE4606486363084bf49f238d681784a7620"
  ],
  "pending": [],
  "returns": {},
  "timestamp": 1764324100140,
  "chain": 421614,
  "commit": "e99a76f"
}