{
  "transactions": [
    {
      "hash": "0x3d882f8004da95d214dfba1c59a9d537a11e1f5678fe36a58dd48d321667474a",
      "transactionType": "CALL",
      "contractName": null,
      "contractAddress": "0x75faf114eafb1bdbe2f0316df893fd58ce46aa4d",
      "function": "approve(address,uint256)",
      "arguments": [
        "0x3602e7eEA60C3834cB31d8D892DD42a4E81E3c7b",
        "115792089237316195423570985008687907853269984665640564039457584007913129639935"
      ],
      "transaction": {
        "from": "0x23bf95de9f90338f973056351c8cd2cb78cbe52f",
        "to": "0x75faf114eafb1bdbe2f0316df893fd58ce46aa4d",
        "gas": "0x11f69",
        "value": "0x0",
        "input": "0x095ea7b30000000000000000000000003602e7eea60c3834cb31d8d892dd42a4e81e3c7bffffffffffffffffffffffffffffffffffffffffffffffffffffffffffffffff",
        "nonce": "0x8e",
        "chainId": "0x66eee"
      },
      "additionalContracts": [],
      "isFixedGasLimit": false
    },
    {
      "hash": "0xd0ac84a8b8d63303327d3e4d2b463b20e9a511fddf1d365b3a4c226d01a1ac61",
      "transactionType": "CALL",
      "contractName": null,
      "contractAddress": "0x3602e7eea60c3834cb31d8d892dd42a4e81e3c7b",
      "function": "deposit(uint256,address)",
      "arguments": [
        "1000000",
        "0x23BF95De9F90338F973056351C8Cd2CB78cbe52f"
      ],
      "transaction": {
        "from": "0x23bf95de9f90338f973056351c8cd2cb78cbe52f",
        "to": "0x3602e7eea60c3834cb31d8d892dd42a4e81e3c7b",
        "gas": "0x713d3",
        "value": "0x0",
        "input": "0x6e553f6500000000000000000000000000000000000000000000000000000000000f424000000000000000000000000023bf95de9f90338f973056351c8cd2cb78cbe52f",
        "nonce": "0x8f",
        "chainId": "0x66eee"
      },
      "additionalContracts": [],
      "isFixedGasLimit": false
    }
  ],
  "receipts": [
    {
      "status": "0x1",
      "cumulativeGasUsed": "0xd9f0",
      "logs": [
        {
          "address": "0x75faf114eafb1bdbe2f0316df893fd58ce46aa4d",
          "topics": [
            "0x8c5be1e5ebec7d5bd14f71427d1e84f3dd0314c0f7b2291e5b200ac8c7c3b925",
            "0x00000000000000000000000023bf95de9f90338f973056351c8cd2cb78cbe52f",
            "0x0000000000000000000000003602e7eea60c3834cb31d8d892dd42a4e81e3c7b"
          ],
          "data": "0xffffffffffffffffffffffffffffffffffffffffffffffffffffffffffffffff",
          "blockHash": "0x4e3551f344a6c9bc3df4bcd7db41d5f37e63a976483d54865c9fd0a361f92815",
          "blockNumber": "0xc1724e3",
          "transactionHash": "0x3d882f8004da95d214dfba1c59a9d537a11e1f5678fe36a58dd48d321667474a",
          "transactionIndex": "0x1",
          "logIndex": "0x0",
          "removed": false
        }
      ],
      "logsBloom": "0x00000000000000000000000000000000000000000000000000000000000200000000000000000000000000000000000000000000000000000000000000200000800000004000000000000000000000000000000000000000000000000000000000000000000000000000000000000000000000000000000000000000000000000000000000000000000000000000000000000000000000000000000000000000020000008000000000000000000100000000000000000000000000000000000000000000000000000000000000000000008000000000000000000000000000000010000000000000000000000000000000000000000000000100000000000204",
      "type": "0x2",
      "transactionHash": "0x3d882f8004da95d214dfba1c59a9d537a11e1f5678fe36a58dd48d321667474a",
      "transactionIndex": "0x1",
      "blockHash": "0x4e3551f344a6c9bc3df4bcd7db41d5f37e63a976483d54865c9fd0a361f92815",
      "blockNumber": "0xc1724e3",
      "gasUsed": "0xd9f0",
      "effectiveGasPrice": "0x5f5e100",
      "from": "0x23bf95de9f90338f973056351c8cd2cb78cbe52f",
      "to": "0x75faf114eafb1bdbe2f0316df893fd58ce46aa4d",
      "contractAddress": null,
      "gasUsedForL1": "0x7",
      "l1BlockNumber": "0x8f127f",
      "timeboosted": false
    },
    {
      "status": "0x1",
      "cumulativeGasUsed": "0x10855b",
      "logs": [
        {
          "address": "0x75faf114eafb1bdbe2f0316df893fd58ce46aa4d",
          "topics": [
            "0xddf252ad1be2c89b69c2b068fc378daa952ba7f163c4a11628f55a4df523b3ef",
            "0x00000000000000000000000023bf95de9f90338f973056351c8cd2cb78cbe52f",
            "0x0000000000000000000000003602e7eea60c3834cb31d8d892dd42a4e81e3c7b"
          ],
          "data": "0x00000000000000000000000000000000000000000000000000000000000f4240",
          "blockHash": "0x343622e494157da1717a41bf7ef2081940b25d5a2496be077d9372abef64b5d4",
          "blockNumber": "0xc1724e6",
          "transactionHash": "0xd0ac84a8b8d63303327d3e4d2b463b20e9a511fddf1d365b3a4c226d01a1ac61",
          "transactionIndex": "0x2",
          "logIndex": "0x41",
          "removed": false
        },
        {
          "address": "0x3602e7eea60c3834cb31d8d892dd42a4e81e3c7b",
          "topics": [
            "0xddf252ad1be2c89b69c2b068fc378daa952ba7f163c4a11628f55a4df523b3ef",
            "0x0000000000000000000000000000000000000000000000000000000000000000",
            "0x00000000000000000000000023bf95de9f90338f973056351c8cd2cb78cbe52f"
          ],
          "data": "0x00000000000000000000000000000000000000000000000000000000000f4240",
          "blockHash": "0x343622e494157da1717a41bf7ef2081940b25d5a2496be077d9372abef64b5d4",
          "blockNumber": "0xc1724e6",
          "transactionHash": "0xd0ac84a8b8d63303327d3e4d2b463b20e9a511fddf1d365b3a4c226d01a1ac61",
          "transactionIndex": "0x2",
          "logIndex": "0x42",
          "removed": false
        },
        {
          "address": "0x3602e7eea60c3834cb31d8d892dd42a4e81e3c7b",
          "topics": [
            "0xdcbc1c05240f31ff3ad067ef1ee35ce4997762752e3a095284754544f4c709d7",
            "0x00000000000000000000000023bf95de9f90338f973056351c8cd2cb78cbe52f",
            "0x00000000000000000000000023bf95de9f90338f973056351c8cd2cb78cbe52f"
          ],
          "data": "0x00000000000000000000000000000000000000000000000000000000000f424000000000000000000000000000000000000000000000000000000000000f4240",
          "blockHash": "0x343622e494157da1717a41bf7ef2081940b25d5a2496be077d9372abef64b5d4",
          "blockNumber": "0xc1724e6",
          "transactionHash": "0xd0ac84a8b8d63303327d3e4d2b463b20e9a511fddf1d365b3a4c226d01a1ac61",
          "transactionIndex": "0x2",
          "logIndex": "0x43",
          "removed": false
        },
        {
          "address": "0xbfc91d59fdaa134a4ed45f7b584caf96d7792eff",
          "topics": [
            "0x804c9b842b2748a22bb64b345453a3de7ca54a6ca45ce00d415894979e22897a",
            "0x00000000000000000000000075faf114eafb1bdbe2f0316df893fd58ce46aa4d"
          ],
          "data": "0x000000000000000000000000000000000000000000239e1fda497583f1cc275a000000000000000000000000000000000000000000689e624c21b40ca98a4b810000000000000000000000000000000000000000002eb74eb195ab12a38a4b8100000000000000000000000000000000000000000376e37532ac953f8bd643590000000000000000000000000000000000000000038e173adff500a4f227b0f5",
          "blockHash": "0x343622e494157da1717a41bf7ef2081940b25d5a2496be077d9372abef64b5d4",
          "blockNumber": "0xc1724e6",
          "transactionHash": "0xd0ac84a8b8d63303327d3e4d2b463b20e9a511fddf1d365b3a4c226d01a1ac61",
          "transactionIndex": "0x2",
          "logIndex": "0x44",
          "removed": false
        },
        {
          "address": "0x75faf114eafb1bdbe2f0316df893fd58ce46aa4d",
          "topics": [
            "0xddf252ad1be2c89b69c2b068fc378daa952ba7f163c4a11628f55a4df523b3ef",
            "0x0000000000000000000000003602e7eea60c3834cb31d8d892dd42a4e81e3c7b",
            "0x000000000000000000000000460b97bd498e1157530aeb3086301d5225b91216"
          ],
          "data": "0x00000000000000000000000000000000000000000000000000000000000f4240",
          "blockHash": "0x343622e494157da1717a41bf7ef2081940b25d5a2496be077d9372abef64b5d4",
          "blockNumber": "0xc1724e6",
          "transactionHash": "0xd0ac84a8b8d63303327d3e4d2b463b20e9a511fddf1d365b3a4c226d01a1ac61",
          "transactionIndex": "0x2",
          "logIndex": "0x45",
          "removed": false
        },
        {
          "address": "0x460b97bd498e1157530aeb3086301d5225b91216",
          "topics": [
            "0xddf252ad1be2c89b69c2b068fc378daa952ba7f163c4a11628f55a4df523b3ef",
            "0x0000000000000000000000000000000000000000000000000000000000000000",
            "0x0000000000000000000000003602e7eea60c3834cb31d8d892dd42a4e81e3c7b"
          ],
          "data": "0x00000000000000000000000000000000000000000000000000000000000f4240",
          "blockHash": "0x343622e494157da1717a41bf7ef2081940b25d5a2496be077d9372abef64b5d4",
          "blockNumber": "0xc1724e6",
          "transactionHash": "0xd0ac84a8b8d63303327d3e4d2b463b20e9a511fddf1d365b3a4c226d01a1ac61",
          "transactionIndex": "0x2",
          "logIndex": "0x46",
          "removed": false
        },
        {
          "address": "0x460b97bd498e1157530aeb3086301d5225b91216",
          "topics": [
            "0x458f5fa412d0f69b08dd84872b0215675cc67bc1d5b6fd93300a1c3878b86196",
            "0x0000000000000000000000003602e7eea60c3834cb31d8d892dd42a4e81e3c7b",
            "0x0000000000000000000000003602e7eea60c3834cb31d8d892dd42a4e81e3c7b"
          ],
          "data": "0x00000000000000000000000000000000000000000000000000000000000f4240000000000000000000000000000000000000000000000000000000000000000000000000000000000000000000000000000000000376e37532ac953f8bd64359",
          "blockHash": "0x343622e494157da1717a41bf7ef2081940b25d5a2496be077d9372abef64b5d4",
          "blockNumber": "0xc1724e6",
          "transactionHash": "0xd0ac84a8b8d63303327d3e4d2b463b20e9a511fddf1d365b3a4c226d01a1ac61",
          "transactionIndex": "0x2",
          "logIndex": "0x47",
          "removed": false
        },
        {
          "address": "0xbfc91d59fdaa134a4ed45f7b584caf96d7792eff",
          "topics": [
            "0x00058a56ea94653cdf4f152d227ace22d4c00ad99e2a43f58cb7d9e3feb295f2",
            "0x00000000000000000000000075faf114eafb1bdbe2f0316df893fd58ce46aa4d",
            "0x0000000000000000000000003602e7eea60c3834cb31d8d892dd42a4e81e3c7b"
          ],
          "data": "0x",
          "blockHash": "0x343622e494157da1717a41bf7ef2081940b25d5a2496be077d9372abef64b5d4",
          "blockNumber": "0xc1724e6",
          "transactionHash": "0xd0ac84a8b8d63303327d3e4d2b463b20e9a511fddf1d365b3a4c226d01a1ac61",
          "transactionIndex": "0x2",
          "logIndex": "0x48",
          "removed": false
        },
        {
          "address": "0xbfc91d59fdaa134a4ed45f7b584caf96d7792eff",
          "topics": [
            "0x2b627736bca15cd5381dcf80b0bf11fd197d01a037c52b927a881a10fb73ba61",
            "0x00000000000000000000000075faf114eafb1bdbe2f0316df893fd58ce46aa4d",
            "0x0000000000000000000000003602e7eea60c3834cb31d8d892dd42a4e81e3c7b",
            "0x0000000000000000000000000000000000000000000000000000000000000000"
          ],
          "data": "0x0000000000000000000000003602e7eea60c3834cb31d8d892dd42a4e81e3c7b00000000000000000000000000000000000000000000000000000000000f4240",
          "blockHash": "0x343622e494157da1717a41bf7ef2081940b25d5a2496be077d9372abef64b5d4",
          "blockNumber": "0xc1724e6",
          "transactionHash": "0xd0ac84a8b8d63303327d3e4d2b463b20e9a511fddf1d365b3a4c226d01a1ac61",
          "transactionIndex": "0x2",
          "logIndex": "0x49",
          "removed": false
        },
        {
          "address": "0x3602e7eea60c3834cb31d8d892dd42a4e81e3c7b",
          "topics": [
            "0xba3ffa58e6beddd202dec6f1b1bb88dbb12d8823d523283b2ebbe9b627c9eb02"
          ],
          "data": "0x00000000000000000000000000000000000000000000000000000000000f424000000000000000000000000000000000000000000000000000000000000f4240",
          "blockHash": "0x343622e494157da1717a41bf7ef2081940b25d5a2496be077d9372abef64b5d4",
          "blockNumber": "0xc1724e6",
          "transactionHash": "0xd0ac84a8b8d63303327d3e4d2b463b20e9a511fddf1d365b3a4c226d01a1ac61",
          "transactionIndex": "0x2",
          "logIndex": "0x4a",
          "removed": false
        }
      ],
      "logsBloom": "0x000000000000080000800000000000000000000000000000000000000002000000000000000000000000000000040000000180000000000100000000000000008000004441000002000000080100000000000000000000000000000400000100000002000200000000000000000008000200000000040020000000100001000000000000800000000000000000000000000c2000000000000000000000000000000000008000000000000000000100000000000000000000000000000000010002000002000000000000002040000000008000000008080000000400000020000000000000000000000000000000000040000000000000001100400000000204",
      "type": "0x2",
      "transactionHash": "0xd0ac84a8b8d63303327d3e4d2b463b20e9a511fddf1d365b3a4c226d01a1ac61",
      "transactionIndex": "0x2",
      "blockHash": "0x343622e494157da1717a41bf7ef2081940b25d5a2496be077d9372abef64b5d4",
      "blockNumber": "0xc1724e6",
      "gasUsed": "0x4d6e2",
      "effectiveGasPrice": "0x5f5e100",
      "from": "0x23bf95de9f90338f973056351c8cd2cb78cbe52f",
      "to": "0x3602e7eea60c3834cb31d8d892dd42a4e81e3c7b",
      "contractAddress": null,
      "gasUsedForL1": "0x7",
      "l1BlockNumber": "0x8f127f",
      "timeboosted": false
    }
  ],
  "libraries": [
    "src/config/Configuration.ArbitrumSepolia.sol:ConfigurationArbitrumSepolia:0xbAEDEDa67771036907F1650AaDb06C645f7cE543",
    "src/config/Configuration.Base.sol:ConfigurationBaseMainnet:0xc724402C8C6bef7bFD30C5f5e26A12C9a8248D33",
    "src/config/Configuration.BaseSepolia.sol:ConfigurationBaseSepolia:0xF5FBD5182356F5EE73198a02eB13dAD9612DF39A",
    "src/config/Configuration.Ethereum.sol:ConfigurationEthereumMainnet:0x6C6BC06853C6aFa04fD58bb707605C7D2679465B",
    "src/config/Configuration.EthereumSepolia.sol:ConfigurationEthereumSepolia:0xA1759Fd7414815e88589a600F3708434ccc70d82",
    "src/config/Configuration.Local.sol:ConfigurationLocal:0xEb0e0C1e3CfF2eAAcb94B498F8E6324e7A7B0a2B",
    "src/config/Configuration.sol:Configuration:0x123fe1F1a93754C6aC2B1bdF930a47A39762FAFF"
  ],
  "pending": [],
  "returns": {},
  "timestamp": 1760021618159,
  "chain": 421614,
  "commit": "c53b627"
}