{
  "transactions": [
    {
      "hash": "0x9331ad7e463ca5ec3a4f1dc0454d1bb973257a4eab4175fb4b06960128cbd302",
      "transactionType": "CALL",
      "contractName": null,
      "contractAddress": "0x75faf114eafb1bdbe2f0316df893fd58ce46aa4d",
      "function": "approve(address,uint256)",
      "arguments": [
        "0x0e8F89fa272615B2fC5dC6e40559bb6b22e3948C",
        "115792089237316195423570985008687907853269984665640564039457584007913129639935"
      ],
      "transaction": {
        "from": "0x23bf95de9f90338f973056351c8cd2cb78cbe52f",
        "to": "0x75faf114eafb1bdbe2f0316df893fd58ce46aa4d",
        "gas": "0x11f5d",
        "value": "0x0",
        "input": "0x095ea7b30000000000000000000000000e8f89fa272615b2fc5dc6e40559bb6b22e3948cffffffffffffffffffffffffffffffffffffffffffffffffffffffffffffffff",
        "nonce": "0x9e",
        "chainId": "0x66eee"
      },
      "additionalContracts": [],
      "isFixedGasLimit": false
    },
    {
      "hash": "0xdf86cf597ff3b36c5b83c8cfe5f00d9379d9454e0b5a0d826b194b6a9c869f97",
      "transactionType": "CALL",
      "contractName": null,
      "contractAddress": "0x0e8f89fa272615b2fc5dc6e40559bb6b22e3948c",
      "function": "deposit(uint256,address)",
      "arguments": [
        "1000000",
        "0x23BF95De9F90338F973056351C8Cd2CB78cbe52f"
      ],
      "transaction": {
        "from": "0x23bf95de9f90338f973056351c8cd2cb78cbe52f",
        "to": "0x0e8f89fa272615b2fc5dc6e40559bb6b22e3948c",
        "gas": "0x713d3",
        "value": "0x0",
        "input": "0x6e553f6500000000000000000000000000000000000000000000000000000000000f424000000000000000000000000023bf95de9f90338f973056351c8cd2cb78cbe52f",
        "nonce": "0x9f",
        "chainId": "0x66eee"
      },
      "additionalContracts": [],
      "isFixedGasLimit": false
    }
  ],
  "receipts": [
    {
      "status": "0x1",
      "cumulativeGasUsed": "0xf747c",
      "logs": [
        {
          "address": "0x75faf114eafb1bdbe2f0316df893fd58ce46aa4d",
          "topics": [
            "0x8c5be1e5ebec7d5bd14f71427d1e84f3dd0314c0f7b2291e5b200ac8c7c3b925",
            "0x00000000000000000000000023bf95de9f90338f973056351c8cd2cb78cbe52f",
            "0x0000000000000000000000000e8f89fa272615b2fc5dc6e40559bb6b22e3948c"
          ],
          "data": "0xffffffffffffffffffffffffffffffffffffffffffffffffffffffffffffffff",
          "blockHash": "0xe2aa3e6baa35d4628001de0264a400eed678946f48dae644f3040d2741652f8a",
          "blockNumber": "0xc173a49",
          "transactionHash": "0x9331ad7e463ca5ec3a4f1dc0454d1bb973257a4eab4175fb4b06960128cbd302",
          "transactionIndex": "0x5",
          "logIndex": "0x3",
          "removed": false
        }
      ],
      "logsBloom": "0x40000000000000000000002000000000000000000000000000000000000000000000000000000000000000000000000000000000000000000000000000200000800000000000000000000000000000000000000800000000000000000000000000000000000000000000000000000000000000000000000000000000000000000000000000000000000000000000000000000000000000000000000000000000020000008000000000000000000100000000000000000000000000000000000000000000000000000000000000000000008000000000000000000000000000000010000000000000000000000000000000000000000000000100000000000004",
      "type": "0x2",
      "transactionHash": "0x9331ad7e463ca5ec3a4f1dc0454d1bb973257a4eab4175fb4b06960128cbd302",
      "transactionIndex": "0x5",
      "blockHash": "0xe2aa3e6baa35d4628001de0264a400eed678946f48dae644f3040d2741652f8a",
      "blockNumber": "0xc173a49",
      "gasUsed": "0xd9e9",
      "effectiveGasPrice": "0x5f5e100",
      "from": "0x23bf95de9f90338f973056351c8cd2cb78cbe52f",
      "to": "0x75faf114eafb1bdbe2f0316df893fd58ce46aa4d",
      "contractAddress": null,
      "gasUsedForL1": "0x0",
      "l1BlockNumber": "0x8f12e7",
      "timeboosted": false
    },
    {
      "status": "0x1",
      "cumulativeGasUsed": "0x5d29b",
      "logs": [
        {
          "address": "0x75faf114eafb1bdbe2f0316df893fd58ce46aa4d",
          "topics": [
            "0xddf252ad1be2c89b69c2b068fc378daa952ba7f163c4a11628f55a4df523b3ef",
            "0x00000000000000000000000023bf95de9f90338f973056351c8cd2cb78cbe52f",
            "0x0000000000000000000000000e8f89fa272615b2fc5dc6e40559bb6b22e3948c"
          ],
          "data": "0x00000000000000000000000000000000000000000000000000000000000f4240",
          "blockHash": "0xc57a6b831ec4543024caf218ee3713979a32ff47df0e79afb97b86074faea989",
          "blockNumber": "0xc173a4d",
          "transactionHash": "0xdf86cf597ff3b36c5b83c8cfe5f00d9379d9454e0b5a0d826b194b6a9c869f97",
          "transactionIndex": "0x2",
          "logIndex": "0x0",
          "removed": false
        },
        {
          "address": "0x0e8f89fa272615b2fc5dc6e40559bb6b22e3948c",
          "topics": [
            "0xddf252ad1be2c89b69c2b068fc378daa952ba7f163c4a11628f55a4df523b3ef",
            "0x0000000000000000000000000000000000000000000000000000000000000000",
            "0x00000000000000000000000023bf95de9f90338f973056351c8cd2cb78cbe52f"
          ],
          "data": "0x00000000000000000000000000000000000000000000000000000000000f4240",
          "blockHash": "0xc57a6b831ec4543024caf218ee3713979a32ff47df0e79afb97b86074faea989",
          "blockNumber": "0xc173a4d",
          "transactionHash": "0xdf86cf597ff3b36c5b83c8cfe5f00d9379d9454e0b5a0d826b194b6a9c869f97",
          "transactionIndex": "0x2",
          "logIndex": "0x1",
          "removed": false
        },
        {
          "address": "0x0e8f89fa272615b2fc5dc6e40559bb6b22e3948c",
          "topics": [
            "0xdcbc1c05240f31ff3ad067ef1ee35ce4997762752e3a095284754544f4c709d7",
            "0x00000000000000000000000023bf95de9f90338f973056351c8cd2cb78cbe52f",
            "0x00000000000000000000000023bf95de9f90338f973056351c8cd2cb78cbe52f"
          ],
          "data": "0x00000000000000000000000000000000000000000000000000000000000f424000000000000000000000000000000000000000000000000000000000000f4240",
          "blockHash": "0xc57a6b831ec4543024caf218ee3713979a32ff47df0e79afb97b86074faea989",
          "blockNumber": "0xc173a4d",
          "transactionHash": "0xdf86cf597ff3b36c5b83c8cfe5f00d9379d9454e0b5a0d826b194b6a9c869f97",
          "transactionIndex": "0x2",
          "logIndex": "0x2",
          "removed": false
        },
        {
          "address": "0xbfc91d59fdaa134a4ed45f7b584caf96d7792eff",
          "topics": [
            "0x804c9b842b2748a22bb64b345453a3de7ca54a6ca45ce00d415894979e22897a",
            "0x00000000000000000000000075faf114eafb1bdbe2f0316df893fd58ce46aa4d"
          ],
          "data": "0x000000000000000000000000000000000000000000239e09748dc6c7a15154c2000000000000000000000000000000000000000000689e539bf2bbc61dad66380000000000000000000000000000000000000000002eb7400166b2cc17ad663800000000000000000000000000000000000000000376e3e1af05ad36424b8f5c0000000000000000000000000000000000000000038e17cce33b013aa8eea5cc",
          "blockHash": "0xc57a6b831ec4543024caf218ee3713979a32ff47df0e79afb97b86074faea989",
          "blockNumber": "0xc173a4d",
          "transactionHash": "0xdf86cf597ff3b36c5b83c8cfe5f00d9379d9454e0b5a0d826b194b6a9c869f97",
          "transactionIndex": "0x2",
          "logIndex": "0x3",
          "removed": false
        },
        {
          "address": "0x75faf114eafb1bdbe2f0316df893fd58ce46aa4d",
          "topics": [
            "0xddf252ad1be2c89b69c2b068fc378daa952ba7f163c4a11628f55a4df523b3ef",
            "0x0000000000000000000000000e8f89fa272615b2fc5dc6e40559bb6b22e3948c",
            "0x000000000000000000000000460b97bd498e1157530aeb3086301d5225b91216"
          ],
          "data": "0x00000000000000000000000000000000000000000000000000000000000f4240",
          "blockHash": "0xc57a6b831ec4543024caf218ee3713979a32ff47df0e79afb97b86074faea989",
          "blockNumber": "0xc173a4d",
          "transactionHash": "0xdf86cf597ff3b36c5b83c8cfe5f00d9379d9454e0b5a0d826b194b6a9c869f97",
          "transactionIndex": "0x2",
          "logIndex": "0x4",
          "removed": false
        },
        {
          "address": "0x460b97bd498e1157530aeb3086301d5225b91216",
          "topics": [
            "0xddf252ad1be2c89b69c2b068fc378daa952ba7f163c4a11628f55a4df523b3ef",
            "0x0000000000000000000000000000000000000000000000000000000000000000",
            "0x0000000000000000000000000e8f89fa272615b2fc5dc6e40559bb6b22e3948c"
          ],
          "data": "0x00000000000000000000000000000000000000000000000000000000000f4240",
          "blockHash": "0xc57a6b831ec4543024caf218ee3713979a32ff47df0e79afb97b86074faea989",
          "blockNumber": "0xc173a4d",
          "transactionHash": "0xdf86cf597ff3b36c5b83c8cfe5f00d9379d9454e0b5a0d826b194b6a9c869f97",
          "transactionIndex": "0x2",
          "logIndex": "0x5",
          "removed": false
        },
        {
          "address": "0x460b97bd498e1157530aeb3086301d5225b91216",
          "topics": [
            "0x458f5fa412d0f69b08dd84872b0215675cc67bc1d5b6fd93300a1c3878b86196",
            "0x0000000000000000000000000e8f89fa272615b2fc5dc6e40559bb6b22e3948c",
            "0x0000000000000000000000000e8f89fa272615b2fc5dc6e40559bb6b22e3948c"
          ],
          "data": "0x00000000000000000000000000000000000000000000000000000000000f4240000000000000000000000000000000000000000000000000000000000000000000000000000000000000000000000000000000000376e3e1af05ad36424b8f5c",
          "blockHash": "0xc57a6b831ec4543024caf218ee3713979a32ff47df0e79afb97b86074faea989",
          "blockNumber": "0xc173a4d",
          "transactionHash": "0xdf86cf597ff3b36c5b83c8cfe5f00d9379d9454e0b5a0d826b194b6a9c869f97",
          "transactionIndex": "0x2",
          "logIndex": "0x6",
          "removed": false
        },
        {
          "address": "0xbfc91d59fdaa134a4ed45f7b584caf96d7792eff",
          "topics": [
            "0x00058a56ea94653cdf4f152d227ace22d4c00ad99e2a43f58cb7d9e3feb295f2",
            "0x00000000000000000000000075faf114eafb1bdbe2f0316df893fd58ce46aa4d",
            "0x0000000000000000000000000e8f89fa272615b2fc5dc6e40559bb6b22e3948c"
          ],
          "data": "0x",
          "blockHash": "0xc57a6b831ec4543024caf218ee3713979a32ff47df0e79afb97b86074faea989",
          "blockNumber": "0xc173a4d",
          "transactionHash": "0xdf86cf597ff3b36c5b83c8cfe5f00d9379d9454e0b5a0d826b194b6a9c869f97",
          "transactionIndex": "0x2",
          "logIndex": "0x7",
          "removed": false
        },
        {
          "address": "0xbfc91d59fdaa134a4ed45f7b584caf96d7792eff",
          "topics": [
            "0x2b627736bca15cd5381dcf80b0bf11fd197d01a037c52b927a881a10fb73ba61",
            "0x00000000000000000000000075faf114eafb1bdbe2f0316df893fd58ce46aa4d",
            "0x0000000000000000000000000e8f89fa272615b2fc5dc6e40559bb6b22e3948c",
            "0x0000000000000000000000000000000000000000000000000000000000000000"
          ],
          "data": "0x0000000000000000000000000e8f89fa272615b2fc5dc6e40559bb6b22e3948c00000000000000000000000000000000000000000000000000000000000f4240",
          "blockHash": "0xc57a6b831ec4543024caf218ee3713979a32ff47df0e79afb97b86074faea989",
          "blockNumber": "0xc173a4d",
          "transactionHash": "0xdf86cf597ff3b36c5b83c8cfe5f00d9379d9454e0b5a0d826b194b6a9c869f97",
          "transactionIndex": "0x2",
          "logIndex": "0x8",
          "removed": false
        },
        {
          "address": "0x0e8f89fa272615b2fc5dc6e40559bb6b22e3948c",
          "topics": [
            "0xba3ffa58e6beddd202dec6f1b1bb88dbb12d8823d523283b2ebbe9b627c9eb02"
          ],
          "data": "0x00000000000000000000000000000000000000000000000000000000000f424000000000000000000000000000000000000000000000000000000000000f4240",
          "blockHash": "0xc57a6b831ec4543024caf218ee3713979a32ff47df0e79afb97b86074faea989",
          "blockNumber": "0xc173a4d",
          "transactionHash": "0xdf86cf597ff3b36c5b83c8cfe5f00d9379d9454e0b5a0d826b194b6a9c869f97",
          "transactionIndex": "0x2",
          "logIndex": "0x9",
          "removed": false
        }
      ],
      "logsBloom": "0x40000000000008000080002000000000000000000000000000000000000000000000000000000000000000000004000000018000000000010000000000000000800000440100000a000000080100000000000008000000000000000400000000000000000200000000000000000008020200000000040020000000100001000000000000800000000000000000000000000c0000000000000000000000000000000000008000000000000000000100000000000000000000000000000000010002400002000000000000002040000000008000000008080000000400000020000000000000000000000000000000000040000000000000001100400000000004",
      "type": "0x2",
      "transactionHash": "0xdf86cf597ff3b36c5b83c8cfe5f00d9379d9454e0b5a0d826b194b6a9c869f97",
      "transactionIndex": "0x2",
      "blockHash": "0xc57a6b831ec4543024caf218ee3713979a32ff47df0e79afb97b86074faea989",
      "blockNumber": "0xc173a4d",
      "gasUsed": "0x4d6db",
      "effectiveGasPrice": "0x5f5e100",
      "from": "0x23bf95de9f90338f973056351c8cd2cb78cbe52f",
      "to": "0x0e8f89fa272615b2fc5dc6e40559bb6b22e3948c",
      "contractAddress": null,
      "gasUsedForL1": "0x0",
      "l1BlockNumber": "0x8f12e7",
      "timeboosted": false
    }
  ],
  "libraries": [
    "src/config/Configuration.ArbitrumSepolia.sol:ConfigurationArbitrumSepolia:0xbAEDEDa67771036907F1650AaDb06C645f7cE543",
    "src/config/Configuration.Base.sol:ConfigurationBaseMainnet:0xc724402C8C6bef7bFD30C5f5e26A12C9a8248D33",
    "src/config/Configuration.BaseSepolia.sol:ConfigurationBaseSepolia:0xF5FBD5182356F5EE73198a02eB13dAD9612DF39A",
    "src/config/Configuration.Ethereum.sol:ConfigurationEthereumMainnet:0x6C6BC06853C6aFa04fD58bb707605C7D2679465B",
    "src/config/Configuration.EthereumSepolia.sol:ConfigurationEthereumSepolia:0xA1759Fd7414815e88589a600F3708434ccc70d82",
    "src/config/Configuration.Local.sol:ConfigurationLocal:0xEb0e0C1e3CfF2eAAcb94B498F8E6324e7A7B0a2B",
    "src/config/Configuration.sol:Configuration:0x123fe1F1a93754C6aC2B1bdF930a47A39762FAFF"
  ],
  "pending": [],
  "returns": {},
  "timestamp": 1760022985311,
  "chain": 421614,
  "commit": "7d9423d"
}