{
  "transactions": [
    {
      "hash": "0x28e7fa2f1de0d9094e5c585ac990462dbfd2041bdea99a87e13ec736111bf8a0",
      "transactionType": "CALL",
      "contractName": null,
      "contractAddress": "0x75faf114eafb1bdbe2f0316df893fd58ce46aa4d",
      "function": "approve(address,uint256)",
      "arguments": [
        "0x735680789b86B83cF410D87Dcf5F02e70E1915f2",
        "115792089237316195423570985008687907853269984665640564039457584007913129639935"
      ],
      "transaction": {
        "from": "0x23bf95de9f90338f973056351c8cd2cb78cbe52f",
        "to": "0x75faf114eafb1bdbe2f0316df893fd58ce46aa4d",
        "gas": "0x11f5d",
        "value": "0x0",
        "input": "0x095ea7b3000000000000000000000000735680789b86b83cf410d87dcf5f02e70e1915f2ffffffffffffffffffffffffffffffffffffffffffffffffffffffffffffffff",
        "nonce": "0x154",
        "chainId": "0x66eee"
      },
      "additionalContracts": [],
      "isFixedGasLimit": false
    },
    {
      "hash": "0x8f020041f31054a0b4aef5d4d765d4c040488eb25559ababc7a43c7e3f0765b0",
      "transactionType": "CALL",
      "contractName": null,
      "contractAddress": "0x735680789b86b83cf410d87dcf5f02e70e1915f2",
      "function": "deposit(uint256,address)",
      "arguments": [
        "1000000",
        "0x23BF95De9F90338F973056351C8Cd2CB78cbe52f"
      ],
      "transaction": {
        "from": "0x23bf95de9f90338f973056351c8cd2cb78cbe52f",
        "to": "0x735680789b86b83cf410d87dcf5f02e70e1915f2",
        "gas": "0x713d3",
        "value": "0x0",
        "input": "0x6e553f6500000000000000000000000000000000000000000000000000000000000f424000000000000000000000000023bf95de9f90338f973056351c8cd2cb78cbe52f",
        "nonce": "0x155",
        "chainId": "0x66eee"
      },
      "additionalContracts": [],
      "isFixedGasLimit": false
    }
  ],
  "receipts": [
    {
      "status": "0x1",
      "cumulativeGasUsed": "0xd9e9",
      "logs": [
        {
          "address": "0x75faf114eafb1bdbe2f0316df893fd58ce46aa4d",
          "topics": [
            "0x8c5be1e5ebec7d5bd14f71427d1e84f3dd0314c0f7b2291e5b200ac8c7c3b925",
            "0x00000000000000000000000023bf95de9f90338f973056351c8cd2cb78cbe52f",
            "0x000000000000000000000000735680789b86b83cf410d87dcf5f02e70e1915f2"
          ],
          "data": "0xffffffffffffffffffffffffffffffffffffffffffffffffffffffffffffffff",
          "blockHash": "0xb78a362359df3b3b7fe150556482c88c4b0aec6a6f43a5d6bd326a0342aa865b",
          "blockNumber": "0xc85a1eb",
          "transactionHash": "0x28e7fa2f1de0d9094e5c585ac990462dbfd2041bdea99a87e13ec736111bf8a0",
          "transactionIndex": "0x1",
          "logIndex": "0x0",
          "removed": false
        }
      ],
      "logsBloom": "0x00000000000000000000000000000000000000000000000000000000000000000008000000000000000000000000000000000000000000000000000000200000800000000000000000000000000000002000000000000000000000000000000000000000000000000000000000000000000000000000000000000000000000000000000000000000000000000000000000000000000000000000000000000000020000008000000000800000000100000000000000000000000000000000000000000000000000000000000000000000008000000000000000000000000000000010000000000000000000000000000000000000000000000100000000000004",
      "type": "0x2",
      "transactionHash": "0x28e7fa2f1de0d9094e5c585ac990462dbfd2041bdea99a87e13ec736111bf8a0",
      "transactionIndex": "0x1",
      "blockHash": "0xb78a362359df3b3b7fe150556482c88c4b0aec6a6f43a5d6bd326a0342aa865b",
      "blockNumber": "0xc85a1eb",
      "gasUsed": "0xd9e9",
      "effectiveGasPrice": "0x5f5e100",
      "from": "0x23bf95de9f90338f973056351c8cd2cb78cbe52f",
      "to": "0x75faf114eafb1bdbe2f0316df893fd58ce46aa4d",
      "contractAddress": null,
      "gasUsedForL1": "0x0",
      "l1BlockNumber": "0x9153c0",
      "timeboosted": false
    },
    {
      "status": "0x1",
      "cumulativeGasUsed": "0x62aa1",
      "logs": [
        {
          "address": "0x75faf114eafb1bdbe2f0316df893fd58ce46aa4d",
          "topics": [
            "0xddf252ad1be2c89b69c2b068fc378daa952ba7f163c4a11628f55a4df523b3ef",
            "0x00000000000000000000000023bf95de9f90338f973056351c8cd2cb78cbe52f",
            "0x000000000000000000000000735680789b86b83cf410d87dcf5f02e70e1915f2"
          ],
          "data": "0x00000000000000000000000000000000000000000000000000000000000f4240",
          "blockHash": "0x192cb931aeb07c8830bde9ae59ca80e28ce32af830ee159a6e9bf311aaa2a282",
          "blockNumber": "0xc85a1ee",
          "transactionHash": "0x8f020041f31054a0b4aef5d4d765d4c040488eb25559ababc7a43c7e3f0765b0",
          "transactionIndex": "0x2",
          "logIndex": "0x1",
          "removed": false
        },
        {
          "address": "0x735680789b86b83cf410d87dcf5f02e70e1915f2",
          "topics": [
            "0xddf252ad1be2c89b69c2b068fc378daa952ba7f163c4a11628f55a4df523b3ef",
            "0x0000000000000000000000000000000000000000000000000000000000000000",
            "0x00000000000000000000000023bf95de9f90338f973056351c8cd2cb78cbe52f"
          ],
          "data": "0x00000000000000000000000000000000000000000000000000000000000f4240",
          "blockHash": "0x192cb931aeb07c8830bde9ae59ca80e28ce32af830ee159a6e9bf311aaa2a282",
          "blockNumber": "0xc85a1ee",
          "transactionHash": "0x8f020041f31054a0b4aef5d4d765d4c040488eb25559ababc7a43c7e3f0765b0",
          "transactionIndex": "0x2",
          "logIndex": "0x2",
          "removed": false
        },
        {
          "address": "0x735680789b86b83cf410d87dcf5f02e70e1915f2",
          "topics": [
            "0xdcbc1c05240f31ff3ad067ef1ee35ce4997762752e3a095284754544f4c709d7",
            "0x00000000000000000000000023bf95de9f90338f973056351c8cd2cb78cbe52f",
            "0x00000000000000000000000023bf95de9f90338f973056351c8cd2cb78cbe52f"
          ],
          "data": "0x00000000000000000000000000000000000000000000000000000000000f424000000000000000000000000000000000000000000000000000000000000f4240",
          "blockHash": "0x192cb931aeb07c8830bde9ae59ca80e28ce32af830ee159a6e9bf311aaa2a282",
          "blockNumber": "0xc85a1ee",
          "transactionHash": "0x8f020041f31054a0b4aef5d4d765d4c040488eb25559ababc7a43c7e3f0765b0",
          "transactionIndex": "0x2",
          "logIndex": "0x3",
          "removed": false
        },
        {
          "address": "0xbfc91d59fdaa134a4ed45f7b584caf96d7792eff",
          "topics": [
            "0x804c9b842b2748a22bb64b345453a3de7ca54a6ca45ce00d415894979e22897a",
            "0x00000000000000000000000075faf114eafb1bdbe2f0316df893fd58ce46aa4d"
          ],
          "data": "0x0000000000000000000000000000000000000000002380adc8221bc2a3f5463e000000000000000000000000000000000000000000688b0ed7d95e30cb25a9810000000000000000000000000000000000000000002ea3fb3d4d5536c525a9810000000000000000000000000000000000000000037917ad6d730ac9c737d39a000000000000000000000000000000000000000003910fbc078490f65e83a971",
          "blockHash": "0x192cb931aeb07c8830bde9ae59ca80e28ce32af830ee159a6e9bf311aaa2a282",
          "blockNumber": "0xc85a1ee",
          "transactionHash": "0x8f020041f31054a0b4aef5d4d765d4c040488eb25559ababc7a43c7e3f0765b0",
          "transactionIndex": "0x2",
          "logIndex": "0x4",
          "removed": false
        },
        {
          "address": "0x75faf114eafb1bdbe2f0316df893fd58ce46aa4d",
          "topics": [
            "0xddf252ad1be2c89b69c2b068fc378daa952ba7f163c4a11628f55a4df523b3ef",
            "0x000000000000000000000000735680789b86b83cf410d87dcf5f02e70e1915f2",
            "0x000000000000000000000000460b97bd498e1157530aeb3086301d5225b91216"
          ],
          "data": "0x00000000000000000000000000000000000000000000000000000000000f4240",
          "blockHash": "0x192cb931aeb07c8830bde9ae59ca80e28ce32af830ee159a6e9bf311aaa2a282",
          "blockNumber": "0xc85a1ee",
          "transactionHash": "0x8f020041f31054a0b4aef5d4d765d4c040488eb25559ababc7a43c7e3f0765b0",
          "transactionIndex": "0x2",
          "logIndex": "0x5",
          "removed": false
        },
        {
          "address": "0x460b97bd498e1157530aeb3086301d5225b91216",
          "topics": [
            "0xddf252ad1be2c89b69c2b068fc378daa952ba7f163c4a11628f55a4df523b3ef",
            "0x0000000000000000000000000000000000000000000000000000000000000000",
            "0x000000000000000000000000735680789b86b83cf410d87dcf5f02e70e1915f2"
          ],
          "data": "0x00000000000000000000000000000000000000000000000000000000000f4240",
          "blockHash": "0x192cb931aeb07c8830bde9ae59ca80e28ce32af830ee159a6e9bf311aaa2a282",
          "blockNumber": "0xc85a1ee",
          "transactionHash": "0x8f020041f31054a0b4aef5d4d765d4c040488eb25559ababc7a43c7e3f0765b0",
          "transactionIndex": "0x2",
          "logIndex": "0x6",
          "removed": false
        },
        {
          "address": "0x460b97bd498e1157530aeb3086301d5225b91216",
          "topics": [
            "0x458f5fa412d0f69b08dd84872b0215675cc67bc1d5b6fd93300a1c3878b86196",
            "0x000000000000000000000000735680789b86b83cf410d87dcf5f02e70e1915f2",
            "0x000000000000000000000000735680789b86b83cf410d87dcf5f02e70e1915f2"
          ],
          "data": "0x00000000000000000000000000000000000000000000000000000000000f424000000000000000000000000000000000000000000000000000000000000000000000000000000000000000000000000000000000037917ad6d730ac9c737d39a",
          "blockHash": "0x192cb931aeb07c8830bde9ae59ca80e28ce32af830ee159a6e9bf311aaa2a282",
          "blockNumber": "0xc85a1ee",
          "transactionHash": "0x8f020041f31054a0b4aef5d4d765d4c040488eb25559ababc7a43c7e3f0765b0",
          "transactionIndex": "0x2",
          "logIndex": "0x7",
          "removed": false
        },
        {
          "address": "0xbfc91d59fdaa134a4ed45f7b584caf96d7792eff",
          "topics": [
            "0x00058a56ea94653cdf4f152d227ace22d4c00ad99e2a43f58cb7d9e3feb295f2",
            "0x00000000000000000000000075faf114eafb1bdbe2f0316df893fd58ce46aa4d",
            "0x000000000000000000000000735680789b86b83cf410d87dcf5f02e70e1915f2"
          ],
          "data": "0x",
          "blockHash": "0x192cb931aeb07c8830bde9ae59ca80e28ce32af830ee159a6e9bf311aaa2a282",
          "blockNumber": "0xc85a1ee",
          "transactionHash": "0x8f020041f31054a0b4aef5d4d765d4c040488eb25559ababc7a43c7e3f0765b0",
          "transactionIndex": "0x2",
          "logIndex": "0x8",
          "removed": false
        },
        {
          "address": "0xbfc91d59fdaa134a4ed45f7b584caf96d7792eff",
          "topics": [
            "0x2b627736bca15cd5381dcf80b0bf11fd197d01a037c52b927a881a10fb73ba61",
            "0x00000000000000000000000075faf114eafb1bdbe2f0316df893fd58ce46aa4d",
            "0x000000000000000000000000735680789b86b83cf410d87dcf5f02e70e1915f2",
            "0x0000000000000000000000000000000000000000000000000000000000000000"
          ],
          "data": "0x000000000000000000000000735680789b86b83cf410d87dcf5f02e70e1915f200000000000000000000000000000000000000000000000000000000000f4240",
          "blockHash": "0x192cb931aeb07c8830bde9ae59ca80e28ce32af830ee159a6e9bf311aaa2a282",
          "blockNumber": "0xc85a1ee",
          "transactionHash": "0x8f020041f31054a0b4aef5d4d765d4c040488eb25559ababc7a43c7e3f0765b0",
          "transactionIndex": "0x2",
          "logIndex": "0x9",
          "removed": false
        },
        {
          "address": "0x735680789b86b83cf410d87dcf5f02e70e1915f2",
          "topics": [
            "0xba3ffa58e6beddd202dec6f1b1bb88dbb12d8823d523283b2ebbe9b627c9eb02"
          ],
          "data": "0x00000000000000000000000000000000000000000000000000000000000f424000000000000000000000000000000000000000000000000000000000000f4240",
          "blockHash": "0x192cb931aeb07c8830bde9ae59ca80e28ce32af830ee159a6e9bf311aaa2a282",
          "blockNumber": "0xc85a1ee",
          "transactionHash": "0x8f020041f31054a0b4aef5d4d765d4c040488eb25559ababc7a43c7e3f0765b0",
          "transactionIndex": "0x2",
          "logIndex": "0xa",
          "removed": false
        }
      ],
      "logsBloom": "0x000000000000080000800000000000000000000000000000000000000000000000080010000000000000020000040000000180000000000100000000000000008000004401000002000000080100000020000000000000000000000400000000000200000200000000000000000008000200000000040020000000100001000000000000800000000000000000000000000c0000000000000000000000000000000000008000000000800000000100000000000000000000000000000000010002000002000000000000002040000000008000000008080000000400000020000000000000000000000000000000000040000000000000001100400000000004",
      "type": "0x2",
      "transactionHash": "0x8f020041f31054a0b4aef5d4d765d4c040488eb25559ababc7a43c7e3f0765b0",
      "transactionIndex": "0x2",
      "blockHash": "0x192cb931aeb07c8830bde9ae59ca80e28ce32af830ee159a6e9bf311aaa2a282",
      "blockNumber": "0xc85a1ee",
      "gasUsed": "0x4d6db",
      "effectiveGasPrice": "0x5f5e100",
      "from": "0x23bf95de9f90338f973056351c8cd2cb78cbe52f",
      "to": "0x735680789b86b83cf410d87dcf5f02e70e1915f2",
      "contractAddress": null,
      "gasUsedForL1": "0x0",
      "l1BlockNumber": "0x9153c0",
      "timeboosted": false
    }
  ],
  "libraries": [
    "src/config/Configuration.ArbitrumSepolia.sol:ConfigurationArbitrumSepolia:0xeA877Bb50e4550FAAB3dE0de21110FF2eaDbd607",
    "src/config/Configuration.Base.sol:ConfigurationBaseMainnet:0x42dBf5358d04c4fC65b8A2501732e1b799Cf8C7F",
    "src/config/Configuration.BaseSepolia.sol:ConfigurationBaseSepolia:0x8CD9F0A3Fb33793daeA0828985e8A39b014e4c25",
    "src/config/Configuration.Ethereum.sol:ConfigurationEthereumMainnet:0x7C59aB12ae1cE53A28aeE34d615Eb6f476774fa7",
    "src/config/Configuration.EthereumSepolia.sol:ConfigurationEthereumSepolia:0x43A0e44F7EbbC8DB17807C9583859dc5A06f6E3b",
    "src/config/Configuration.Local.sol:ConfigurationLocal:0xf471EeAbD90669d272Ff633CAAf2d9d6ab6FFC03",
    "src/config/Configuration.OptimismSepolia.sol:ConfigurationOptimismSepolia:0x1447f089Fd0673aD2B03920122Bc9788Be8746cd",
    "src/config/Configuration.sol:Configuration:0xE31E4AE4606486363084bf49f238d681784a7620"
  ],
  "pending": [],
  "returns": {},
  "timestamp": 1761843324189,
  "chain": 421614,
  "commit": "65b8a61"
}