{
  "transactions": [
    {
      "hash": "0xa04d619d434231f438e7927689d88ef743302b753e15c5c7bdba229450816174",
      "transactionType": "CALL",
      "contractName": null,
      "contractAddress": "0x75faf114eafb1bdbe2f0316df893fd58ce46aa4d",
      "function": "approve(address,uint256)",
      "arguments": [
        "0x9145227A3179f218b9c38f1943d1d5538B09ee70",
        "115792089237316195423570985008687907853269984665640564039457584007913129639935"
      ],
      "transaction": {
        "from": "0x23bf95de9f90338f973056351c8cd2cb78cbe52f",
        "to": "0x75faf114eafb1bdbe2f0316df893fd58ce46aa4d",
        "gas": "0x11f5d",
        "value": "0x0",
        "input": "0x095ea7b30000000000000000000000009145227a3179f218b9c38f1943d1d5538b09ee70ffffffffffffffffffffffffffffffffffffffffffffffffffffffffffffffff",
        "nonce": "0x115",
        "chainId": "0x66eee"
      },
      "additionalContracts": [],
      "isFixedGasLimit": false
    },
    {
      "hash": "0x4091f6a658ab68411329a752e46b6f049558e7c3225a044de0077ec8f77356e5",
      "transactionType": "CALL",
      "contractName": null,
      "contractAddress": "0x9145227a3179f218b9c38f1943d1d5538b09ee70",
      "function": "deposit(uint256,address)",
      "arguments": [
        "1000000",
        "0x23BF95De9F90338F973056351C8Cd2CB78cbe52f"
      ],
      "transaction": {
        "from": "0x23bf95de9f90338f973056351c8cd2cb78cbe52f",
        "to": "0x9145227a3179f218b9c38f1943d1d5538b09ee70",
        "gas": "0x713d3",
        "value": "0x0",
        "input": "0x6e553f6500000000000000000000000000000000000000000000000000000000000f424000000000000000000000000023bf95de9f90338f973056351c8cd2cb78cbe52f",
        "nonce": "0x116",
        "chainId": "0x66eee"
      },
      "additionalContracts": [],
      "isFixedGasLimit": false
    }
  ],
  "receipts": [
    {
      "status": "0x1",
      "cumulativeGasUsed": "0xd9e9",
      "logs": [
        {
          "address": "0x75faf114eafb1bdbe2f0316df893fd58ce46aa4d",
          "topics": [
            "0x8c5be1e5ebec7d5bd14f71427d1e84f3dd0314c0f7b2291e5b200ac8c7c3b925",
            "0x00000000000000000000000023bf95de9f90338f973056351c8cd2cb78cbe52f",
            "0x0000000000000000000000009145227a3179f218b9c38f1943d1d5538b09ee70"
          ],
          "data": "0xffffffffffffffffffffffffffffffffffffffffffffffffffffffffffffffff",
          "blockHash": "0xab95e0a7e228f72c7bd76865dfc47a991b176b70d72da1daffd1d5e9eae95240",
          "blockNumber": "0xc5b9127",
          "transactionHash": "0xa04d619d434231f438e7927689d88ef743302b753e15c5c7bdba229450816174",
          "transactionIndex": "0x1",
          "logIndex": "0x0",
          "removed": false
        }
      ],
      "logsBloom": "0x00000000000000000000000000000000000000000000000000000001000000000000000000000000000000000000000000000000000000000000000000200000800000000000000000000000000000000000000000000000000000000000000000040000000000000000000000000000000000000000000000000000000000000000000000000000000000000000000000000000000000000000000000000000020000008000000000000000000100000000000000000000000000000000000000000000000000000000000080000000008000000000000000000000000000000010000000000000000000000000000000000000000000000100000000000004",
      "type": "0x2",
      "transactionHash": "0xa04d619d434231f438e7927689d88ef743302b753e15c5c7bdba229450816174",
      "transactionIndex": "0x1",
      "blockHash": "0xab95e0a7e228f72c7bd76865dfc47a991b176b70d72da1daffd1d5e9eae95240",
      "blockNumber": "0xc5b9127",
      "gasUsed": "0xd9e9",
      "effectiveGasPrice": "0x5f5e100",
      "from": "0x23bf95de9f90338f973056351c8cd2cb78cbe52f",
      "to": "0x75faf114eafb1bdbe2f0316df893fd58ce46aa4d",
      "contractAddress": null,
      "gasUsedForL1": "0x0",
      "l1BlockNumber": "0x9072e2",
      "timeboosted": false
    },
    {
      "status": "0x1",
      "cumulativeGasUsed": "0xd4272",
      "logs": [
        {
          "address": "0x75faf114eafb1bdbe2f0316df893fd58ce46aa4d",
          "topics": [
            "0xddf252ad1be2c89b69c2b068fc378daa952ba7f163c4a11628f55a4df523b3ef",
            "0x00000000000000000000000023bf95de9f90338f973056351c8cd2cb78cbe52f",
            "0x0000000000000000000000009145227a3179f218b9c38f1943d1d5538b09ee70"
          ],
          "data": "0x00000000000000000000000000000000000000000000000000000000000f4240",
          "blockHash": "0x563dce7a16b984407aa89af3acbbac7863eeaa44495457fc0dad2841dff550bf",
          "blockNumber": "0xc5b912a",
          "transactionHash": "0x4091f6a658ab68411329a752e46b6f049558e7c3225a044de0077ec8f77356e5",
          "transactionIndex": "0x3",
          "logIndex": "0xb",
          "removed": false
        },
        {
          "address": "0x9145227a3179f218b9c38f1943d1d5538b09ee70",
          "topics": [
            "0xddf252ad1be2c89b69c2b068fc378daa952ba7f163c4a11628f55a4df523b3ef",
            "0x0000000000000000000000000000000000000000000000000000000000000000",
            "0x00000000000000000000000023bf95de9f90338f973056351c8cd2cb78cbe52f"
          ],
          "data": "0x00000000000000000000000000000000000000000000000000000000000f4240",
          "blockHash": "0x563dce7a16b984407aa89af3acbbac7863eeaa44495457fc0dad2841dff550bf",
          "blockNumber": "0xc5b912a",
          "transactionHash": "0x4091f6a658ab68411329a752e46b6f049558e7c3225a044de0077ec8f77356e5",
          "transactionIndex": "0x3",
          "logIndex": "0xc",
          "removed": false
        },
        {
          "address": "0x9145227a3179f218b9c38f1943d1d5538b09ee70",
          "topics": [
            "0xdcbc1c05240f31ff3ad067ef1ee35ce4997762752e3a095284754544f4c709d7",
            "0x00000000000000000000000023bf95de9f90338f973056351c8cd2cb78cbe52f",
            "0x00000000000000000000000023bf95de9f90338f973056351c8cd2cb78cbe52f"
          ],
          "data": "0x00000000000000000000000000000000000000000000000000000000000f424000000000000000000000000000000000000000000000000000000000000f4240",
          "blockHash": "0x563dce7a16b984407aa89af3acbbac7863eeaa44495457fc0dad2841dff550bf",
          "blockNumber": "0xc5b912a",
          "transactionHash": "0x4091f6a658ab68411329a752e46b6f049558e7c3225a044de0077ec8f77356e5",
          "transactionIndex": "0x3",
          "logIndex": "0xd",
          "removed": false
        },
        {
          "address": "0xbfc91d59fdaa134a4ed45f7b584caf96d7792eff",
          "topics": [
            "0x804c9b842b2748a22bb64b345453a3de7ca54a6ca45ce00d415894979e22897a",
            "0x00000000000000000000000075faf114eafb1bdbe2f0316df893fd58ce46aa4d"
          ],
          "data": "0x0000000000000000000000000000000000000000002379e11e9f71768a20b94f00000000000000000000000000000000000000000068869741f74ab72848f44b0000000000000000000000000000000000000000002e9f83a76b41bd2248f44b000000000000000000000000000000000000000003783fc92cac9cb26f2e123d0000000000000000000000000000000000000000038fec78ea4e2cc3c12e7fdb",
          "blockHash": "0x563dce7a16b984407aa89af3acbbac7863eeaa44495457fc0dad2841dff550bf",
          "blockNumber": "0xc5b912a",
          "transactionHash": "0x4091f6a658ab68411329a752e46b6f049558e7c3225a044de0077ec8f77356e5",
          "transactionIndex": "0x3",
          "logIndex": "0xe",
          "removed": false
        },
        {
          "address": "0x75faf114eafb1bdbe2f0316df893fd58ce46aa4d",
          "topics": [
            "0xddf252ad1be2c89b69c2b068fc378daa952ba7f163c4a11628f55a4df523b3ef",
            "0x0000000000000000000000009145227a3179f218b9c38f1943d1d5538b09ee70",
            "0x000000000000000000000000460b97bd498e1157530aeb3086301d5225b91216"
          ],
          "data": "0x00000000000000000000000000000000000000000000000000000000000f4240",
          "blockHash": "0x563dce7a16b984407aa89af3acbbac7863eeaa44495457fc0dad2841dff550bf",
          "blockNumber": "0xc5b912a",
          "transactionHash": "0x4091f6a658ab68411329a752e46b6f049558e7c3225a044de0077ec8f77356e5",
          "transactionIndex": "0x3",
          "logIndex": "0xf",
          "removed": false
        },
        {
          "address": "0x460b97bd498e1157530aeb3086301d5225b91216",
          "topics": [
            "0xddf252ad1be2c89b69c2b068fc378daa952ba7f163c4a11628f55a4df523b3ef",
            "0x0000000000000000000000000000000000000000000000000000000000000000",
            "0x0000000000000000000000009145227a3179f218b9c38f1943d1d5538b09ee70"
          ],
          "data": "0x00000000000000000000000000000000000000000000000000000000000f4240",
          "blockHash": "0x563dce7a16b984407aa89af3acbbac7863eeaa44495457fc0dad2841dff550bf",
          "blockNumber": "0xc5b912a",
          "transactionHash": "0x4091f6a658ab68411329a752e46b6f049558e7c3225a044de0077ec8f77356e5",
          "transactionIndex": "0x3",
          "logIndex": "0x10",
          "removed": false
        },
        {
          "address": "0x460b97bd498e1157530aeb3086301d5225b91216",
          "topics": [
            "0x458f5fa412d0f69b08dd84872b0215675cc67bc1d5b6fd93300a1c3878b86196",
            "0x0000000000000000000000009145227a3179f218b9c38f1943d1d5538b09ee70",
            "0x0000000000000000000000009145227a3179f218b9c38f1943d1d5538b09ee70"
          ],
          "data": "0x00000000000000000000000000000000000000000000000000000000000f42400000000000000000000000000000000000000000000000000000000000000000000000000000000000000000000000000000000003783fc92cac9cb26f2e123d",
          "blockHash": "0x563dce7a16b984407aa89af3acbbac7863eeaa44495457fc0dad2841dff550bf",
          "blockNumber": "0xc5b912a",
          "transactionHash": "0x4091f6a658ab68411329a752e46b6f049558e7c3225a044de0077ec8f77356e5",
          "transactionIndex": "0x3",
          "logIndex": "0x11",
          "removed": false
        },
        {
          "address": "0xbfc91d59fdaa134a4ed45f7b584caf96d7792eff",
          "topics": [
            "0x00058a56ea94653cdf4f152d227ace22d4c00ad99e2a43f58cb7d9e3feb295f2",
            "0x00000000000000000000000075faf114eafb1bdbe2f0316df893fd58ce46aa4d",
            "0x0000000000000000000000009145227a3179f218b9c38f1943d1d5538b09ee70"
          ],
          "data": "0x",
          "blockHash": "0x563dce7a16b984407aa89af3acbbac7863eeaa44495457fc0dad2841dff550bf",
          "blockNumber": "0xc5b912a",
          "transactionHash": "0x4091f6a658ab68411329a752e46b6f049558e7c3225a044de0077ec8f77356e5",
          "transactionIndex": "0x3",
          "logIndex": "0x12",
          "removed": false
        },
        {
          "address": "0xbfc91d59fdaa134a4ed45f7b584caf96d7792eff",
          "topics": [
            "0x2b627736bca15cd5381dcf80b0bf11fd197d01a037c52b927a881a10fb73ba61",
            "0x00000000000000000000000075faf114eafb1bdbe2f0316df893fd58ce46aa4d",
            "0x0000000000000000000000009145227a3179f218b9c38f1943d1d5538b09ee70",
            "0x0000000000000000000000000000000000000000000000000000000000000000"
          ],
          "data": "0x0000000000000000000000009145227a3179f218b9c38f1943d1d5538b09ee7000000000000000000000000000000000000000000000000000000000000f4240",
          "blockHash": "0x563dce7a16b984407aa89af3acbbac7863eeaa44495457fc0dad2841dff550bf",
          "blockNumber": "0xc5b912a",
          "transactionHash": "0x4091f6a658ab68411329a752e46b6f049558e7c3225a044de0077ec8f77356e5",
          "transactionIndex": "0x3",
          "logIndex": "0x13",
          "removed": false
        },
        {
          "address": "0x9145227a3179f218b9c38f1943d1d5538b09ee70",
          "topics": [
            "0xba3ffa58e6beddd202dec6f1b1bb88dbb12d8823d523283b2ebbe9b627c9eb02"
          ],
          "data": "0x00000000000000000000000000000000000000000000000000000000000f424000000000000000000000000000000000000000000000000000000000000f4240",
          "blockHash": "0x563dce7a16b984407aa89af3acbbac7863eeaa44495457fc0dad2841dff550bf",
          "blockNumber": "0xc5b912a",
          "transactionHash": "0x4091f6a658ab68411329a752e46b6f049558e7c3225a044de0077ec8f77356e5",
          "transactionIndex": "0x3",
          "logIndex": "0x14",
          "removed": false
        }
      ],
      "logsBloom": "0x000000000000080000800000000000000000000000000000000000010000000000000000000000000000000000040000000180000000000100000000000000008000004401000002000000080100000000000000000000000000000400000000000400000200000002000000000008000200000000040020000000100001000000000000820000000000000000000000000c00000000000000000000000000000000000080000000000000000001000000000000000000000000000000000100020000020000000000000020c00000000080000000080800000004000000200000000000000000000000000000000000c0000000000000001100400000000004",
      "type": "0x2",
      "transactionHash": "0x4091f6a658ab68411329a752e46b6f049558e7c3225a044de0077ec8f77356e5",
      "transactionIndex": "0x3",
      "blockHash": "0x563dce7a16b984407aa89af3acbbac7863eeaa44495457fc0dad2841dff550bf",
      "blockNumber": "0xc5b912a",
      "gasUsed": "0x4d6db",
      "effectiveGasPrice": "0x5f5e100",
      "from": "0x23bf95de9f90338f973056351c8cd2cb78cbe52f",
      "to": "0x9145227a3179f218b9c38f1943d1d5538b09ee70",
      "contractAddress": null,
      "gasUsedForL1": "0x0",
      "l1BlockNumber": "0x9072e2",
      "timeboosted": false
    }
  ],
  "libraries": [
    "src/config/Configuration.ArbitrumSepolia.sol:ConfigurationArbitrumSepolia:0xeA877Bb50e4550FAAB3dE0de21110FF2eaDbd607",
    "src/config/Configuration.Base.sol:ConfigurationBaseMainnet:0x42dBf5358d04c4fC65b8A2501732e1b799Cf8C7F",
    "src/config/Configuration.BaseSepolia.sol:ConfigurationBaseSepolia:0x8CD9F0A3Fb33793daeA0828985e8A39b014e4c25",
    "src/config/Configuration.Ethereum.sol:ConfigurationEthereumMainnet:0x7C59aB12ae1cE53A28aeE34d615Eb6f476774fa7",
    "src/config/Configuration.EthereumSepolia.sol:ConfigurationEthereumSepolia:0x43A0e44F7EbbC8DB17807C9583859dc5A06f6E3b",
    "src/config/Configuration.Local.sol:ConfigurationLocal:0xf471EeAbD90669d272Ff633CAAf2d9d6ab6FFC03",
    "src/config/Configuration.OptimismSepolia.sol:ConfigurationOptimismSepolia:0x1447f089Fd0673aD2B03920122Bc9788Be8746cd",
    "src/config/Configuration.sol:Configuration:0xE31E4AE4606486363084bf49f238d681784a7620"
  ],
  "pending": [],
  "returns": {},
  "timestamp": 1761145872372,
  "chain": 421614,
  "commit": "e1d7578"
}