{
  "transactions": [
    {
      "hash": "0xfd1acabd573a58713283d221051eb0b96bf6bdff0e3dfa81b64837fdc00768a6",
      "transactionType": "CALL",
      "contractName": null,
      "contractAddress": "0x75faf114eafb1bdbe2f0316df893fd58ce46aa4d",
      "function": "approve(address,uint256)",
      "arguments": [
        "0xf15dBda100D66e561Ba793544AC8A6C6ede0Cebc",
        "115792089237316195423570985008687907853269984665640564039457584007913129639935"
      ],
      "transaction": {
        "from": "0x23bf95de9f90338f973056351c8cd2cb78cbe52f",
        "to": "0x75faf114eafb1bdbe2f0316df893fd58ce46aa4d",
        "gas": "0x11f4e",
        "value": "0x0",
        "input": "0x095ea7b3000000000000000000000000f15dbda100d66e561ba793544ac8a6c6ede0cebcffffffffffffffffffffffffffffffffffffffffffffffffffffffffffffffff",
        "nonce": "0xa6",
        "chainId": "0x66eee"
      },
      "additionalContracts": [],
      "isFixedGasLimit": false
    },
    {
      "hash": "0xb4d96668b418e0e8df844a291ff43a08daa809b62c6c162aa2a071062589be48",
      "transactionType": "CALL",
      "contractName": null,
      "contractAddress": "0xf15dbda100d66e561ba793544ac8a6c6ede0cebc",
      "function": "deposit(uint256,address)",
      "arguments": [
        "1000000",
        "0x23BF95De9F90338F973056351C8Cd2CB78cbe52f"
      ],
      "transaction": {
        "from": "0x23bf95de9f90338f973056351c8cd2cb78cbe52f",
        "to": "0xf15dbda100d66e561ba793544ac8a6c6ede0cebc",
        "gas": "0x713d3",
        "value": "0x0",
        "input": "0x6e553f6500000000000000000000000000000000000000000000000000000000000f424000000000000000000000000023bf95de9f90338f973056351c8cd2cb78cbe52f",
        "nonce": "0xa7",
        "chainId": "0x66eee"
      },
      "additionalContracts": [],
      "isFixedGasLimit": false
    }
  ],
  "receipts": [
    {
      "status": "0x1",
      "cumulativeGasUsed": "0x40bea",
      "logs": [
        {
          "address": "0x75faf114eafb1bdbe2f0316df893fd58ce46aa4d",
          "topics": [
            "0x8c5be1e5ebec7d5bd14f71427d1e84f3dd0314c0f7b2291e5b200ac8c7c3b925",
            "0x00000000000000000000000023bf95de9f90338f973056351c8cd2cb78cbe52f",
            "0x000000000000000000000000f15dbda100d66e561ba793544ac8a6c6ede0cebc"
          ],
          "data": "0xffffffffffffffffffffffffffffffffffffffffffffffffffffffffffffffff",
          "blockHash": "0xcc9dbaecd0b2f53082a4e197e1af0a6521f671041751244e1ef40d2dc0abb14a",
          "blockNumber": "0xc174bfa",
          "transactionHash": "0xfd1acabd573a58713283d221051eb0b96bf6bdff0e3dfa81b64837fdc00768a6",
          "transactionIndex": "0x4",
          "logIndex": "0x4",
          "removed": false
        }
      ],
      "logsBloom": "0x00000000000000000000000000000000000000000000000000000000000000000000000000000000000000000000000000000000000000000000000000200000800000000000000000000000000000100000000000000000000000000000000200000000000000000000400000000000000000000000000000000000000000000000000000000000000000000000000000000000000000000000000000000000020000008000000000000000000100000000000000000000000000000000000000000000000000000000000000000000008000000000000000000000000000000010000000000000000000000000000000000000000000000100000000000004",
      "type": "0x2",
      "transactionHash": "0xfd1acabd573a58713283d221051eb0b96bf6bdff0e3dfa81b64837fdc00768a6",
      "transactionIndex": "0x4",
      "blockHash": "0xcc9dbaecd0b2f53082a4e197e1af0a6521f671041751244e1ef40d2dc0abb14a",
      "blockNumber": "0xc174bfa",
      "gasUsed": "0xd9dd",
      "effectiveGasPrice": "0x5f5e100",
      "from": "0x23bf95de9f90338f973056351c8cd2cb78cbe52f",
      "to": "0x75faf114eafb1bdbe2f0316df893fd58ce46aa4d",
      "contractAddress": null,
      "gasUsedForL1": "0x0",
      "l1BlockNumber": "0x8f133d",
      "timeboosted": false
    },
    {
      "status": "0x1",
      "cumulativeGasUsed": "0x4d6db",
      "logs": [
        {
          "address": "0x75faf114eafb1bdbe2f0316df893fd58ce46aa4d",
          "topics": [
            "0xddf252ad1be2c89b69c2b068fc378daa952ba7f163c4a11628f55a4df523b3ef",
            "0x00000000000000000000000023bf95de9f90338f973056351c8cd2cb78cbe52f",
            "0x000000000000000000000000f15dbda100d66e561ba793544ac8a6c6ede0cebc"
          ],
          "data": "0x00000000000000000000000000000000000000000000000000000000000f4240",
          "blockHash": "0x446ac66466d00ffafea8485a02e6a3e78cd5028773a19cc9528d1fa1991e8db6",
          "blockNumber": "0xc174bfe",
          "transactionHash": "0xb4d96668b418e0e8df844a291ff43a08daa809b62c6c162aa2a071062589be48",
          "transactionIndex": "0x1",
          "logIndex": "0x0",
          "removed": false
        },
        {
          "address": "0xf15dbda100d66e561ba793544ac8a6c6ede0cebc",
          "topics": [
            "0xddf252ad1be2c89b69c2b068fc378daa952ba7f163c4a11628f55a4df523b3ef",
            "0x0000000000000000000000000000000000000000000000000000000000000000",
            "0x00000000000000000000000023bf95de9f90338f973056351c8cd2cb78cbe52f"
          ],
          "data": "0x00000000000000000000000000000000000000000000000000000000000f4240",
          "blockHash": "0x446ac66466d00ffafea8485a02e6a3e78cd5028773a19cc9528d1fa1991e8db6",
          "blockNumber": "0xc174bfe",
          "transactionHash": "0xb4d96668b418e0e8df844a291ff43a08daa809b62c6c162aa2a071062589be48",
          "transactionIndex": "0x1",
          "logIndex": "0x1",
          "removed": false
        },
        {
          "address": "0xf15dbda100d66e561ba793544ac8a6c6ede0cebc",
          "topics": [
            "0xdcbc1c05240f31ff3ad067ef1ee35ce4997762752e3a095284754544f4c709d7",
            "0x00000000000000000000000023bf95de9f90338f973056351c8cd2cb78cbe52f",
            "0x00000000000000000000000023bf95de9f90338f973056351c8cd2cb78cbe52f"
          ],
          "data": "0x00000000000000000000000000000000000000000000000000000000000f424000000000000000000000000000000000000000000000000000000000000f4240",
          "blockHash": "0x446ac66466d00ffafea8485a02e6a3e78cd5028773a19cc9528d1fa1991e8db6",
          "blockNumber": "0xc174bfe",
          "transactionHash": "0xb4d96668b418e0e8df844a291ff43a08daa809b62c6c162aa2a071062589be48",
          "transactionIndex": "0x1",
          "logIndex": "0x2",
          "removed": false
        },
        {
          "address": "0xbfc91d59fdaa134a4ed45f7b584caf96d7792eff",
          "topics": [
            "0x804c9b842b2748a22bb64b345453a3de7ca54a6ca45ce00d415894979e22897a",
            "0x00000000000000000000000075faf114eafb1bdbe2f0316df893fd58ce46aa4d"
          ],
          "data": "0x000000000000000000000000000000000000000000239e1cf3709c95d86f1ee4000000000000000000000000000000000000000000689e6064f930e27ad92b580000000000000000000000000000000000000000002eb74cca6d27e874d92b5800000000000000000000000000000000000000000376e43badc1117809fb4d120000000000000000000000000000000000000000038e1846037105dcf14feccf",
          "blockHash": "0x446ac66466d00ffafea8485a02e6a3e78cd5028773a19cc9528d1fa1991e8db6",
          "blockNumber": "0xc174bfe",
          "transactionHash": "0xb4d96668b418e0e8df844a291ff43a08daa809b62c6c162aa2a071062589be48",
          "transactionIndex": "0x1",
          "logIndex": "0x3",
          "removed": false
        },
        {
          "address": "0x75faf114eafb1bdbe2f0316df893fd58ce46aa4d",
          "topics": [
            "0xddf252ad1be2c89b69c2b068fc378daa952ba7f163c4a11628f55a4df523b3ef",
            "0x000000000000000000000000f15dbda100d66e561ba793544ac8a6c6ede0cebc",
            "0x000000000000000000000000460b97bd498e1157530aeb3086301d5225b91216"
          ],
          "data": "0x00000000000000000000000000000000000000000000000000000000000f4240",
          "blockHash": "0x446ac66466d00ffafea8485a02e6a3e78cd5028773a19cc9528d1fa1991e8db6",
          "blockNumber": "0xc174bfe",
          "transactionHash": "0xb4d96668b418e0e8df844a291ff43a08daa809b62c6c162aa2a071062589be48",
          "transactionIndex": "0x1",
          "logIndex": "0x4",
          "removed": false
        },
        {
          "address": "0x460b97bd498e1157530aeb3086301d5225b91216",
          "topics": [
            "0xddf252ad1be2c89b69c2b068fc378daa952ba7f163c4a11628f55a4df523b3ef",
            "0x0000000000000000000000000000000000000000000000000000000000000000",
            "0x000000000000000000000000f15dbda100d66e561ba793544ac8a6c6ede0cebc"
          ],
          "data": "0x00000000000000000000000000000000000000000000000000000000000f4240",
          "blockHash": "0x446ac66466d00ffafea8485a02e6a3e78cd5028773a19cc9528d1fa1991e8db6",
          "blockNumber": "0xc174bfe",
          "transactionHash": "0xb4d96668b418e0e8df844a291ff43a08daa809b62c6c162aa2a071062589be48",
          "transactionIndex": "0x1",
          "logIndex": "0x5",
          "removed": false
        },
        {
          "address": "0x460b97bd498e1157530aeb3086301d5225b91216",
          "topics": [
            "0x458f5fa412d0f69b08dd84872b0215675cc67bc1d5b6fd93300a1c3878b86196",
            "0x000000000000000000000000f15dbda100d66e561ba793544ac8a6c6ede0cebc",
            "0x000000000000000000000000f15dbda100d66e561ba793544ac8a6c6ede0cebc"
          ],
          "data": "0x00000000000000000000000000000000000000000000000000000000000f4240000000000000000000000000000000000000000000000000000000000000000000000000000000000000000000000000000000000376e43badc1117809fb4d12",
          "blockHash": "0x446ac66466d00ffafea8485a02e6a3e78cd5028773a19cc9528d1fa1991e8db6",
          "blockNumber": "0xc174bfe",
          "transactionHash": "0xb4d96668b418e0e8df844a291ff43a08daa809b62c6c162aa2a071062589be48",
          "transactionIndex": "0x1",
          "logIndex": "0x6",
          "removed": false
        },
        {
          "address": "0xbfc91d59fdaa134a4ed45f7b584caf96d7792eff",
          "topics": [
            "0x00058a56ea94653cdf4f152d227ace22d4c00ad99e2a43f58cb7d9e3feb295f2",
            "0x00000000000000000000000075faf114eafb1bdbe2f0316df893fd58ce46aa4d",
            "0x000000000000000000000000f15dbda100d66e561ba793544ac8a6c6ede0cebc"
          ],
          "data": "0x",
          "blockHash": "0x446ac66466d00ffafea8485a02e6a3e78cd5028773a19cc9528d1fa1991e8db6",
          "blockNumber": "0xc174bfe",
          "transactionHash": "0xb4d96668b418e0e8df844a291ff43a08daa809b62c6c162aa2a071062589be48",
          "transactionIndex": "0x1",
          "logIndex": "0x7",
          "removed": false
        },
        {
          "address": "0xbfc91d59fdaa134a4ed45f7b584caf96d7792eff",
          "topics": [
            "0x2b627736bca15cd5381dcf80b0bf11fd197d01a037c52b927a881a10fb73ba61",
            "0x00000000000000000000000075faf114eafb1bdbe2f0316df893fd58ce46aa4d",
            "0x000000000000000000000000f15dbda100d66e561ba793544ac8a6c6ede0cebc",
            "0x0000000000000000000000000000000000000000000000000000000000000000"
          ],
          "data": "0x000000000000000000000000f15dbda100d66e561ba793544ac8a6c6ede0cebc00000000000000000000000000000000000000000000000000000000000f4240",
          "blockHash": "0x446ac66466d00ffafea8485a02e6a3e78cd5028773a19cc9528d1fa1991e8db6",
          "blockNumber": "0xc174bfe",
          "transactionHash": "0xb4d96668b418e0e8df844a291ff43a08daa809b62c6c162aa2a071062589be48",
          "transactionIndex": "0x1",
          "logIndex": "0x8",
          "removed": false
        },
        {
          "address": "0xf15dbda100d66e561ba793544ac8a6c6ede0cebc",
          "topics": [
            "0xba3ffa58e6beddd202dec6f1b1bb88dbb12d8823d523283b2ebbe9b627c9eb02"
          ],
          "data": "0x00000000000000000000000000000000000000000000000000000000000f424000000000000000000000000000000000000000000000000000000000000f4240",
          "blockHash": "0x446ac66466d00ffafea8485a02e6a3e78cd5028773a19cc9528d1fa1991e8db6",
          "blockNumber": "0xc174bfe",
          "transactionHash": "0xb4d96668b418e0e8df844a291ff43a08daa809b62c6c162aa2a071062589be48",
          "transactionIndex": "0x1",
          "logIndex": "0x9",
          "removed": false
        }
      ],
      "logsBloom": "0x001000000000080000800000000000000000000000000000000000000000000000000000000000000000000000040000000180000000000100000000000000008000004401000002000000080100001000000000000000000000000400000002000000000200000000004000000008000200000000040021000000100009000000000000800000000000000000000000000c0000000000000000000000000000000000008000000000000000000100000000000000000000000000000000010002000002000000000000002040000000008000000008080000000400000020000000000000000000000000000000000040000000000000001100400000000004",
      "type": "0x2",
      "transactionHash": "0xb4d96668b418e0e8df844a291ff43a08daa809b62c6c162aa2a071062589be48",
      "transactionIndex": "0x1",
      "blockHash": "0x446ac66466d00ffafea8485a02e6a3e78cd5028773a19cc9528d1fa1991e8db6",
      "blockNumber": "0xc174bfe",
      "gasUsed": "0x4d6db",
      "effectiveGasPrice": "0x5f5e100",
      "from": "0x23bf95de9f90338f973056351c8cd2cb78cbe52f",
      "to": "0xf15dbda100d66e561ba793544ac8a6c6ede0cebc",
      "contractAddress": null,
      "gasUsedForL1": "0x0",
      "l1BlockNumber": "0x8f133d",
      "timeboosted": false
    }
  ],
  "libraries": [
    "src/config/Configuration.ArbitrumSepolia.sol:ConfigurationArbitrumSepolia:0xbAEDEDa67771036907F1650AaDb06C645f7cE543",
    "src/config/Configuration.Base.sol:ConfigurationBaseMainnet:0xc724402C8C6bef7bFD30C5f5e26A12C9a8248D33",
    "src/config/Configuration.BaseSepolia.sol:ConfigurationBaseSepolia:0xF5FBD5182356F5EE73198a02eB13dAD9612DF39A",
    "src/config/Configuration.Ethereum.sol:ConfigurationEthereumMainnet:0x6C6BC06853C6aFa04fD58bb707605C7D2679465B",
    "src/config/Configuration.EthereumSepolia.sol:ConfigurationEthereumSepolia:0xA1759Fd7414815e88589a600F3708434ccc70d82",
    "src/config/Configuration.Local.sol:ConfigurationLocal:0xEb0e0C1e3CfF2eAAcb94B498F8E6324e7A7B0a2B",
    "src/config/Configuration.sol:Configuration:0x123fe1F1a93754C6aC2B1bdF930a47A39762FAFF"
  ],
  "pending": [],
  "returns": {},
  "timestamp": 1760024118487,
  "chain": 421614,
  "commit": "7d9423d"
}