{
  "transactions": [
    {
      "hash": "0x5d815dd0cd4e7138136a2d25755b5aa2fdd291a60a3dee36b56c492de94a992a",
      "transactionType": "CALL",
      "contractName": null,
      "contractAddress": "0x75faf114eafb1bdbe2f0316df893fd58ce46aa4d",
      "function": "approve(address,uint256)",
      "arguments": [
        "0x9D9D61bA084410Eb085b9D9445c501F2bcA5B0c6",
        "115792089237316195423570985008687907853269984665640564039457584007913129639935"
      ],
      "transaction": {
        "from": "0x23bf95de9f90338f973056351c8cd2cb78cbe52f",
        "to": "0x75faf114eafb1bdbe2f0316df893fd58ce46aa4d",
        "gas": "0x11f5d",
        "value": "0x0",
        "input": "0x095ea7b30000000000000000000000009d9d61ba084410eb085b9d9445c501f2bca5b0c6ffffffffffffffffffffffffffffffffffffffffffffffffffffffffffffffff",
        "nonce": "0xd6",
        "chainId": "0x66eee"
      },
      "additionalContracts": [],
      "isFixedGasLimit": false
    },
    {
      "hash": "0x02afec4f0bcb16bd6c4ac6d4b1960a446c4bdf4d19c7fb5f822a3616004523ae",
      "transactionType": "CALL",
      "contractName": null,
      "contractAddress": "0x9d9d61ba084410eb085b9d9445c501f2bca5b0c6",
      "function": "deposit(uint256,address)",
      "arguments": [
        "1000000",
        "0x23BF95De9F90338F973056351C8Cd2CB78cbe52f"
      ],
      "transaction": {
        "from": "0x23bf95de9f90338f973056351c8cd2cb78cbe52f",
        "to": "0x9d9d61ba084410eb085b9d9445c501f2bca5b0c6",
        "gas": "0x713d3",
        "value": "0x0",
        "input": "0x6e553f6500000000000000000000000000000000000000000000000000000000000f424000000000000000000000000023bf95de9f90338f973056351c8cd2cb78cbe52f",
        "nonce": "0xd7",
        "chainId": "0x66eee"
      },
      "additionalContracts": [],
      "isFixedGasLimit": false
    }
  ],
  "receipts": [
    {
      "status": "0x1",
      "cumulativeGasUsed": "0x62a94",
      "logs": [
        {
          "address": "0x75faf114eafb1bdbe2f0316df893fd58ce46aa4d",
          "topics": [
            "0x8c5be1e5ebec7d5bd14f71427d1e84f3dd0314c0f7b2291e5b200ac8c7c3b925",
            "0x00000000000000000000000023bf95de9f90338f973056351c8cd2cb78cbe52f",
            "0x0000000000000000000000009d9d61ba084410eb085b9d9445c501f2bca5b0c6"
          ],
          "data": "0xffffffffffffffffffffffffffffffffffffffffffffffffffffffffffffffff",
          "blockHash": "0xbd682d2ef2c656ecfeb9df9b1d3fca4cf91aab6237eba0380074c5b297f46851",
          "blockNumber": "0xc55dfd7",
          "transactionHash": "0x5d815dd0cd4e7138136a2d25755b5aa2fdd291a60a3dee36b56c492de94a992a",
          "transactionIndex": "0x6",
          "logIndex": "0x8",
          "removed": false
        }
      ],
      "logsBloom": "0x00000000000000001000000000000000000000040000000000000000000000000000000000000000000000000000000000000000000000000000000000200000800000000000000000000000008000000000000000000000000000000000000000000000000000000000000000000000000000000000000000000000000000000000000000000000000000000000000000000000000000000000000000000000020000008000000000000000000100000000000000000000000000000000000000000000000000000000000000000000008000000000000000000000000000000010000000000000000000000000000000000000000000000100000000000004",
      "type": "0x2",
      "transactionHash": "0x5d815dd0cd4e7138136a2d25755b5aa2fdd291a60a3dee36b56c492de94a992a",
      "transactionIndex": "0x6",
      "blockHash": "0xbd682d2ef2c656ecfeb9df9b1d3fca4cf91aab6237eba0380074c5b297f46851",
      "blockNumber": "0xc55dfd7",
      "gasUsed": "0xd9e9",
      "effectiveGasPrice": "0x5f5e100",
      "from": "0x23bf95de9f90338f973056351c8cd2cb78cbe52f",
      "to": "0x75faf114eafb1bdbe2f0316df893fd58ce46aa4d",
      "contractAddress": null,
      "gasUsedForL1": "0x0",
      "l1BlockNumber": "0x9055ac",
      "timeboosted": false
    },
    {
      "status": "0x1",
      "cumulativeGasUsed": "0x126aa7",
      "logs": [
        {
          "address": "0x75faf114eafb1bdbe2f0316df893fd58ce46aa4d",
          "topics": [
            "0xddf252ad1be2c89b69c2b068fc378daa952ba7f163c4a11628f55a4df523b3ef",
            "0x00000000000000000000000023bf95de9f90338f973056351c8cd2cb78cbe52f",
            "0x0000000000000000000000009d9d61ba084410eb085b9d9445c501f2bca5b0c6"
          ],
          "data": "0x00000000000000000000000000000000000000000000000000000000000f4240",
          "blockHash": "0x6e519f31233dbfe4c9bc69f76fd79c64cc25ad569ad979b666bee18711cc527e",
          "blockNumber": "0xc55dfd9",
          "transactionHash": "0x02afec4f0bcb16bd6c4ac6d4b1960a446c4bdf4d19c7fb5f822a3616004523ae",
          "transactionIndex": "0xb",
          "logIndex": "0x16",
          "removed": false
        },
        {
          "address": "0x9d9d61ba084410eb085b9d9445c501f2bca5b0c6",
          "topics": [
            "0xddf252ad1be2c89b69c2b068fc378daa952ba7f163c4a11628f55a4df523b3ef",
            "0x0000000000000000000000000000000000000000000000000000000000000000",
            "0x00000000000000000000000023bf95de9f90338f973056351c8cd2cb78cbe52f"
          ],
          "data": "0x00000000000000000000000000000000000000000000000000000000000f4240",
          "blockHash": "0x6e519f31233dbfe4c9bc69f76fd79c64cc25ad569ad979b666bee18711cc527e",
          "blockNumber": "0xc55dfd9",
          "transactionHash": "0x02afec4f0bcb16bd6c4ac6d4b1960a446c4bdf4d19c7fb5f822a3616004523ae",
          "transactionIndex": "0xb",
          "logIndex": "0x17",
          "removed": false
        },
        {
          "address": "0x9d9d61ba084410eb085b9d9445c501f2bca5b0c6",
          "topics": [
            "0xdcbc1c05240f31ff3ad067ef1ee35ce4997762752e3a095284754544f4c709d7",
            "0x00000000000000000000000023bf95de9f90338f973056351c8cd2cb78cbe52f",
            "0x00000000000000000000000023bf95de9f90338f973056351c8cd2cb78cbe52f"
          ],
          "data": "0x00000000000000000000000000000000000000000000000000000000000f424000000000000000000000000000000000000000000000000000000000000f4240",
          "blockHash": "0x6e519f31233dbfe4c9bc69f76fd79c64cc25ad569ad979b666bee18711cc527e",
          "blockNumber": "0xc55dfd9",
          "transactionHash": "0x02afec4f0bcb16bd6c4ac6d4b1960a446c4bdf4d19c7fb5f822a3616004523ae",
          "transactionIndex": "0xb",
          "logIndex": "0x18",
          "removed": false
        },
        {
          "address": "0xbfc91d59fdaa134a4ed45f7b584caf96d7792eff",
          "topics": [
            "0x804c9b842b2748a22bb64b345453a3de7ca54a6ca45ce00d415894979e22897a",
            "0x00000000000000000000000075faf114eafb1bdbe2f0316df893fd58ce46aa4d"
          ],
          "data": "0x0000000000000000000000000000000000000000002379e27e361b1b0a1ed8af00000000000000000000000000000000000000000068869828ff32c4f1c357d80000000000000000000000000000000000000000002e9f848e7329caebc357d80000000000000000000000000000000000000000037822b5e9ffed1c703195a90000000000000000000000000000000000000000038fc53e5bab575e89a39f48",
          "blockHash": "0x6e519f31233dbfe4c9bc69f76fd79c64cc25ad569ad979b666bee18711cc527e",
          "blockNumber": "0xc55dfd9",
          "transactionHash": "0x02afec4f0bcb16bd6c4ac6d4b1960a446c4bdf4d19c7fb5f822a3616004523ae",
          "transactionIndex": "0xb",
          "logIndex": "0x19",
          "removed": false
        },
        {
          "address": "0x75faf114eafb1bdbe2f0316df893fd58ce46aa4d",
          "topics": [
            "0xddf252ad1be2c89b69c2b068fc378daa952ba7f163c4a11628f55a4df523b3ef",
            "0x0000000000000000000000009d9d61ba084410eb085b9d9445c501f2bca5b0c6",
            "0x000000000000000000000000460b97bd498e1157530aeb3086301d5225b91216"
          ],
          "data": "0x00000000000000000000000000000000000000000000000000000000000f4240",
          "blockHash": "0x6e519f31233dbfe4c9bc69f76fd79c64cc25ad569ad979b666bee18711cc527e",
          "blockNumber": "0xc55dfd9",
          "transactionHash": "0x02afec4f0bcb16bd6c4ac6d4b1960a446c4bdf4d19c7fb5f822a3616004523ae",
          "transactionIndex": "0xb",
          "logIndex": "0x1a",
          "removed": false
        },
        {
          "address": "0x460b97bd498e1157530aeb3086301d5225b91216",
          "topics": [
            "0xddf252ad1be2c89b69c2b068fc378daa952ba7f163c4a11628f55a4df523b3ef",
            "0x0000000000000000000000000000000000000000000000000000000000000000",
            "0x0000000000000000000000009d9d61ba084410eb085b9d9445c501f2bca5b0c6"
          ],
          "data": "0x00000000000000000000000000000000000000000000000000000000000f4240",
          "blockHash": "0x6e519f31233dbfe4c9bc69f76fd79c64cc25ad569ad979b666bee18711cc527e",
          "blockNumber": "0xc55dfd9",
          "transactionHash": "0x02afec4f0bcb16bd6c4ac6d4b1960a446c4bdf4d19c7fb5f822a3616004523ae",
          "transactionIndex": "0xb",
          "logIndex": "0x1b",
          "removed": false
        },
        {
          "address": "0x460b97bd498e1157530aeb3086301d5225b91216",
          "topics": [
            "0x458f5fa412d0f69b08dd84872b0215675cc67bc1d5b6fd93300a1c3878b86196",
            "0x0000000000000000000000009d9d61ba084410eb085b9d9445c501f2bca5b0c6",
            "0x0000000000000000000000009d9d61ba084410eb085b9d9445c501f2bca5b0c6"
          ],
          "data": "0x00000000000000000000000000000000000000000000000000000000000f424000000000000000000000000000000000000000000000000000000000000000000000000000000000000000000000000000000000037822b5e9ffed1c703195a9",
          "blockHash": "0x6e519f31233dbfe4c9bc69f76fd79c64cc25ad569ad979b666bee18711cc527e",
          "blockNumber": "0xc55dfd9",
          "transactionHash": "0x02afec4f0bcb16bd6c4ac6d4b1960a446c4bdf4d19c7fb5f822a3616004523ae",
          "transactionIndex": "0xb",
          "logIndex": "0x1c",
          "removed": false
        },
        {
          "address": "0xbfc91d59fdaa134a4ed45f7b584caf96d7792eff",
          "topics": [
            "0x00058a56ea94653cdf4f152d227ace22d4c00ad99e2a43f58cb7d9e3feb295f2",
            "0x00000000000000000000000075faf114eafb1bdbe2f0316df893fd58ce46aa4d",
            "0x0000000000000000000000009d9d61ba084410eb085b9d9445c501f2bca5b0c6"
          ],
          "data": "0x",
          "blockHash": "0x6e519f31233dbfe4c9bc69f76fd79c64cc25ad569ad979b666bee18711cc527e",
          "blockNumber": "0xc55dfd9",
          "transactionHash": "0x02afec4f0bcb16bd6c4ac6d4b1960a446c4bdf4d19c7fb5f822a3616004523ae",
          "transactionIndex": "0xb",
          "logIndex": "0x1d",
          "removed": false
        },
        {
          "address": "0xbfc91d59fdaa134a4ed45f7b584caf96d7792eff",
          "topics": [
            "0x2b627736bca15cd5381dcf80b0bf11fd197d01a037c52b927a881a10fb73ba61",
            "0x00000000000000000000000075faf114eafb1bdbe2f0316df893fd58ce46aa4d",
            "0x0000000000000000000000009d9d61ba084410eb085b9d9445c501f2bca5b0c6",
            "0x0000000000000000000000000000000000000000000000000000000000000000"
          ],
          "data": "0x0000000000000000000000009d9d61ba084410eb085b9d9445c501f2bca5b0c600000000000000000000000000000000000000000000000000000000000f4240",
          "blockHash": "0x6e519f31233dbfe4c9bc69f76fd79c64cc25ad569ad979b666bee18711cc527e",
          "blockNumber": "0xc55dfd9",
          "transactionHash": "0x02afec4f0bcb16bd6c4ac6d4b1960a446c4bdf4d19c7fb5f822a3616004523ae",
          "transactionIndex": "0xb",
          "logIndex": "0x1e",
          "removed": false
        },
        {
          "address": "0x9d9d61ba084410eb085b9d9445c501f2bca5b0c6",
          "topics": [
            "0xba3ffa58e6beddd202dec6f1b1bb88dbb12d8823d523283b2ebbe9b627c9eb02"
          ],
          "data": "0x00000000000000000000000000000000000000000000000000000000000f424000000000000000000000000000000000000000000000000000000000000f423f",
          "blockHash": "0x6e519f31233dbfe4c9bc69f76fd79c64cc25ad569ad979b666bee18711cc527e",
          "blockNumber": "0xc55dfd9",
          "transactionHash": "0x02afec4f0bcb16bd6c4ac6d4b1960a446c4bdf4d19c7fb5f822a3616004523ae",
          "transactionIndex": "0xb",
          "logIndex": "0x1f",
          "removed": false
        }
      ],
      "logsBloom": "0x000000000000080010800000000000020000000400010000000000000000000000000000000000000000000000040000000180000000000100000000000000008000004401000002000000080180080000000000000000000000000400000000000000000200000000000000000008000200000000040020000000100001000000000000800000000000000000000000000c0000000000000000000000000000000000008000000000000000000100000000000000000000000000000000010002000002000000000000002040000000008000000008080000000400000020000000000000000000000000000000000040000000000000001100400000000004",
      "type": "0x2",
      "transactionHash": "0x02afec4f0bcb16bd6c4ac6d4b1960a446c4bdf4d19c7fb5f822a3616004523ae",
      "transactionIndex": "0xb",
      "blockHash": "0x6e519f31233dbfe4c9bc69f76fd79c64cc25ad569ad979b666bee18711cc527e",
      "blockNumber": "0xc55dfd9",
      "gasUsed": "0x4d6db",
      "effectiveGasPrice": "0x5f5e100",
      "from": "0x23bf95de9f90338f973056351c8cd2cb78cbe52f",
      "to": "0x9d9d61ba084410eb085b9d9445c501f2bca5b0c6",
      "contractAddress": null,
      "gasUsedForL1": "0x0",
      "l1BlockNumber": "0x9055ac",
      "timeboosted": false
    }
  ],
  "libraries": [
    "src/config/Configuration.ArbitrumSepolia.sol:ConfigurationArbitrumSepolia:0xbAEDEDa67771036907F1650AaDb06C645f7cE543",
    "src/config/Configuration.Base.sol:ConfigurationBaseMainnet:0xc724402C8C6bef7bFD30C5f5e26A12C9a8248D33",
    "src/config/Configuration.BaseSepolia.sol:ConfigurationBaseSepolia:0xF5FBD5182356F5EE73198a02eB13dAD9612DF39A",
    "src/config/Configuration.Ethereum.sol:ConfigurationEthereumMainnet:0x6C6BC06853C6aFa04fD58bb707605C7D2679465B",
    "src/config/Configuration.EthereumSepolia.sol:ConfigurationEthereumSepolia:0xA1759Fd7414815e88589a600F3708434ccc70d82",
    "src/config/Configuration.Local.sol:ConfigurationLocal:0xEb0e0C1e3CfF2eAAcb94B498F8E6324e7A7B0a2B",
    "src/config/Configuration.sol:Configuration:0x123fe1F1a93754C6aC2B1bdF930a47A39762FAFF"
  ],
  "pending": [],
  "returns": {},
  "timestamp": 1761051847155,
  "chain": 421614,
  "commit": "07440cb"
}