{
  "transactions": [
    {
      "hash": "0x1b689712bf1af3261ce1fd7b277f69098bc875d9a32a9c49a6dc0dc4bba28b46",
      "transactionType": "CALL",
      "contractName": null,
      "contractAddress": "0x75faf114eafb1bdbe2f0316df893fd58ce46aa4d",
      "function": "approve(address,uint256)",
      "arguments": [
        "0xBfA7A006CfAE2643473Ee6571d5ca72D629Ec35B",
        "115792089237316195423570985008687907853269984665640564039457584007913129639935"
      ],
      "transaction": {
        "from": "0x23bf95de9f90338f973056351c8cd2cb78cbe52f",
        "to": "0x75faf114eafb1bdbe2f0316df893fd58ce46aa4d",
        "gas": "0x11f5d",
        "value": "0x0",
        "input": "0x095ea7b3000000000000000000000000bfa7a006cfae2643473ee6571d5ca72d629ec35bffffffffffffffffffffffffffffffffffffffffffffffffffffffffffffffff",
        "nonce": "0x11d",
        "chainId": "0x66eee"
      },
      "additionalContracts": [],
      "isFixedGasLimit": false
    },
    {
      "hash": "0x713b3f8c7c15634d57f63a8a9ec5c326d6fe61525eaa4bf1f89168060812969f",
      "transactionType": "CALL",
      "contractName": null,
      "contractAddress": "0xbfa7a006cfae2643473ee6571d5ca72d629ec35b",
      "function": "deposit(uint256,address)",
      "arguments": [
        "1000000",
        "0x23BF95De9F90338F973056351C8Cd2CB78cbe52f"
      ],
      "transaction": {
        "from": "0x23bf95de9f90338f973056351c8cd2cb78cbe52f",
        "to": "0xbfa7a006cfae2643473ee6571d5ca72d629ec35b",
        "gas": "0x713d3",
        "value": "0x0",
        "input": "0x6e553f6500000000000000000000000000000000000000000000000000000000000f424000000000000000000000000023bf95de9f90338f973056351c8cd2cb78cbe52f",
        "nonce": "0x11e",
        "chainId": "0x66eee"
      },
      "additionalContracts": [],
      "isFixedGasLimit": false
    }
  ],
  "receipts": [
    {
      "status": "0x1",
      "cumulativeGasUsed": "0x31048",
      "logs": [
        {
          "address": "0x75faf114eafb1bdbe2f0316df893fd58ce46aa4d",
          "topics": [
            "0x8c5be1e5ebec7d5bd14f71427d1e84f3dd0314c0f7b2291e5b200ac8c7c3b925",
            "0x00000000000000000000000023bf95de9f90338f973056351c8cd2cb78cbe52f",
            "0x000000000000000000000000bfa7a006cfae2643473ee6571d5ca72d629ec35b"
          ],
          "data": "0xffffffffffffffffffffffffffffffffffffffffffffffffffffffffffffffff",
          "blockHash": "0xfc9c453aea2d0aa783712941d3b56ce43165a2fff342ad6464d500e2a87d35cb",
          "blockNumber": "0xc80d651",
          "transactionHash": "0x1b689712bf1af3261ce1fd7b277f69098bc875d9a32a9c49a6dc0dc4bba28b46",
          "transactionIndex": "0x3",
          "logIndex": "0x0",
          "removed": false
        }
      ],
      "logsBloom": "0x00000000000000000000000000000000000000000000000000000000010000000000000000000000000000000000000000000000000000000000001000200000800000000000000000000000000000000000000000000000000000000000000000000000000000000000000000000000000000000000000000000000000000000000000000000000000000000000000000000000000000000000000000000000020000008000000000000000000100000000000000000000000000000000000000000000000000000000000000000000008000000000000000000000000000000010000000000000000000000000000000000000000000000100000000000004",
      "type": "0x2",
      "transactionHash": "0x1b689712bf1af3261ce1fd7b277f69098bc875d9a32a9c49a6dc0dc4bba28b46",
      "transactionIndex": "0x3",
      "blockHash": "0xfc9c453aea2d0aa783712941d3b56ce43165a2fff342ad6464d500e2a87d35cb",
      "blockNumber": "0xc80d651",
      "gasUsed": "0xd9e9",
      "effectiveGasPrice": "0x5f5e100",
      "from": "0x23bf95de9f90338f973056351c8cd2cb78cbe52f",
      "to": "0x75faf114eafb1bdbe2f0316df893fd58ce46aa4d",
      "contractAddress": null,
      "gasUsedForL1": "0x0",
      "l1BlockNumber": "0x9139ed",
      "timeboosted": false
    },
    {
      "status": "0x1",
      "cumulativeGasUsed": "0x61a8e",
      "logs": [
        {
          "address": "0x75faf114eafb1bdbe2f0316df893fd58ce46aa4d",
          "topics": [
            "0xddf252ad1be2c89b69c2b068fc378daa952ba7f163c4a11628f55a4df523b3ef",
            "0x00000000000000000000000023bf95de9f90338f973056351c8cd2cb78cbe52f",
            "0x000000000000000000000000bfa7a006cfae2643473ee6571d5ca72d629ec35b"
          ],
          "data": "0x00000000000000000000000000000000000000000000000000000000000f4240",
          "blockHash": "0x870e6accab703323f73019bca9ca1373064d0405976f45003b963a48a6e52b50",
          "blockNumber": "0xc80d654",
          "transactionHash": "0x713b3f8c7c15634d57f63a8a9ec5c326d6fe61525eaa4bf1f89168060812969f",
          "transactionIndex": "0x2",
          "logIndex": "0x0",
          "removed": false
        },
        {
          "address": "0xbfa7a006cfae2643473ee6571d5ca72d629ec35b",
          "topics": [
            "0xddf252ad1be2c89b69c2b068fc378daa952ba7f163c4a11628f55a4df523b3ef",
            "0x0000000000000000000000000000000000000000000000000000000000000000",
            "0x00000000000000000000000023bf95de9f90338f973056351c8cd2cb78cbe52f"
          ],
          "data": "0x00000000000000000000000000000000000000000000000000000000000f4240",
          "blockHash": "0x870e6accab703323f73019bca9ca1373064d0405976f45003b963a48a6e52b50",
          "blockNumber": "0xc80d654",
          "transactionHash": "0x713b3f8c7c15634d57f63a8a9ec5c326d6fe61525eaa4bf1f89168060812969f",
          "transactionIndex": "0x2",
          "logIndex": "0x1",
          "removed": false
        },
        {
          "address": "0xbfa7a006cfae2643473ee6571d5ca72d629ec35b",
          "topics": [
            "0xdcbc1c05240f31ff3ad067ef1ee35ce4997762752e3a095284754544f4c709d7",
            "0x00000000000000000000000023bf95de9f90338f973056351c8cd2cb78cbe52f",
            "0x00000000000000000000000023bf95de9f90338f973056351c8cd2cb78cbe52f"
          ],
          "data": "0x00000000000000000000000000000000000000000000000000000000000f424000000000000000000000000000000000000000000000000000000000000f4240",
          "blockHash": "0x870e6accab703323f73019bca9ca1373064d0405976f45003b963a48a6e52b50",
          "blockNumber": "0xc80d654",
          "transactionHash": "0x713b3f8c7c15634d57f63a8a9ec5c326d6fe61525eaa4bf1f89168060812969f",
          "transactionIndex": "0x2",
          "logIndex": "0x2",
          "removed": false
        },
        {
          "address": "0xbfc91d59fdaa134a4ed45f7b584caf96d7792eff",
          "topics": [
            "0x804c9b842b2748a22bb64b345453a3de7ca54a6ca45ce00d415894979e22897a",
            "0x00000000000000000000000075faf114eafb1bdbe2f0316df893fd58ce46aa4d"
          ],
          "data": "0x00000000000000000000000000000000000000000023808597591fc637be633d000000000000000000000000000000000000000000688af47186fa828180be420000000000000000000000000000000000000000002ea3e0d6faf1887b80be4200000000000000000000000000000000000000000378ff01d84b31c58031f23700000000000000000000000000000000000000000390ee7380924f1a9079ee5c",
          "blockHash": "0x870e6accab703323f73019bca9ca1373064d0405976f45003b963a48a6e52b50",
          "blockNumber": "0xc80d654",
          "transactionHash": "0x713b3f8c7c15634d57f63a8a9ec5c326d6fe61525eaa4bf1f89168060812969f",
          "transactionIndex": "0x2",
          "logIndex": "0x3",
          "removed": false
        },
        {
          "address": "0x75faf114eafb1bdbe2f0316df893fd58ce46aa4d",
          "topics": [
            "0xddf252ad1be2c89b69c2b068fc378daa952ba7f163c4a11628f55a4df523b3ef",
            "0x000000000000000000000000bfa7a006cfae2643473ee6571d5ca72d629ec35b",
            "0x000000000000000000000000460b97bd498e1157530aeb3086301d5225b91216"
          ],
          "data": "0x00000000000000000000000000000000000000000000000000000000000f4240",
          "blockHash": "0x870e6accab703323f73019bca9ca1373064d0405976f45003b963a48a6e52b50",
          "blockNumber": "0xc80d654",
          "transactionHash": "0x713b3f8c7c15634d57f63a8a9ec5c326d6fe61525eaa4bf1f89168060812969f",
          "transactionIndex": "0x2",
          "logIndex": "0x4",
          "removed": false
        },
        {
          "address": "0x460b97bd498e1157530aeb3086301d5225b91216",
          "topics": [
            "0xddf252ad1be2c89b69c2b068fc378daa952ba7f163c4a11628f55a4df523b3ef",
            "0x0000000000000000000000000000000000000000000000000000000000000000",
            "0x000000000000000000000000bfa7a006cfae2643473ee6571d5ca72d629ec35b"
          ],
          "data": "0x00000000000000000000000000000000000000000000000000000000000f4240",
          "blockHash": "0x870e6accab703323f73019bca9ca1373064d0405976f45003b963a48a6e52b50",
          "blockNumber": "0xc80d654",
          "transactionHash": "0x713b3f8c7c15634d57f63a8a9ec5c326d6fe61525eaa4bf1f89168060812969f",
          "transactionIndex": "0x2",
          "logIndex": "0x5",
          "removed": false
        },
        {
          "address": "0x460b97bd498e1157530aeb3086301d5225b91216",
          "topics": [
            "0x458f5fa412d0f69b08dd84872b0215675cc67bc1d5b6fd93300a1c3878b86196",
            "0x000000000000000000000000bfa7a006cfae2643473ee6571d5ca72d629ec35b",
            "0x000000000000000000000000bfa7a006cfae2643473ee6571d5ca72d629ec35b"
          ],
          "data": "0x00000000000000000000000000000000000000000000000000000000000f4240000000000000000000000000000000000000000000000000000000000000000000000000000000000000000000000000000000000378ff01d84b31c58031f237",
          "blockHash": "0x870e6accab703323f73019bca9ca1373064d0405976f45003b963a48a6e52b50",
          "blockNumber": "0xc80d654",
          "transactionHash": "0x713b3f8c7c15634d57f63a8a9ec5c326d6fe61525eaa4bf1f89168060812969f",
          "transactionIndex": "0x2",
          "logIndex": "0x6",
          "removed": false
        },
        {
          "address": "0xbfc91d59fdaa134a4ed45f7b584caf96d7792eff",
          "topics": [
            "0x00058a56ea94653cdf4f152d227ace22d4c00ad99e2a43f58cb7d9e3feb295f2",
            "0x00000000000000000000000075faf114eafb1bdbe2f0316df893fd58ce46aa4d",
            "0x000000000000000000000000bfa7a006cfae2643473ee6571d5ca72d629ec35b"
          ],
          "data": "0x",
          "blockHash": "0x870e6accab703323f73019bca9ca1373064d0405976f45003b963a48a6e52b50",
          "blockNumber": "0xc80d654",
          "transactionHash": "0x713b3f8c7c15634d57f63a8a9ec5c326d6fe61525eaa4bf1f89168060812969f",
          "transactionIndex": "0x2",
          "logIndex": "0x7",
          "removed": false
        },
        {
          "address": "0xbfc91d59fdaa134a4ed45f7b584caf96d7792eff",
          "topics": [
            "0x2b627736bca15cd5381dcf80b0bf11fd197d01a037c52b927a881a10fb73ba61",
            "0x00000000000000000000000075faf114eafb1bdbe2f0316df893fd58ce46aa4d",
            "0x000000000000000000000000bfa7a006cfae2643473ee6571d5ca72d629ec35b",
            "0x0000000000000000000000000000000000000000000000000000000000000000"
          ],
          "data": "0x000000000000000000000000bfa7a006cfae2643473ee6571d5ca72d629ec35b00000000000000000000000000000000000000000000000000000000000f4240",
          "blockHash": "0x870e6accab703323f73019bca9ca1373064d0405976f45003b963a48a6e52b50",
          "blockNumber": "0xc80d654",
          "transactionHash": "0x713b3f8c7c15634d57f63a8a9ec5c326d6fe61525eaa4bf1f89168060812969f",
          "transactionIndex": "0x2",
          "logIndex": "0x8",
          "removed": false
        },
        {
          "address": "0xbfa7a006cfae2643473ee6571d5ca72d629ec35b",
          "topics": [
            "0xba3ffa58e6beddd202dec6f1b1bb88dbb12d8823d523283b2ebbe9b627c9eb02"
          ],
          "data": "0x00000000000000000000000000000000000000000000000000000000000f424000000000000000000000000000000000000000000000000000000000000f4240",
          "blockHash": "0x870e6accab703323f73019bca9ca1373064d0405976f45003b963a48a6e52b50",
          "blockNumber": "0xc80d654",
          "transactionHash": "0x713b3f8c7c15634d57f63a8a9ec5c326d6fe61525eaa4bf1f89168060812969f",
          "transactionIndex": "0x2",
          "logIndex": "0x9",
          "removed": false
        }
      ],
      "logsBloom": "0x020000000000080000800000000000000000000000000000000000000100000000000000000000000000000000040000000180000000000100000010000000008000004401000002000000080100000000000000000000000000000400000000000000000200000000000000000008000200000000040020000000100001000000000000800000000000000000000000000c0000400000000000000000000000000000008000000000200000000100000000000000000000000000000000010002000002000000000000002040000000008000000008080000000400000020000000000000000000000000000000000040000000000000001100400000000004",
      "type": "0x2",
      "transactionHash": "0x713b3f8c7c15634d57f63a8a9ec5c326d6fe61525eaa4bf1f89168060812969f",
      "transactionIndex": "0x2",
      "blockHash": "0x870e6accab703323f73019bca9ca1373064d0405976f45003b963a48a6e52b50",
      "blockNumber": "0xc80d654",
      "gasUsed": "0x4d6db",
      "effectiveGasPrice": "0x5f5e100",
      "from": "0x23bf95de9f90338f973056351c8cd2cb78cbe52f",
      "to": "0xbfa7a006cfae2643473ee6571d5ca72d629ec35b",
      "contractAddress": null,
      "gasUsedForL1": "0x0",
      "l1BlockNumber": "0x9139ed",
      "timeboosted": false
    }
  ],
  "libraries": [
    "src/config/Configuration.ArbitrumSepolia.sol:ConfigurationArbitrumSepolia:0xeA877Bb50e4550FAAB3dE0de21110FF2eaDbd607",
    "src/config/Configuration.Base.sol:ConfigurationBaseMainnet:0x42dBf5358d04c4fC65b8A2501732e1b799Cf8C7F",
    "src/config/Configuration.BaseSepolia.sol:ConfigurationBaseSepolia:0x8CD9F0A3Fb33793daeA0828985e8A39b014e4c25",
    "src/config/Configuration.Ethereum.sol:ConfigurationEthereumMainnet:0x7C59aB12ae1cE53A28aeE34d615Eb6f476774fa7",
    "src/config/Configuration.EthereumSepolia.sol:ConfigurationEthereumSepolia:0x43A0e44F7EbbC8DB17807C9583859dc5A06f6E3b",
    "src/config/Configuration.Local.sol:ConfigurationLocal:0xf471EeAbD90669d272Ff633CAAf2d9d6ab6FFC03",
    "src/config/Configuration.OptimismSepolia.sol:ConfigurationOptimismSepolia:0x1447f089Fd0673aD2B03920122Bc9788Be8746cd",
    "src/config/Configuration.sol:Configuration:0xE31E4AE4606486363084bf49f238d681784a7620"
  ],
  "pending": [],
  "returns": {},
  "timestamp": 1761763678134,
  "chain": 421614,
  "commit": "e1d7578"
}