{
  "transactions": [
    {
      "hash": "0x5e7f8d78cc0f2288a293ee067b01c41211dc4c6157e1a8cf2d25049c0acb4ee8",
      "transactionType": "CALL",
      "contractName": null,
      "contractAddress": "0x75faf114eafb1bdbe2f0316df893fd58ce46aa4d",
      "function": "approve(address,uint256)",
      "arguments": [
        "0xB721ecCb8e34cf8aCE5E5f39c3Af5a8862A073d0",
        "115792089237316195423570985008687907853269984665640564039457584007913129639935"
      ],
      "transaction": {
        "from": "0x23bf95de9f90338f973056351c8cd2cb78cbe52f",
        "to": "0x75faf114eafb1bdbe2f0316df893fd58ce46aa4d",
        "gas": "0x11f5d",
        "value": "0x0",
        "input": "0x095ea7b3000000000000000000000000b721eccb8e34cf8ace5e5f39c3af5a8862a073d0ffffffffffffffffffffffffffffffffffffffffffffffffffffffffffffffff",
        "nonce": "0x141",
        "chainId": "0x66eee"
      },
      "additionalContracts": [],
      "isFixedGasLimit": false
    },
    {
      "hash": "0xa0d8e33dd07c0d3f57e2ff655ec25cb254d2f634817f20a43df4cbdbe642a644",
      "transactionType": "CALL",
      "contractName": null,
      "contractAddress": "0xb721eccb8e34cf8ace5e5f39c3af5a8862a073d0",
      "function": "deposit(uint256,address)",
      "arguments": [
        "1000000",
        "0x23BF95De9F90338F973056351C8Cd2CB78cbe52f"
      ],
      "transaction": {
        "from": "0x23bf95de9f90338f973056351c8cd2cb78cbe52f",
        "to": "0xb721eccb8e34cf8ace5e5f39c3af5a8862a073d0",
        "gas": "0x713d3",
        "value": "0x0",
        "input": "0x6e553f6500000000000000000000000000000000000000000000000000000000000f424000000000000000000000000023bf95de9f90338f973056351c8cd2cb78cbe52f",
        "nonce": "0x142",
        "chainId": "0x66eee"
      },
      "additionalContracts": [],
      "isFixedGasLimit": false
    }
  ],
  "receipts": [
    {
      "status": "0x1",
      "cumulativeGasUsed": "0xd9e9",
      "logs": [
        {
          "address": "0x75faf114eafb1bdbe2f0316df893fd58ce46aa4d",
          "topics": [
            "0x8c5be1e5ebec7d5bd14f71427d1e84f3dd0314c0f7b2291e5b200ac8c7c3b925",
            "0x00000000000000000000000023bf95de9f90338f973056351c8cd2cb78cbe52f",
            "0x000000000000000000000000b721eccb8e34cf8ace5e5f39c3af5a8862a073d0"
          ],
          "data": "0xffffffffffffffffffffffffffffffffffffffffffffffffffffffffffffffff",
          "blockHash": "0x958a3819d1cc57fa394951d8970fe59b8e758817220762243da697b75d3c8dcb",
          "blockNumber": "0xc855b54",
          "transactionHash": "0x5e7f8d78cc0f2288a293ee067b01c41211dc4c6157e1a8cf2d25049c0acb4ee8",
          "transactionIndex": "0x1",
          "logIndex": "0x0",
          "removed": false
        }
      ],
      "logsBloom": "0x00000000000000000000000000000000000000000000000000000000000000000000000000000000000000000000000000000000000000000000000000200000800100000000000000000000000000000000000000000000000000000000000000000000000000000000100000000000000000000000000000000000000000000000000000000000000000000000000008000000000000000000000000000000020000008000000000000000000100000000000000000000000000000000000000000000000000000000000000000000008000000000000000000000000000000010000000000000000000000000000000000000000000000100000000000004",
      "type": "0x2",
      "transactionHash": "0x5e7f8d78cc0f2288a293ee067b01c41211dc4c6157e1a8cf2d25049c0acb4ee8",
      "transactionIndex": "0x1",
      "blockHash": "0x958a3819d1cc57fa394951d8970fe59b8e758817220762243da697b75d3c8dcb",
      "blockNumber": "0xc855b54",
      "gasUsed": "0xd9e9",
      "effectiveGasPrice": "0x5f5e100",
      "from": "0x23bf95de9f90338f973056351c8cd2cb78cbe52f",
      "to": "0x75faf114eafb1bdbe2f0316df893fd58ce46aa4d",
      "contractAddress": null,
      "gasUsedForL1": "0x0",
      "l1BlockNumber": "0x915245",
      "timeboosted": false
    },
    {
      "status": "0x1",
      "cumulativeGasUsed": "0x6258b",
      "logs": [
        {
          "address": "0x75faf114eafb1bdbe2f0316df893fd58ce46aa4d",
          "topics": [
            "0xddf252ad1be2c89b69c2b068fc378daa952ba7f163c4a11628f55a4df523b3ef",
            "0x00000000000000000000000023bf95de9f90338f973056351c8cd2cb78cbe52f",
            "0x000000000000000000000000b721eccb8e34cf8ace5e5f39c3af5a8862a073d0"
          ],
          "data": "0x00000000000000000000000000000000000000000000000000000000000f4240",
          "blockHash": "0x786325140b29f06eb3d82028cf7d74f43d3e61edfe469a6080d43820b9c44624",
          "blockNumber": "0xc855b57",
          "transactionHash": "0xa0d8e33dd07c0d3f57e2ff655ec25cb254d2f634817f20a43df4cbdbe642a644",
          "transactionIndex": "0x2",
          "logIndex": "0x1",
          "removed": false
        },
        {
          "address": "0xb721eccb8e34cf8ace5e5f39c3af5a8862a073d0",
          "topics": [
            "0xddf252ad1be2c89b69c2b068fc378daa952ba7f163c4a11628f55a4df523b3ef",
            "0x0000000000000000000000000000000000000000000000000000000000000000",
            "0x00000000000000000000000023bf95de9f90338f973056351c8cd2cb78cbe52f"
          ],
          "data": "0x00000000000000000000000000000000000000000000000000000000000f4240",
          "blockHash": "0x786325140b29f06eb3d82028cf7d74f43d3e61edfe469a6080d43820b9c44624",
          "blockNumber": "0xc855b57",
          "transactionHash": "0xa0d8e33dd07c0d3f57e2ff655ec25cb254d2f634817f20a43df4cbdbe642a644",
          "transactionIndex": "0x2",
          "logIndex": "0x2",
          "removed": false
        },
        {
          "address": "0xb721eccb8e34cf8ace5e5f39c3af5a8862a073d0",
          "topics": [
            "0xdcbc1c05240f31ff3ad067ef1ee35ce4997762752e3a095284754544f4c709d7",
            "0x00000000000000000000000023bf95de9f90338f973056351c8cd2cb78cbe52f",
            "0x00000000000000000000000023bf95de9f90338f973056351c8cd2cb78cbe52f"
          ],
          "data": "0x00000000000000000000000000000000000000000000000000000000000f424000000000000000000000000000000000000000000000000000000000000f4240",
          "blockHash": "0x786325140b29f06eb3d82028cf7d74f43d3e61edfe469a6080d43820b9c44624",
          "blockNumber": "0xc855b57",
          "transactionHash": "0xa0d8e33dd07c0d3f57e2ff655ec25cb254d2f634817f20a43df4cbdbe642a644",
          "transactionIndex": "0x2",
          "logIndex": "0x3",
          "removed": false
        },
        {
          "address": "0xbfc91d59fdaa134a4ed45f7b584caf96d7792eff",
          "topics": [
            "0x804c9b842b2748a22bb64b345453a3de7ca54a6ca45ce00d415894979e22897a",
            "0x00000000000000000000000075faf114eafb1bdbe2f0316df893fd58ce46aa4d"
          ],
          "data": "0x0000000000000000000000000000000000000000002380a8d477f72d55912b98000000000000000000000000000000000000000000688b0b972b9982773cafb50000000000000000000000000000000000000000002ea3f7fc9f9088713cafb5000000000000000000000000000000000000000003791644730a458450483194000000000000000000000000000000000000000003910dd50538650f28ab7f8e",
          "blockHash": "0x786325140b29f06eb3d82028cf7d74f43d3e61edfe469a6080d43820b9c44624",
          "blockNumber": "0xc855b57",
          "transactionHash": "0xa0d8e33dd07c0d3f57e2ff655ec25cb254d2f634817f20a43df4cbdbe642a644",
          "transactionIndex": "0x2",
          "logIndex": "0x4",
          "removed": false
        },
        {
          "address": "0x75faf114eafb1bdbe2f0316df893fd58ce46aa4d",
          "topics": [
            "0xddf252ad1be2c89b69c2b068fc378daa952ba7f163c4a11628f55a4df523b3ef",
            "0x000000000000000000000000b721eccb8e34cf8ace5e5f39c3af5a8862a073d0",
            "0x000000000000000000000000460b97bd498e1157530aeb3086301d5225b91216"
          ],
          "data": "0x00000000000000000000000000000000000000000000000000000000000f4240",
          "blockHash": "0x786325140b29f06eb3d82028cf7d74f43d3e61edfe469a6080d43820b9c44624",
          "blockNumber": "0xc855b57",
          "transactionHash": "0xa0d8e33dd07c0d3f57e2ff655ec25cb254d2f634817f20a43df4cbdbe642a644",
          "transactionIndex": "0x2",
          "logIndex": "0x5",
          "removed": false
        },
        {
          "address": "0x460b97bd498e1157530aeb3086301d5225b91216",
          "topics": [
            "0xddf252ad1be2c89b69c2b068fc378daa952ba7f163c4a11628f55a4df523b3ef",
            "0x0000000000000000000000000000000000000000000000000000000000000000",
            "0x000000000000000000000000b721eccb8e34cf8ace5e5f39c3af5a8862a073d0"
          ],
          "data": "0x00000000000000000000000000000000000000000000000000000000000f4240",
          "blockHash": "0x786325140b29f06eb3d82028cf7d74f43d3e61edfe469a6080d43820b9c44624",
          "blockNumber": "0xc855b57",
          "transactionHash": "0xa0d8e33dd07c0d3f57e2ff655ec25cb254d2f634817f20a43df4cbdbe642a644",
          "transactionIndex": "0x2",
          "logIndex": "0x6",
          "removed": false
        },
        {
          "address": "0x460b97bd498e1157530aeb3086301d5225b91216",
          "topics": [
            "0x458f5fa412d0f69b08dd84872b0215675cc67bc1d5b6fd93300a1c3878b86196",
            "0x000000000000000000000000b721eccb8e34cf8ace5e5f39c3af5a8862a073d0",
            "0x000000000000000000000000b721eccb8e34cf8ace5e5f39c3af5a8862a073d0"
          ],
          "data": "0x00000000000000000000000000000000000000000000000000000000000f42400000000000000000000000000000000000000000000000000000000000000000000000000000000000000000000000000000000003791644730a458450483194",
          "blockHash": "0x786325140b29f06eb3d82028cf7d74f43d3e61edfe469a6080d43820b9c44624",
          "blockNumber": "0xc855b57",
          "transactionHash": "0xa0d8e33dd07c0d3f57e2ff655ec25cb254d2f634817f20a43df4cbdbe642a644",
          "transactionIndex": "0x2",
          "logIndex": "0x7",
          "removed": false
        },
        {
          "address": "0xbfc91d59fdaa134a4ed45f7b584caf96d7792eff",
          "topics": [
            "0x00058a56ea94653cdf4f152d227ace22d4c00ad99e2a43f58cb7d9e3feb295f2",
            "0x00000000000000000000000075faf114eafb1bdbe2f0316df893fd58ce46aa4d",
            "0x000000000000000000000000b721eccb8e34cf8ace5e5f39c3af5a8862a073d0"
          ],
          "data": "0x",
          "blockHash": "0x786325140b29f06eb3d82028cf7d74f43d3e61edfe469a6080d43820b9c44624",
          "blockNumber": "0xc855b57",
          "transactionHash": "0xa0d8e33dd07c0d3f57e2ff655ec25cb254d2f634817f20a43df4cbdbe642a644",
          "transactionIndex": "0x2",
          "logIndex": "0x8",
          "removed": false
        },
        {
          "address": "0xbfc91d59fdaa134a4ed45f7b584caf96d7792eff",
          "topics": [
            "0x2b627736bca15cd5381dcf80b0bf11fd197d01a037c52b927a881a10fb73ba61",
            "0x00000000000000000000000075faf114eafb1bdbe2f0316df893fd58ce46aa4d",
            "0x000000000000000000000000b721eccb8e34cf8ace5e5f39c3af5a8862a073d0",
            "0x0000000000000000000000000000000000000000000000000000000000000000"
          ],
          "data": "0x000000000000000000000000b721eccb8e34cf8ace5e5f39c3af5a8862a073d000000000000000000000000000000000000000000000000000000000000f4240",
          "blockHash": "0x786325140b29f06eb3d82028cf7d74f43d3e61edfe469a6080d43820b9c44624",
          "blockNumber": "0xc855b57",
          "transactionHash": "0xa0d8e33dd07c0d3f57e2ff655ec25cb254d2f634817f20a43df4cbdbe642a644",
          "transactionIndex": "0x2",
          "logIndex": "0x9",
          "removed": false
        },
        {
          "address": "0xb721eccb8e34cf8ace5e5f39c3af5a8862a073d0",
          "topics": [
            "0xba3ffa58e6beddd202dec6f1b1bb88dbb12d8823d523283b2ebbe9b627c9eb02"
          ],
          "data": "0x00000000000000000000000000000000000000000000000000000000000f424000000000000000000000000000000000000000000000000000000000000f4240",
          "blockHash": "0x786325140b29f06eb3d82028cf7d74f43d3e61edfe469a6080d43820b9c44624",
          "blockNumber": "0xc855b57",
          "transactionHash": "0xa0d8e33dd07c0d3f57e2ff655ec25cb254d2f634817f20a43df4cbdbe642a644",
          "transactionIndex": "0x2",
          "logIndex": "0xa",
          "removed": false
        }
      ],
      "logsBloom": "0x000000000000080000800000000000000000000000000000000000000000000000000000000000004000000000040000000180000000000100000000000000008001004401000002000000080100000000000000000000000000000400000000000000000200000000001000000008000200000000040020000000100001000000080000800000000000000000000000080c0000000000000000000000000000000000008000000000000000000100000000000000000000000000000000010002000002000000000000402040000000008000000008080000000400000020000000000000000000000000000000000040000000000000001100400000000004",
      "type": "0x2",
      "transactionHash": "0xa0d8e33dd07c0d3f57e2ff655ec25cb254d2f634817f20a43df4cbdbe642a644",
      "transactionIndex": "0x2",
      "blockHash": "0x786325140b29f06eb3d82028cf7d74f43d3e61edfe469a6080d43820b9c44624",
      "blockNumber": "0xc855b57",
      "gasUsed": "0x4d6db",
      "effectiveGasPrice": "0x5f5e100",
      "from": "0x23bf95de9f90338f973056351c8cd2cb78cbe52f",
      "to": "0xb721eccb8e34cf8ace5e5f39c3af5a8862a073d0",
      "contractAddress": null,
      "gasUsedForL1": "0x0",
      "l1BlockNumber": "0x915245",
      "timeboosted": false
    }
  ],
  "libraries": [
    "src/config/Configuration.ArbitrumSepolia.sol:ConfigurationArbitrumSepolia:0xeA877Bb50e4550FAAB3dE0de21110FF2eaDbd607",
    "src/config/Configuration.Base.sol:ConfigurationBaseMainnet:0x42dBf5358d04c4fC65b8A2501732e1b799Cf8C7F",
    "src/config/Configuration.BaseSepolia.sol:ConfigurationBaseSepolia:0x8CD9F0A3Fb33793daeA0828985e8A39b014e4c25",
    "src/config/Configuration.Ethereum.sol:ConfigurationEthereumMainnet:0x7C59aB12ae1cE53A28aeE34d615Eb6f476774fa7",
    "src/config/Configuration.EthereumSepolia.sol:ConfigurationEthereumSepolia:0x43A0e44F7EbbC8DB17807C9583859dc5A06f6E3b",
    "src/config/Configuration.Local.sol:ConfigurationLocal:0xf471EeAbD90669d272Ff633CAAf2d9d6ab6FFC03",
    "src/config/Configuration.OptimismSepolia.sol:ConfigurationOptimismSepolia:0x1447f089Fd0673aD2B03920122Bc9788Be8746cd",
    "src/config/Configuration.sol:Configuration:0xE31E4AE4606486363084bf49f238d681784a7620"
  ],
  "pending": [],
  "returns": {},
  "timestamp": 1761838772038,
  "chain": 421614,
  "commit": "059205b"
}