{
  "transactions": [
    {
      "hash": "0x6e64d252e95004ce100721d6d9a355a7a841cbd120ea2a5fe52a7f518384bdbc",
      "transactionType": "CALL",
      "contractName": null,
      "contractAddress": "0x75faf114eafb1bdbe2f0316df893fd58ce46aa4d",
      "function": "approve(address,uint256)",
      "arguments": [
        "0xFA1aA5a346db3aF9275ef4596E08A3C235d7b51b",
        "115792089237316195423570985008687907853269984665640564039457584007913129639935"
      ],
      "transaction": {
        "from": "0x23bf95de9f90338f973056351c8cd2cb78cbe52f",
        "to": "0x75faf114eafb1bdbe2f0316df893fd58ce46aa4d",
        "gas": "0x11f5d",
        "value": "0x0",
        "input": "0x095ea7b3000000000000000000000000fa1aa5a346db3af9275ef4596e08a3c235d7b51bffffffffffffffffffffffffffffffffffffffffffffffffffffffffffffffff",
        "nonce": "0xfd",
        "chainId": "0x66eee"
      },
      "additionalContracts": [],
      "isFixedGasLimit": false
    },
    {
      "hash": "0x50dd6711e8ce93c50dcf6fd71cd8a75f87a62350b4a91968b8414d8089c04518",
      "transactionType": "CALL",
      "contractName": "AaveVault",
      "contractAddress": "0xfa1aa5a346db3af9275ef4596e08a3c235d7b51b",
      "function": "deposit(uint256,address)",
      "arguments": [
        "1000000",
        "0x23BF95De9F90338F973056351C8Cd2CB78cbe52f"
      ],
      "transaction": {
        "from": "0x23bf95de9f90338f973056351c8cd2cb78cbe52f",
        "to": "0xfa1aa5a346db3af9275ef4596e08a3c235d7b51b",
        "gas": "0x713d3",
        "value": "0x0",
        "input": "0x6e553f6500000000000000000000000000000000000000000000000000000000000f424000000000000000000000000023bf95de9f90338f973056351c8cd2cb78cbe52f",
        "nonce": "0xfe",
        "chainId": "0x66eee"
      },
      "additionalContracts": [],
      "isFixedGasLimit": false
    }
  ],
  "receipts": [
    {
      "status": "0x1",
      "cumulativeGasUsed": "0xd9e9",
      "logs": [
        {
          "address": "0x75faf114eafb1bdbe2f0316df893fd58ce46aa4d",
          "topics": [
            "0x8c5be1e5ebec7d5bd14f71427d1e84f3dd0314c0f7b2291e5b200ac8c7c3b925",
            "0x00000000000000000000000023bf95de9f90338f973056351c8cd2cb78cbe52f",
            "0x000000000000000000000000fa1aa5a346db3af9275ef4596e08a3c235d7b51b"
          ],
          "data": "0xffffffffffffffffffffffffffffffffffffffffffffffffffffffffffffffff",
          "blockHash": "0xb463764b4f4849b88d0ef2595b56a1b63ace331c502df2367f83444e8b9ed228",
          "blockNumber": "0xc574157",
          "transactionHash": "0x6e64d252e95004ce100721d6d9a355a7a841cbd120ea2a5fe52a7f518384bdbc",
          "transactionIndex": "0x1",
          "logIndex": "0x0",
          "removed": false
        }
      ],
      "logsBloom": "0x00000000000000000000000000100000000000000000000000000000000000000000000000000000000000000000000000000000000000000000000000200000800000000000000000000000000000000000000000000000000000000000000000000000000000000000000000000000000000000000000000000000000000000004000000000000000000000000000000000000000000000000000000000000020000008000000000000000000100000000000000000004000000000000000000000000000000000000000000000000008000000000000000000000000000000010000000000000000000000000000000000000000000000100000000000004",
      "type": "0x2",
      "transactionHash": "0x6e64d252e95004ce100721d6d9a355a7a841cbd120ea2a5fe52a7f518384bdbc",
      "transactionIndex": "0x1",
      "blockHash": "0xb463764b4f4849b88d0ef2595b56a1b63ace331c502df2367f83444e8b9ed228",
      "blockNumber": "0xc574157",
      "gasUsed": "0xd9e9",
      "effectiveGasPrice": "0x5f5e100",
      "from": "0x23bf95de9f90338f973056351c8cd2cb78cbe52f",
      "to": "0x75faf114eafb1bdbe2f0316df893fd58ce46aa4d",
      "contractAddress": null,
      "gasUsedForL1": "0x0",
      "l1BlockNumber": "0x905cbf",
      "timeboosted": false
    },
    {
      "status": "0x1",
      "cumulativeGasUsed": "0x6ef36",
      "logs": [
        {
          "address": "0x75faf114eafb1bdbe2f0316df893fd58ce46aa4d",
          "topics": [
            "0xddf252ad1be2c89b69c2b068fc378daa952ba7f163c4a11628f55a4df523b3ef",
            "0x00000000000000000000000023bf95de9f90338f973056351c8cd2cb78cbe52f",
            "0x000000000000000000000000fa1aa5a346db3af9275ef4596e08a3c235d7b51b"
          ],
          "data": "0x00000000000000000000000000000000000000000000000000000000000f4240",
          "blockHash": "0x635f538d90f84ea10e91dc98415db72d964d328c30c2c6810c5277581839d13f",
          "blockNumber": "0xc574159",
          "transactionHash": "0x50dd6711e8ce93c50dcf6fd71cd8a75f87a62350b4a91968b8414d8089c04518",
          "transactionIndex": "0x3",
          "logIndex": "0x1",
          "removed": false
        },
        {
          "address": "0xfa1aa5a346db3af9275ef4596e08a3c235d7b51b",
          "topics": [
            "0xddf252ad1be2c89b69c2b068fc378daa952ba7f163c4a11628f55a4df523b3ef",
            "0x0000000000000000000000000000000000000000000000000000000000000000",
            "0x00000000000000000000000023bf95de9f90338f973056351c8cd2cb78cbe52f"
          ],
          "data": "0x00000000000000000000000000000000000000000000000000000000000f4240",
          "blockHash": "0x635f538d90f84ea10e91dc98415db72d964d328c30c2c6810c5277581839d13f",
          "blockNumber": "0xc574159",
          "transactionHash": "0x50dd6711e8ce93c50dcf6fd71cd8a75f87a62350b4a91968b8414d8089c04518",
          "transactionIndex": "0x3",
          "logIndex": "0x2",
          "removed": false
        },
        {
          "address": "0xfa1aa5a346db3af9275ef4596e08a3c235d7b51b",
          "topics": [
            "0xdcbc1c05240f31ff3ad067ef1ee35ce4997762752e3a095284754544f4c709d7",
            "0x00000000000000000000000023bf95de9f90338f973056351c8cd2cb78cbe52f",
            "0x00000000000000000000000023bf95de9f90338f973056351c8cd2cb78cbe52f"
          ],
          "data": "0x00000000000000000000000000000000000000000000000000000000000f424000000000000000000000000000000000000000000000000000000000000f4240",
          "blockHash": "0x635f538d90f84ea10e91dc98415db72d964d328c30c2c6810c5277581839d13f",
          "blockNumber": "0xc574159",
          "transactionHash": "0x50dd6711e8ce93c50dcf6fd71cd8a75f87a62350b4a91968b8414d8089c04518",
          "transactionIndex": "0x3",
          "logIndex": "0x3",
          "removed": false
        },
        {
          "address": "0xbfc91d59fdaa134a4ed45f7b584caf96d7792eff",
          "topics": [
            "0x804c9b842b2748a22bb64b345453a3de7ca54a6ca45ce00d415894979e22897a",
            "0x00000000000000000000000075faf114eafb1bdbe2f0316df893fd58ce46aa4d"
          ],
          "data": "0x0000000000000000000000000000000000000000002379fbad57e0c6972e00160000000000000000000000000000000000000000006886a8b56ed992430be8400000000000000000000000000000000000000000002e9f951ae2d0983d0be8400000000000000000000000000000000000000000037829c16043628e355eb77e0000000000000000000000000000000000000000038fcebf92e27714fd357d1a",
          "blockHash": "0x635f538d90f84ea10e91dc98415db72d964d328c30c2c6810c5277581839d13f",
          "blockNumber": "0xc574159",
          "transactionHash": "0x50dd6711e8ce93c50dcf6fd71cd8a75f87a62350b4a91968b8414d8089c04518",
          "transactionIndex": "0x3",
          "logIndex": "0x4",
          "removed": false
        },
        {
          "address": "0x75faf114eafb1bdbe2f0316df893fd58ce46aa4d",
          "topics": [
            "0xddf252ad1be2c89b69c2b068fc378daa952ba7f163c4a11628f55a4df523b3ef",
            "0x000000000000000000000000fa1aa5a346db3af9275ef4596e08a3c235d7b51b",
            "0x000000000000000000000000460b97bd498e1157530aeb3086301d5225b91216"
          ],
          "data": "0x00000000000000000000000000000000000000000000000000000000000f4240",
          "blockHash": "0x635f538d90f84ea10e91dc98415db72d964d328c30c2c6810c5277581839d13f",
          "blockNumber": "0xc574159",
          "transactionHash": "0x50dd6711e8ce93c50dcf6fd71cd8a75f87a62350b4a91968b8414d8089c04518",
          "transactionIndex": "0x3",
          "logIndex": "0x5",
          "removed": false
        },
        {
          "address": "0x460b97bd498e1157530aeb3086301d5225b91216",
          "topics": [
            "0xddf252ad1be2c89b69c2b068fc378daa952ba7f163c4a11628f55a4df523b3ef",
            "0x0000000000000000000000000000000000000000000000000000000000000000",
            "0x000000000000000000000000fa1aa5a346db3af9275ef4596e08a3c235d7b51b"
          ],
          "data": "0x00000000000000000000000000000000000000000000000000000000000f4240",
          "blockHash": "0x635f538d90f84ea10e91dc98415db72d964d328c30c2c6810c5277581839d13f",
          "blockNumber": "0xc574159",
          "transactionHash": "0x50dd6711e8ce93c50dcf6fd71cd8a75f87a62350b4a91968b8414d8089c04518",
          "transactionIndex": "0x3",
          "logIndex": "0x6",
          "removed": false
        },
        {
          "address": "0x460b97bd498e1157530aeb3086301d5225b91216",
          "topics": [
            "0x458f5fa412d0f69b08dd84872b0215675cc67bc1d5b6fd93300a1c3878b86196",
            "0x000000000000000000000000fa1aa5a346db3af9275ef4596e08a3c235d7b51b",
            "0x000000000000000000000000fa1aa5a346db3af9275ef4596e08a3c235d7b51b"
          ],
          "data": "0x00000000000000000000000000000000000000000000000000000000000f424000000000000000000000000000000000000000000000000000000000000000000000000000000000000000000000000000000000037829c16043628e355eb77e",
          "blockHash": "0x635f538d90f84ea10e91dc98415db72d964d328c30c2c6810c5277581839d13f",
          "blockNumber": "0xc574159",
          "transactionHash": "0x50dd6711e8ce93c50dcf6fd71cd8a75f87a62350b4a91968b8414d8089c04518",
          "transactionIndex": "0x3",
          "logIndex": "0x7",
          "removed": false
        },
        {
          "address": "0xbfc91d59fdaa134a4ed45f7b584caf96d7792eff",
          "topics": [
            "0x00058a56ea94653cdf4f152d227ace22d4c00ad99e2a43f58cb7d9e3feb295f2",
            "0x00000000000000000000000075faf114eafb1bdbe2f0316df893fd58ce46aa4d",
            "0x000000000000000000000000fa1aa5a346db3af9275ef4596e08a3c235d7b51b"
          ],
          "data": "0x",
          "blockHash": "0x635f538d90f84ea10e91dc98415db72d964d328c30c2c6810c5277581839d13f",
          "blockNumber": "0xc574159",
          "transactionHash": "0x50dd6711e8ce93c50dcf6fd71cd8a75f87a62350b4a91968b8414d8089c04518",
          "transactionIndex": "0x3",
          "logIndex": "0x8",
          "removed": false
        },
        {
          "address": "0xbfc91d59fdaa134a4ed45f7b584caf96d7792eff",
          "topics": [
            "0x2b627736bca15cd5381dcf80b0bf11fd197d01a037c52b927a881a10fb73ba61",
            "0x00000000000000000000000075faf114eafb1bdbe2f0316df893fd58ce46aa4d",
            "0x000000000000000000000000fa1aa5a346db3af9275ef4596e08a3c235d7b51b",
            "0x0000000000000000000000000000000000000000000000000000000000000000"
          ],
          "data": "0x000000000000000000000000fa1aa5a346db3af9275ef4596e08a3c235d7b51b00000000000000000000000000000000000000000000000000000000000f4240",
          "blockHash": "0x635f538d90f84ea10e91dc98415db72d964d328c30c2c6810c5277581839d13f",
          "blockNumber": "0xc574159",
          "transactionHash": "0x50dd6711e8ce93c50dcf6fd71cd8a75f87a62350b4a91968b8414d8089c04518",
          "transactionIndex": "0x3",
          "logIndex": "0x9",
          "removed": false
        },
        {
          "address": "0xfa1aa5a346db3af9275ef4596e08a3c235d7b51b",
          "topics": [
            "0xba3ffa58e6beddd202dec6f1b1bb88dbb12d8823d523283b2ebbe9b627c9eb02"
          ],
          "data": "0x00000000000000000000000000000000000000000000000000000000000f424000000000000000000000000000000000000000000000000000000000000f4240",
          "blockHash": "0x635f538d90f84ea10e91dc98415db72d964d328c30c2c6810c5277581839d13f",
          "blockNumber": "0xc574159",
          "transactionHash": "0x50dd6711e8ce93c50dcf6fd71cd8a75f87a62350b4a91968b8414d8089c04518",
          "transactionIndex": "0x3",
          "logIndex": "0xa",
          "removed": false
        }
      ],
      "logsBloom": "0x000000000000080000800000001000000000000000000000000000000000000000000000000000000000000000040000000180000000000100000000000000008000004401000002000000080100000000000000000000000000000400000000000000000200000000000000000008000200000000040020000000100001000000040000800000000000000000000000000c0000000000000000000000000000000000008000000000000000000100000000000000000004000000000000010002000002000000000000002040000000008000000008080000000400000020000000000000080000000000000000000040000000000000001100400000000004",
      "type": "0x2",
      "transactionHash": "0x50dd6711e8ce93c50dcf6fd71cd8a75f87a62350b4a91968b8414d8089c04518",
      "transactionIndex": "0x3",
      "blockHash": "0x635f538d90f84ea10e91dc98415db72d964d328c30c2c6810c5277581839d13f",
      "blockNumber": "0xc574159",
      "gasUsed": "0x4d6db",
      "effectiveGasPrice": "0x5f5e100",
      "from": "0x23bf95de9f90338f973056351c8cd2cb78cbe52f",
      "to": "0xfa1aa5a346db3af9275ef4596e08a3c235d7b51b",
      "contractAddress": null,
      "gasUsedForL1": "0x0",
      "l1BlockNumber": "0x905cbf",
      "timeboosted": false
    }
  ],
  "libraries": [
    "src/config/Configuration.ArbitrumSepolia.sol:ConfigurationArbitrumSepolia:0xeA877Bb50e4550FAAB3dE0de21110FF2eaDbd607",
    "src/config/Configuration.Base.sol:ConfigurationBaseMainnet:0x42dBf5358d04c4fC65b8A2501732e1b799Cf8C7F",
    "src/config/Configuration.BaseSepolia.sol:ConfigurationBaseSepolia:0x8CD9F0A3Fb33793daeA0828985e8A39b014e4c25",
    "src/config/Configuration.Ethereum.sol:ConfigurationEthereumMainnet:0x7C59aB12ae1cE53A28aeE34d615Eb6f476774fa7",
    "src/config/Configuration.EthereumSepolia.sol:ConfigurationEthereumSepolia:0x43A0e44F7EbbC8DB17807C9583859dc5A06f6E3b",
    "src/config/Configuration.Local.sol:ConfigurationLocal:0xf471EeAbD90669d272Ff633CAAf2d9d6ab6FFC03",
    "src/config/Configuration.OptimismSepolia.sol:ConfigurationOptimismSepolia:0x1447f089Fd0673aD2B03920122Bc9788Be8746cd",
    "src/config/Configuration.sol:Configuration:0xE31E4AE4606486363084bf49f238d681784a7620"
  ],
  "pending": [],
  "returns": {},
  "timestamp": 1761074629999,
  "chain": 421614,
  "commit": "c72a35d"
}