{
  "transactions": [
    {
      "hash": "0xa9c8010d0885279d217cf23a5d05e5fb2a4a10a75e226401e9d505e27970feae",
      "transactionType": "CALL",
      "contractName": null,
      "contractAddress": "0x75faf114eafb1bdbe2f0316df893fd58ce46aa4d",
      "function": "approve(address,uint256)",
      "arguments": [
        "0x3AF3C987a652dBaDe67FD081738Ea067FD0f960C",
        "115792089237316195423570985008687907853269984665640564039457584007913129639935"
      ],
      "transaction": {
        "from": "0x23bf95de9f90338f973056351c8cd2cb78cbe52f",
        "to": "0x75faf114eafb1bdbe2f0316df893fd58ce46aa4d",
        "gas": "0x11f5d",
        "value": "0x0",
        "input": "0x095ea7b30000000000000000000000003af3c987a652dbade67fd081738ea067fd0f960cffffffffffffffffffffffffffffffffffffffffffffffffffffffffffffffff",
        "nonce": "0x5e",
        "chainId": "0x66eee"
      },
      "additionalContracts": [],
      "isFixedGasLimit": false
    },
    {
      "hash": "0xdcb01bcf38a3a437b6d4964db6f6df895eb5d4a9dd73e0a2bd43d52b1b8fd950",
      "transactionType": "CALL",
      "contractName": null,
      "contractAddress": "0x3af3c987a652dbade67fd081738ea067fd0f960c",
      "function": "deposit(uint256,address)",
      "arguments": [
        "1000000",
        "0x23BF95De9F90338F973056351C8Cd2CB78cbe52f"
      ],
      "transaction": {
        "from": "0x23bf95de9f90338f973056351c8cd2cb78cbe52f",
        "to": "0x3af3c987a652dbade67fd081738ea067fd0f960c",
        "gas": "0x713d3",
        "value": "0x0",
        "input": "0x6e553f6500000000000000000000000000000000000000000000000000000000000f424000000000000000000000000023bf95de9f90338f973056351c8cd2cb78cbe52f",
        "nonce": "0x5f",
        "chainId": "0x66eee"
      },
      "additionalContracts": [],
      "isFixedGasLimit": false
    }
  ],
  "receipts": [
    {
      "status": "0x1",
      "cumulativeGasUsed": "0x74c7d",
      "logs": [
        {
          "address": "0x75faf114eafb1bdbe2f0316df893fd58ce46aa4d",
          "topics": [
            "0x8c5be1e5ebec7d5bd14f71427d1e84f3dd0314c0f7b2291e5b200ac8c7c3b925",
            "0x00000000000000000000000023bf95de9f90338f973056351c8cd2cb78cbe52f",
            "0x0000000000000000000000003af3c987a652dbade67fd081738ea067fd0f960c"
          ],
          "data": "0xffffffffffffffffffffffffffffffffffffffffffffffffffffffffffffffff",
          "blockHash": "0xafd18d2e6c5c46c0c40d352c5903c09b5e3666cf9895e0a18e3f21fb8c44a311",
          "blockNumber": "0xc07b34f",
          "transactionHash": "0xa9c8010d0885279d217cf23a5d05e5fb2a4a10a75e226401e9d505e27970feae",
          "transactionIndex": "0x7",
          "logIndex": "0x3",
          "removed": false
        }
      ],
      "logsBloom": "0x00000000000000000000000000000000000400000000000000000000000000000000000000000000000000000000000000000000000000000000000000200000800000000000000000000000000000000000008000000000000000000000000000000000000000000000000100000000000000000000000000000000000000000000000000000000000000000000000000000000000000000000000000000000020000008000000000000000000100000000000000000000000000000000000000000000000000000000000000000000008000000000000000000000000000000010000000000000000000000000000000000000000000000100000000000004",
      "type": "0x2",
      "transactionHash": "0xa9c8010d0885279d217cf23a5d05e5fb2a4a10a75e226401e9d505e27970feae",
      "transactionIndex": "0x7",
      "blockHash": "0xafd18d2e6c5c46c0c40d352c5903c09b5e3666cf9895e0a18e3f21fb8c44a311",
      "blockNumber": "0xc07b34f",
      "gasUsed": "0xd9e9",
      "effectiveGasPrice": "0x5f5e100",
      "from": "0x23bf95de9f90338f973056351c8cd2cb78cbe52f",
      "to": "0x75faf114eafb1bdbe2f0316df893fd58ce46aa4d",
      "contractAddress": null,
      "gasUsedForL1": "0x0",
      "l1BlockNumber": "0x8ec3c8",
      "timeboosted": false
    },
    {
      "status": "0x1",
      "cumulativeGasUsed": "0xbb437",
      "logs": [
        {
          "address": "0x75faf114eafb1bdbe2f0316df893fd58ce46aa4d",
          "topics": [
            "0xddf252ad1be2c89b69c2b068fc378daa952ba7f163c4a11628f55a4df523b3ef",
            "0x00000000000000000000000023bf95de9f90338f973056351c8cd2cb78cbe52f",
            "0x0000000000000000000000003af3c987a652dbade67fd081738ea067fd0f960c"
          ],
          "data": "0x00000000000000000000000000000000000000000000000000000000000f4240",
          "blockHash": "0x3566a7fcb109450d1da313723c813d295c2260b110f0bfe36f17d259396003b9",
          "blockNumber": "0xc07b352",
          "transactionHash": "0xdcb01bcf38a3a437b6d4964db6f6df895eb5d4a9dd73e0a2bd43d52b1b8fd950",
          "transactionIndex": "0x6",
          "logIndex": "0xa",
          "removed": false
        },
        {
          "address": "0x3af3c987a652dbade67fd081738ea067fd0f960c",
          "topics": [
            "0xddf252ad1be2c89b69c2b068fc378daa952ba7f163c4a11628f55a4df523b3ef",
            "0x0000000000000000000000000000000000000000000000000000000000000000",
            "0x00000000000000000000000023bf95de9f90338f973056351c8cd2cb78cbe52f"
          ],
          "data": "0x00000000000000000000000000000000000000000000000000000000000f4240",
          "blockHash": "0x3566a7fcb109450d1da313723c813d295c2260b110f0bfe36f17d259396003b9",
          "blockNumber": "0xc07b352",
          "transactionHash": "0xdcb01bcf38a3a437b6d4964db6f6df895eb5d4a9dd73e0a2bd43d52b1b8fd950",
          "transactionIndex": "0x6",
          "logIndex": "0xb",
          "removed": false
        },
        {
          "address": "0x3af3c987a652dbade67fd081738ea067fd0f960c",
          "topics": [
            "0xdcbc1c05240f31ff3ad067ef1ee35ce4997762752e3a095284754544f4c709d7",
            "0x00000000000000000000000023bf95de9f90338f973056351c8cd2cb78cbe52f",
            "0x00000000000000000000000023bf95de9f90338f973056351c8cd2cb78cbe52f"
          ],
          "data": "0x00000000000000000000000000000000000000000000000000000000000f424000000000000000000000000000000000000000000000000000000000000f4240",
          "blockHash": "0x3566a7fcb109450d1da313723c813d295c2260b110f0bfe36f17d259396003b9",
          "blockNumber": "0xc07b352",
          "transactionHash": "0xdcb01bcf38a3a437b6d4964db6f6df895eb5d4a9dd73e0a2bd43d52b1b8fd950",
          "transactionIndex": "0x6",
          "logIndex": "0xc",
          "removed": false
        },
        {
          "address": "0xbfc91d59fdaa134a4ed45f7b584caf96d7792eff",
          "topics": [
            "0x804c9b842b2748a22bb64b345453a3de7ca54a6ca45ce00d415894979e22897a",
            "0x00000000000000000000000075faf114eafb1bdbe2f0316df893fd58ce46aa4d"
          ],
          "data": "0x000000000000000000000000000000000000000000239e0faaafbc27e03ef20f000000000000000000000000000000000000000000689e57aec263ba27a753550000000000000000000000000000000000000000002eb74414365ac021a75355000000000000000000000000000000000000000003769503e95fda3ca51d85680000000000000000000000000000000000000000038dada7a4598a5cf8c45a4f",
          "blockHash": "0x3566a7fcb109450d1da313723c813d295c2260b110f0bfe36f17d259396003b9",
          "blockNumber": "0xc07b352",
          "transactionHash": "0xdcb01bcf38a3a437b6d4964db6f6df895eb5d4a9dd73e0a2bd43d52b1b8fd950",
          "transactionIndex": "0x6",
          "logIndex": "0xd",
          "removed": false
        },
        {
          "address": "0x75faf114eafb1bdbe2f0316df893fd58ce46aa4d",
          "topics": [
            "0xddf252ad1be2c89b69c2b068fc378daa952ba7f163c4a11628f55a4df523b3ef",
            "0x0000000000000000000000003af3c987a652dbade67fd081738ea067fd0f960c",
            "0x000000000000000000000000460b97bd498e1157530aeb3086301d5225b91216"
          ],
          "data": "0x00000000000000000000000000000000000000000000000000000000000f4240",
          "blockHash": "0x3566a7fcb109450d1da313723c813d295c2260b110f0bfe36f17d259396003b9",
          "blockNumber": "0xc07b352",
          "transactionHash": "0xdcb01bcf38a3a437b6d4964db6f6df895eb5d4a9dd73e0a2bd43d52b1b8fd950",
          "transactionIndex": "0x6",
          "logIndex": "0xe",
          "removed": false
        },
        {
          "address": "0x460b97bd498e1157530aeb3086301d5225b91216",
          "topics": [
            "0xddf252ad1be2c89b69c2b068fc378daa952ba7f163c4a11628f55a4df523b3ef",
            "0x0000000000000000000000000000000000000000000000000000000000000000",
            "0x0000000000000000000000003af3c987a652dbade67fd081738ea067fd0f960c"
          ],
          "data": "0x00000000000000000000000000000000000000000000000000000000000f4240",
          "blockHash": "0x3566a7fcb109450d1da313723c813d295c2260b110f0bfe36f17d259396003b9",
          "blockNumber": "0xc07b352",
          "transactionHash": "0xdcb01bcf38a3a437b6d4964db6f6df895eb5d4a9dd73e0a2bd43d52b1b8fd950",
          "transactionIndex": "0x6",
          "logIndex": "0xf",
          "removed": false
        },
        {
          "address": "0x460b97bd498e1157530aeb3086301d5225b91216",
          "topics": [
            "0x458f5fa412d0f69b08dd84872b0215675cc67bc1d5b6fd93300a1c3878b86196",
            "0x0000000000000000000000003af3c987a652dbade67fd081738ea067fd0f960c",
            "0x0000000000000000000000003af3c987a652dbade67fd081738ea067fd0f960c"
          ],
          "data": "0x00000000000000000000000000000000000000000000000000000000000f42400000000000000000000000000000000000000000000000000000000000000000000000000000000000000000000000000000000003769503e95fda3ca51d8568",
          "blockHash": "0x3566a7fcb109450d1da313723c813d295c2260b110f0bfe36f17d259396003b9",
          "blockNumber": "0xc07b352",
          "transactionHash": "0xdcb01bcf38a3a437b6d4964db6f6df895eb5d4a9dd73e0a2bd43d52b1b8fd950",
          "transactionIndex": "0x6",
          "logIndex": "0x10",
          "removed": false
        },
        {
          "address": "0xbfc91d59fdaa134a4ed45f7b584caf96d7792eff",
          "topics": [
            "0x00058a56ea94653cdf4f152d227ace22d4c00ad99e2a43f58cb7d9e3feb295f2",
            "0x00000000000000000000000075faf114eafb1bdbe2f0316df893fd58ce46aa4d",
            "0x0000000000000000000000003af3c987a652dbade67fd081738ea067fd0f960c"
          ],
          "data": "0x",
          "blockHash": "0x3566a7fcb109450d1da313723c813d295c2260b110f0bfe36f17d259396003b9",
          "blockNumber": "0xc07b352",
          "transactionHash": "0xdcb01bcf38a3a437b6d4964db6f6df895eb5d4a9dd73e0a2bd43d52b1b8fd950",
          "transactionIndex": "0x6",
          "logIndex": "0x11",
          "removed": false
        },
        {
          "address": "0xbfc91d59fdaa134a4ed45f7b584caf96d7792eff",
          "topics": [
            "0x2b627736bca15cd5381dcf80b0bf11fd197d01a037c52b927a881a10fb73ba61",
            "0x00000000000000000000000075faf114eafb1bdbe2f0316df893fd58ce46aa4d",
            "0x0000000000000000000000003af3c987a652dbade67fd081738ea067fd0f960c",
            "0x0000000000000000000000000000000000000000000000000000000000000000"
          ],
          "data": "0x0000000000000000000000003af3c987a652dbade67fd081738ea067fd0f960c00000000000000000000000000000000000000000000000000000000000f4240",
          "blockHash": "0x3566a7fcb109450d1da313723c813d295c2260b110f0bfe36f17d259396003b9",
          "blockNumber": "0xc07b352",
          "transactionHash": "0xdcb01bcf38a3a437b6d4964db6f6df895eb5d4a9dd73e0a2bd43d52b1b8fd950",
          "transactionIndex": "0x6",
          "logIndex": "0x12",
          "removed": false
        },
        {
          "address": "0x3af3c987a652dbade67fd081738ea067fd0f960c",
          "topics": [
            "0xba3ffa58e6beddd202dec6f1b1bb88dbb12d8823d523283b2ebbe9b627c9eb02"
          ],
          "data": "0x00000000000000000000000000000000000000000000000000000000000f424000000000000000000000000000000000000000000000000000000000000f4240",
          "blockHash": "0x3566a7fcb109450d1da313723c813d295c2260b110f0bfe36f17d259396003b9",
          "blockNumber": "0xc07b352",
          "transactionHash": "0xdcb01bcf38a3a437b6d4964db6f6df895eb5d4a9dd73e0a2bd43d52b1b8fd950",
          "transactionIndex": "0x6",
          "logIndex": "0x13",
          "removed": false
        }
      ],
      "logsBloom": "0x000000000000080000800000000000000004000000000000000000000000000000000000000000000000000000040000000180000000000100000000000000008000004401000002000000080100000000000080000000000000000400000000000000000200000000000001000008000200000000040020000000100041000000000000800000000000000000000000000c0000000000000000000000000000000000008000000000000000000100000000000000000000000008000080010002000002000000000000002040000000008000000008080000000400000020000000000000000000000000000000000040000000000000001100400000000004",
      "type": "0x2",
      "transactionHash": "0xdcb01bcf38a3a437b6d4964db6f6df895eb5d4a9dd73e0a2bd43d52b1b8fd950",
      "transactionIndex": "0x6",
      "blockHash": "0x3566a7fcb109450d1da313723c813d295c2260b110f0bfe36f17d259396003b9",
      "blockNumber": "0xc07b352",
      "gasUsed": "0x4d6db",
      "effectiveGasPrice": "0x5f5e100",
      "from": "0x23bf95de9f90338f973056351c8cd2cb78cbe52f",
      "to": "0x3af3c987a652dbade67fd081738ea067fd0f960c",
      "contractAddress": null,
      "gasUsedForL1": "0x0",
      "l1BlockNumber": "0x8ec3c8",
      "timeboosted": false
    }
  ],
  "libraries": [
    "src/config/Configuration.ArbitrumSepolia.sol:ConfigurationArbitrumSepolia:0xbAEDEDa67771036907F1650AaDb06C645f7cE543",
    "src/config/Configuration.Base.sol:ConfigurationBaseMainnet:0xc724402C8C6bef7bFD30C5f5e26A12C9a8248D33",
    "src/config/Configuration.BaseSepolia.sol:ConfigurationBaseSepolia:0xF5FBD5182356F5EE73198a02eB13dAD9612DF39A",
    "src/config/Configuration.Ethereum.sol:ConfigurationEthereumMainnet:0x6C6BC06853C6aFa04fD58bb707605C7D2679465B",
    "src/config/Configuration.EthereumSepolia.sol:ConfigurationEthereumSepolia:0xA1759Fd7414815e88589a600F3708434ccc70d82",
    "src/config/Configuration.Local.sol:ConfigurationLocal:0xEb0e0C1e3CfF2eAAcb94B498F8E6324e7A7B0a2B",
    "src/config/Configuration.sol:Configuration:0x123fe1F1a93754C6aC2B1bdF930a47A39762FAFF"
  ],
  "pending": [],
  "returns": {},
  "timestamp": 1759768517821,
  "chain": 421614,
  "commit": "b4fd21e"
}