{
  "transactions": [
    {
      "hash": "0xca3874a9e61fc7f487b022634f0cd90cf1cfac3441e9d736353818ee8f226949",
      "transactionType": "CALL",
      "contractName": null,
      "contractAddress": "0x75faf114eafb1bdbe2f0316df893fd58ce46aa4d",
      "function": "approve(address,uint256)",
      "arguments": [
        "0x820CF97eA4c2F4C67971D89c257f03312BE6a8a1",
        "115792089237316195423570985008687907853269984665640564039457584007913129639935"
      ],
      "transaction": {
        "from": "0x23bf95de9f90338f973056351c8cd2cb78cbe52f",
        "to": "0x75faf114eafb1bdbe2f0316df893fd58ce46aa4d",
        "gas": "0x11f62",
        "value": "0x0",
        "input": "0x095ea7b3000000000000000000000000820cf97ea4c2f4c67971d89c257f03312be6a8a1ffffffffffffffffffffffffffffffffffffffffffffffffffffffffffffffff",
        "nonce": "0x96",
        "chainId": "0x66eee"
      },
      "additionalContracts": [],
      "isFixedGasLimit": false
    },
    {
      "hash": "0x128272192e287c2b158ab76baa0a0fdc1b6c7e6a082a0d2fd00003d88ae7ea77",
      "transactionType": "CALL",
      "contractName": null,
      "contractAddress": "0x820cf97ea4c2f4c67971d89c257f03312be6a8a1",
      "function": "deposit(uint256,address)",
      "arguments": [
        "1000000",
        "0x23BF95De9F90338F973056351C8Cd2CB78cbe52f"
      ],
      "transaction": {
        "from": "0x23bf95de9f90338f973056351c8cd2cb78cbe52f",
        "to": "0x820cf97ea4c2f4c67971d89c257f03312be6a8a1",
        "gas": "0x713d3",
        "value": "0x0",
        "input": "0x6e553f6500000000000000000000000000000000000000000000000000000000000f424000000000000000000000000023bf95de9f90338f973056351c8cd2cb78cbe52f",
        "nonce": "0x97",
        "chainId": "0x66eee"
      },
      "additionalContracts": [],
      "isFixedGasLimit": false
    }
  ],
  "receipts": [
    {
      "status": "0x1",
      "cumulativeGasUsed": "0x213c9",
      "logs": [
        {
          "address": "0x75faf114eafb1bdbe2f0316df893fd58ce46aa4d",
          "topics": [
            "0x8c5be1e5ebec7d5bd14f71427d1e84f3dd0314c0f7b2291e5b200ac8c7c3b925",
            "0x00000000000000000000000023bf95de9f90338f973056351c8cd2cb78cbe52f",
            "0x000000000000000000000000820cf97ea4c2f4c67971d89c257f03312be6a8a1"
          ],
          "data": "0xffffffffffffffffffffffffffffffffffffffffffffffffffffffffffffffff",
          "blockHash": "0x325bf378e245c3827f9d46f9011520848ebf78c9bd26b70fc73583dd95fcc360",
          "blockNumber": "0xc1730a4",
          "transactionHash": "0xca3874a9e61fc7f487b022634f0cd90cf1cfac3441e9d736353818ee8f226949",
          "transactionIndex": "0x2",
          "logIndex": "0x0",
          "removed": false
        }
      ],
      "logsBloom": "0x00000000000000000000000000000000000000000000000000000000000000000000000000000000000000000000000000000000000000000020000000200000800000000000000000800000000000000000000000000000000000000000000000000000000000000000000000000000000000000000000000000000000000000000000000000000000000000000000000000000000000000000000000000000020000008000000000000000400100000000000000000000000000000000000000000000000000000000000000000000008000000000000000000000000000000010000000000000000000000000000000000000000000000100000000000004",
      "type": "0x2",
      "transactionHash": "0xca3874a9e61fc7f487b022634f0cd90cf1cfac3441e9d736353818ee8f226949",
      "transactionIndex": "0x2",
      "blockHash": "0x325bf378e245c3827f9d46f9011520848ebf78c9bd26b70fc73583dd95fcc360",
      "blockNumber": "0xc1730a4",
      "gasUsed": "0xd9ec",
      "effectiveGasPrice": "0x6701a10",
      "from": "0x23bf95de9f90338f973056351c8cd2cb78cbe52f",
      "to": "0x75faf114eafb1bdbe2f0316df893fd58ce46aa4d",
      "contractAddress": null,
      "gasUsedForL1": "0x3",
      "l1BlockNumber": "0x8f12bb",
      "timeboosted": false
    },
    {
      "status": "0x1",
      "cumulativeGasUsed": "0x3e9a44",
      "logs": [
        {
          "address": "0x75faf114eafb1bdbe2f0316df893fd58ce46aa4d",
          "topics": [
            "0xddf252ad1be2c89b69c2b068fc378daa952ba7f163c4a11628f55a4df523b3ef",
            "0x00000000000000000000000023bf95de9f90338f973056351c8cd2cb78cbe52f",
            "0x000000000000000000000000820cf97ea4c2f4c67971d89c257f03312be6a8a1"
          ],
          "data": "0x00000000000000000000000000000000000000000000000000000000000f4240",
          "blockHash": "0xace0eb51bc19e6d1d10ff165dd7037bdadc9f7955a033c82afe647569704a0f6",
          "blockNumber": "0xc1730a7",
          "transactionHash": "0x128272192e287c2b158ab76baa0a0fdc1b6c7e6a082a0d2fd00003d88ae7ea77",
          "transactionIndex": "0xb",
          "logIndex": "0x8",
          "removed": false
        },
        {
          "address": "0x820cf97ea4c2f4c67971d89c257f03312be6a8a1",
          "topics": [
            "0xddf252ad1be2c89b69c2b068fc378daa952ba7f163c4a11628f55a4df523b3ef",
            "0x0000000000000000000000000000000000000000000000000000000000000000",
            "0x00000000000000000000000023bf95de9f90338f973056351c8cd2cb78cbe52f"
          ],
          "data": "0x00000000000000000000000000000000000000000000000000000000000f4240",
          "blockHash": "0xace0eb51bc19e6d1d10ff165dd7037bdadc9f7955a033c82afe647569704a0f6",
          "blockNumber": "0xc1730a7",
          "transactionHash": "0x128272192e287c2b158ab76baa0a0fdc1b6c7e6a082a0d2fd00003d88ae7ea77",
          "transactionIndex": "0xb",
          "logIndex": "0x9",
          "removed": false
        },
        {
          "address": "0x820cf97ea4c2f4c67971d89c257f03312be6a8a1",
          "topics": [
            "0xdcbc1c05240f31ff3ad067ef1ee35ce4997762752e3a095284754544f4c709d7",
            "0x00000000000000000000000023bf95de9f90338f973056351c8cd2cb78cbe52f",
            "0x00000000000000000000000023bf95de9f90338f973056351c8cd2cb78cbe52f"
          ],
          "data": "0x00000000000000000000000000000000000000000000000000000000000f424000000000000000000000000000000000000000000000000000000000000f4240",
          "blockHash": "0xace0eb51bc19e6d1d10ff165dd7037bdadc9f7955a033c82afe647569704a0f6",
          "blockNumber": "0xc1730a7",
          "transactionHash": "0x128272192e287c2b158ab76baa0a0fdc1b6c7e6a082a0d2fd00003d88ae7ea77",
          "transactionIndex": "0xb",
          "logIndex": "0xa",
          "removed": false
        },
        {
          "address": "0xbfc91d59fdaa134a4ed45f7b584caf96d7792eff",
          "topics": [
            "0x804c9b842b2748a22bb64b345453a3de7ca54a6ca45ce00d415894979e22897a",
            "0x00000000000000000000000075faf114eafb1bdbe2f0316df893fd58ce46aa4d"
          ],
          "data": "0x000000000000000000000000000000000000000000239e08b913c91db7d55d8e000000000000000000000000000000000000000000689e5321002f7fbc24d0050000000000000000000000000000000000000000002eb73f86742685b624d00500000000000000000000000000000000000000000376e3b0a3914b4ef8de8cd60000000000000000000000000000000000000000038e178ae09f55a48eec1329",
          "blockHash": "0xace0eb51bc19e6d1d10ff165dd7037bdadc9f7955a033c82afe647569704a0f6",
          "blockNumber": "0xc1730a7",
          "transactionHash": "0x128272192e287c2b158ab76baa0a0fdc1b6c7e6a082a0d2fd00003d88ae7ea77",
          "transactionIndex": "0xb",
          "logIndex": "0xb",
          "removed": false
        },
        {
          "address": "0x75faf114eafb1bdbe2f0316df893fd58ce46aa4d",
          "topics": [
            "0xddf252ad1be2c89b69c2b068fc378daa952ba7f163c4a11628f55a4df523b3ef",
            "0x000000000000000000000000820cf97ea4c2f4c67971d89c257f03312be6a8a1",
            "0x000000000000000000000000460b97bd498e1157530aeb3086301d5225b91216"
          ],
          "data": "0x00000000000000000000000000000000000000000000000000000000000f4240",
          "blockHash": "0xace0eb51bc19e6d1d10ff165dd7037bdadc9f7955a033c82afe647569704a0f6",
          "blockNumber": "0xc1730a7",
          "transactionHash": "0x128272192e287c2b158ab76baa0a0fdc1b6c7e6a082a0d2fd00003d88ae7ea77",
          "transactionIndex": "0xb",
          "logIndex": "0xc",
          "removed": false
        },
        {
          "address": "0x460b97bd498e1157530aeb3086301d5225b91216",
          "topics": [
            "0xddf252ad1be2c89b69c2b068fc378daa952ba7f163c4a11628f55a4df523b3ef",
            "0x0000000000000000000000000000000000000000000000000000000000000000",
            "0x000000000000000000000000820cf97ea4c2f4c67971d89c257f03312be6a8a1"
          ],
          "data": "0x00000000000000000000000000000000000000000000000000000000000f4240",
          "blockHash": "0xace0eb51bc19e6d1d10ff165dd7037bdadc9f7955a033c82afe647569704a0f6",
          "blockNumber": "0xc1730a7",
          "transactionHash": "0x128272192e287c2b158ab76baa0a0fdc1b6c7e6a082a0d2fd00003d88ae7ea77",
          "transactionIndex": "0xb",
          "logIndex": "0xd",
          "removed": false
        },
        {
          "address": "0x460b97bd498e1157530aeb3086301d5225b91216",
          "topics": [
            "0x458f5fa412d0f69b08dd84872b0215675cc67bc1d5b6fd93300a1c3878b86196",
            "0x000000000000000000000000820cf97ea4c2f4c67971d89c257f03312be6a8a1",
            "0x000000000000000000000000820cf97ea4c2f4c67971d89c257f03312be6a8a1"
          ],
          "data": "0x00000000000000000000000000000000000000000000000000000000000f4240000000000000000000000000000000000000000000000000000000000000000000000000000000000000000000000000000000000376e3b0a3914b4ef8de8cd6",
          "blockHash": "0xace0eb51bc19e6d1d10ff165dd7037bdadc9f7955a033c82afe647569704a0f6",
          "blockNumber": "0xc1730a7",
          "transactionHash": "0x128272192e287c2b158ab76baa0a0fdc1b6c7e6a082a0d2fd00003d88ae7ea77",
          "transactionIndex": "0xb",
          "logIndex": "0xe",
          "removed": false
        },
        {
          "address": "0xbfc91d59fdaa134a4ed45f7b584caf96d7792eff",
          "topics": [
            "0x00058a56ea94653cdf4f152d227ace22d4c00ad99e2a43f58cb7d9e3feb295f2",
            "0x00000000000000000000000075faf114eafb1bdbe2f0316df893fd58ce46aa4d",
            "0x000000000000000000000000820cf97ea4c2f4c67971d89c257f03312be6a8a1"
          ],
          "data": "0x",
          "blockHash": "0xace0eb51bc19e6d1d10ff165dd7037bdadc9f7955a033c82afe647569704a0f6",
          "blockNumber": "0xc1730a7",
          "transactionHash": "0x128272192e287c2b158ab76baa0a0fdc1b6c7e6a082a0d2fd00003d88ae7ea77",
          "transactionIndex": "0xb",
          "logIndex": "0xf",
          "removed": false
        },
        {
          "address": "0xbfc91d59fdaa134a4ed45f7b584caf96d7792eff",
          "topics": [
            "0x2b627736bca15cd5381dcf80b0bf11fd197d01a037c52b927a881a10fb73ba61",
            "0x00000000000000000000000075faf114eafb1bdbe2f0316df893fd58ce46aa4d",
            "0x000000000000000000000000820cf97ea4c2f4c67971d89c257f03312be6a8a1",
            "0x0000000000000000000000000000000000000000000000000000000000000000"
          ],
          "data": "0x000000000000000000000000820cf97ea4c2f4c67971d89c257f03312be6a8a100000000000000000000000000000000000000000000000000000000000f4240",
          "blockHash": "0xace0eb51bc19e6d1d10ff165dd7037bdadc9f7955a033c82afe647569704a0f6",
          "blockNumber": "0xc1730a7",
          "transactionHash": "0x128272192e287c2b158ab76baa0a0fdc1b6c7e6a082a0d2fd00003d88ae7ea77",
          "transactionIndex": "0xb",
          "logIndex": "0x10",
          "removed": false
        },
        {
          "address": "0x820cf97ea4c2f4c67971d89c257f03312be6a8a1",
          "topics": [
            "0xba3ffa58e6beddd202dec6f1b1bb88dbb12d8823d523283b2ebbe9b627c9eb02"
          ],
          "data": "0x00000000000000000000000000000000000000000000000000000000000f424000000000000000000000000000000000000000000000000000000000000f4240",
          "blockHash": "0xace0eb51bc19e6d1d10ff165dd7037bdadc9f7955a033c82afe647569704a0f6",
          "blockNumber": "0xc1730a7",
          "transactionHash": "0x128272192e287c2b158ab76baa0a0fdc1b6c7e6a082a0d2fd00003d88ae7ea77",
          "transactionIndex": "0xb",
          "logIndex": "0x11",
          "removed": false
        }
      ],
      "logsBloom": "0x000000000080080000800000000000000000000000000000000000000000000000000000000000000000000000040000000180000000000100200000000000008000004401000002008000080100000000000000000000000000000400000000000000000200000000000000000008000200000000040020000000100001000000000000800000000000000000040000000c0000000000000000000000000000000000008000000000000000400100000000000000000000000000000000010002000002000000000000002040000000008000000008080000000400000020000000000000000000000000000000800040000000000000001100400000000004",
      "type": "0x2",
      "transactionHash": "0x128272192e287c2b158ab76baa0a0fdc1b6c7e6a082a0d2fd00003d88ae7ea77",
      "transactionIndex": "0xb",
      "blockHash": "0xace0eb51bc19e6d1d10ff165dd7037bdadc9f7955a033c82afe647569704a0f6",
      "blockNumber": "0xc1730a7",
      "gasUsed": "0x4d6de",
      "effectiveGasPrice": "0x67f5c50",
      "from": "0x23bf95de9f90338f973056351c8cd2cb78cbe52f",
      "to": "0x820cf97ea4c2f4c67971d89c257f03312be6a8a1",
      "contractAddress": null,
      "gasUsedForL1": "0x3",
      "l1BlockNumber": "0x8f12bb",
      "timeboosted": false
    }
  ],
  "libraries": [
    "src/config/Configuration.ArbitrumSepolia.sol:ConfigurationArbitrumSepolia:0xbAEDEDa67771036907F1650AaDb06C645f7cE543",
    "src/config/Configuration.Base.sol:ConfigurationBaseMainnet:0xc724402C8C6bef7bFD30C5f5e26A12C9a8248D33",
    "src/config/Configuration.BaseSepolia.sol:ConfigurationBaseSepolia:0xF5FBD5182356F5EE73198a02eB13dAD9612DF39A",
    "src/config/Configuration.Ethereum.sol:ConfigurationEthereumMainnet:0x6C6BC06853C6aFa04fD58bb707605C7D2679465B",
    "src/config/Configuration.EthereumSepolia.sol:ConfigurationEthereumSepolia:0xA1759Fd7414815e88589a600F3708434ccc70d82",
    "src/config/Configuration.Local.sol:ConfigurationLocal:0xEb0e0C1e3CfF2eAAcb94B498F8E6324e7A7B0a2B",
    "src/config/Configuration.sol:Configuration:0x123fe1F1a93754C6aC2B1bdF930a47A39762FAFF"
  ],
  "pending": [],
  "returns": {},
  "timestamp": 1760022367149,
  "chain": 421614,
  "commit": "7d9423d"
}