{
  "transactions": [
    {
      "hash": "0x1ae16f4e534eb85c647b22f72a35270ea14ede7b75cceaeeccded9550d08e55e",
      "transactionType": "CALL",
      "contractName": null,
      "contractAddress": "0x75faf114eafb1bdbe2f0316df893fd58ce46aa4d",
      "function": "approve(address,uint256)",
      "arguments": [
        "0x62Eaf30dbD0E88e14B902e03c096056C55F39831",
        "115792089237316195423570985008687907853269984665640564039457584007913129639935"
      ],
      "transaction": {
        "from": "0x23bf95de9f90338f973056351c8cd2cb78cbe52f",
        "to": "0x75faf114eafb1bdbe2f0316df893fd58ce46aa4d",
        "gas": "0x11f5d",
        "value": "0x0",
        "input": "0x095ea7b300000000000000000000000062eaf30dbd0e88e14b902e03c096056c55f39831ffffffffffffffffffffffffffffffffffffffffffffffffffffffffffffffff",
        "nonce": "0x111",
        "chainId": "0x66eee"
      },
      "additionalContracts": [],
      "isFixedGasLimit": false
    },
    {
      "hash": "0xb98fe6edaa09a398059707cc512d8e4547bab9d96572743ffb0322bfe8307e6d",
      "transactionType": "CALL",
      "contractName": null,
      "contractAddress": "0x62eaf30dbd0e88e14b902e03c096056c55f39831",
      "function": "deposit(uint256,address)",
      "arguments": [
        "1000000",
        "0x23BF95De9F90338F973056351C8Cd2CB78cbe52f"
      ],
      "transaction": {
        "from": "0x23bf95de9f90338f973056351c8cd2cb78cbe52f",
        "to": "0x62eaf30dbd0e88e14b902e03c096056c55f39831",
        "gas": "0x713d3",
        "value": "0x0",
        "input": "0x6e553f6500000000000000000000000000000000000000000000000000000000000f424000000000000000000000000023bf95de9f90338f973056351c8cd2cb78cbe52f",
        "nonce": "0x112",
        "chainId": "0x66eee"
      },
      "additionalContracts": [],
      "isFixedGasLimit": false
    }
  ],
  "receipts": [
    {
      "status": "0x1",
      "cumulativeGasUsed": "0x341fa",
      "logs": [
        {
          "address": "0x75faf114eafb1bdbe2f0316df893fd58ce46aa4d",
          "topics": [
            "0x8c5be1e5ebec7d5bd14f71427d1e84f3dd0314c0f7b2291e5b200ac8c7c3b925",
            "0x00000000000000000000000023bf95de9f90338f973056351c8cd2cb78cbe52f",
            "0x00000000000000000000000062eaf30dbd0e88e14b902e03c096056c55f39831"
          ],
          "data": "0xffffffffffffffffffffffffffffffffffffffffffffffffffffffffffffffff",
          "blockHash": "0x2d6d5c3f930a7f6b45538e455658b5aee10013f5a3c8a4a386d32c3b83f2a541",
          "blockNumber": "0xc5783bc",
          "transactionHash": "0x1ae16f4e534eb85c647b22f72a35270ea14ede7b75cceaeeccded9550d08e55e",
          "transactionIndex": "0x3",
          "logIndex": "0x1",
          "removed": false
        }
      ],
      "logsBloom": "0x00000000000002000000000000000000000000000000000000000000000000000000000000000000000000000000000000000000000000000000000000200000800000000000000000000000000000000000000000000000000000000000000000000000000000000000000000000000000000000000000000000000000000000000000000000000000000000000000000000000000000000000000000000000020000008000000000000000000100000000000000000000000000000000000000000000000000000000000000000000008000000000000000000000000000400010000000000000000000000000000000001000000000000100000000000004",
      "type": "0x2",
      "transactionHash": "0x1ae16f4e534eb85c647b22f72a35270ea14ede7b75cceaeeccded9550d08e55e",
      "transactionIndex": "0x3",
      "blockHash": "0x2d6d5c3f930a7f6b45538e455658b5aee10013f5a3c8a4a386d32c3b83f2a541",
      "blockNumber": "0xc5783bc",
      "gasUsed": "0xd9e9",
      "effectiveGasPrice": "0x5f5e100",
      "from": "0x23bf95de9f90338f973056351c8cd2cb78cbe52f",
      "to": "0x75faf114eafb1bdbe2f0316df893fd58ce46aa4d",
      "contractAddress": null,
      "gasUsedForL1": "0x0",
      "l1BlockNumber": "0x905e23",
      "timeboosted": false
    },
    {
      "status": "0x1",
      "cumulativeGasUsed": "0x5730a",
      "logs": [
        {
          "address": "0x75faf114eafb1bdbe2f0316df893fd58ce46aa4d",
          "topics": [
            "0xddf252ad1be2c89b69c2b068fc378daa952ba7f163c4a11628f55a4df523b3ef",
            "0x00000000000000000000000023bf95de9f90338f973056351c8cd2cb78cbe52f",
            "0x00000000000000000000000062eaf30dbd0e88e14b902e03c096056c55f39831"
          ],
          "data": "0x00000000000000000000000000000000000000000000000000000000000f4240",
          "blockHash": "0x6538f84584d1619d75c9ddbf1eea4005058c0f62a71f3c593e7ce75a96d901f7",
          "blockNumber": "0xc5783bf",
          "transactionHash": "0xb98fe6edaa09a398059707cc512d8e4547bab9d96572743ffb0322bfe8307e6d",
          "transactionIndex": "0x2",
          "logIndex": "0x0",
          "removed": false
        },
        {
          "address": "0x62eaf30dbd0e88e14b902e03c096056c55f39831",
          "topics": [
            "0xddf252ad1be2c89b69c2b068fc378daa952ba7f163c4a11628f55a4df523b3ef",
            "0x0000000000000000000000000000000000000000000000000000000000000000",
            "0x00000000000000000000000023bf95de9f90338f973056351c8cd2cb78cbe52f"
          ],
          "data": "0x00000000000000000000000000000000000000000000000000000000000f4240",
          "blockHash": "0x6538f84584d1619d75c9ddbf1eea4005058c0f62a71f3c593e7ce75a96d901f7",
          "blockNumber": "0xc5783bf",
          "transactionHash": "0xb98fe6edaa09a398059707cc512d8e4547bab9d96572743ffb0322bfe8307e6d",
          "transactionIndex": "0x2",
          "logIndex": "0x1",
          "removed": false
        },
        {
          "address": "0x62eaf30dbd0e88e14b902e03c096056c55f39831",
          "topics": [
            "0xdcbc1c05240f31ff3ad067ef1ee35ce4997762752e3a095284754544f4c709d7",
            "0x00000000000000000000000023bf95de9f90338f973056351c8cd2cb78cbe52f",
            "0x00000000000000000000000023bf95de9f90338f973056351c8cd2cb78cbe52f"
          ],
          "data": "0x00000000000000000000000000000000000000000000000000000000000f424000000000000000000000000000000000000000000000000000000000000f4240",
          "blockHash": "0x6538f84584d1619d75c9ddbf1eea4005058c0f62a71f3c593e7ce75a96d901f7",
          "blockNumber": "0xc5783bf",
          "transactionHash": "0xb98fe6edaa09a398059707cc512d8e4547bab9d96572743ffb0322bfe8307e6d",
          "transactionIndex": "0x2",
          "logIndex": "0x2",
          "removed": false
        },
        {
          "address": "0xbfc91d59fdaa134a4ed45f7b584caf96d7792eff",
          "topics": [
            "0x804c9b842b2748a22bb64b345453a3de7ca54a6ca45ce00d415894979e22897a",
            "0x00000000000000000000000075faf114eafb1bdbe2f0316df893fd58ce46aa4d"
          ],
          "data": "0x000000000000000000000000000000000000000000237a0129f57ec391ebead60000000000000000000000000000000000000000006886ac5068966c27c395420000000000000000000000000000000000000000002e9f98b5dc8d7221c39542000000000000000000000000000000000000000003782b141a6717daa0498c7a0000000000000000000000000000000000000000038fd08894fdebfd66c7632a",
          "blockHash": "0x6538f84584d1619d75c9ddbf1eea4005058c0f62a71f3c593e7ce75a96d901f7",
          "blockNumber": "0xc5783bf",
          "transactionHash": "0xb98fe6edaa09a398059707cc512d8e4547bab9d96572743ffb0322bfe8307e6d",
          "transactionIndex": "0x2",
          "logIndex": "0x3",
          "removed": false
        },
        {
          "address": "0x75faf114eafb1bdbe2f0316df893fd58ce46aa4d",
          "topics": [
            "0xddf252ad1be2c89b69c2b068fc378daa952ba7f163c4a11628f55a4df523b3ef",
            "0x00000000000000000000000062eaf30dbd0e88e14b902e03c096056c55f39831",
            "0x000000000000000000000000460b97bd498e1157530aeb3086301d5225b91216"
          ],
          "data": "0x00000000000000000000000000000000000000000000000000000000000f4240",
          "blockHash": "0x6538f84584d1619d75c9ddbf1eea4005058c0f62a71f3c593e7ce75a96d901f7",
          "blockNumber": "0xc5783bf",
          "transactionHash": "0xb98fe6edaa09a398059707cc512d8e4547bab9d96572743ffb0322bfe8307e6d",
          "transactionIndex": "0x2",
          "logIndex": "0x4",
          "removed": false
        },
        {
          "address": "0x460b97bd498e1157530aeb3086301d5225b91216",
          "topics": [
            "0xddf252ad1be2c89b69c2b068fc378daa952ba7f163c4a11628f55a4df523b3ef",
            "0x0000000000000000000000000000000000000000000000000000000000000000",
            "0x00000000000000000000000062eaf30dbd0e88e14b902e03c096056c55f39831"
          ],
          "data": "0x00000000000000000000000000000000000000000000000000000000000f4240",
          "blockHash": "0x6538f84584d1619d75c9ddbf1eea4005058c0f62a71f3c593e7ce75a96d901f7",
          "blockNumber": "0xc5783bf",
          "transactionHash": "0xb98fe6edaa09a398059707cc512d8e4547bab9d96572743ffb0322bfe8307e6d",
          "transactionIndex": "0x2",
          "logIndex": "0x5",
          "removed": false
        },
        {
          "address": "0x460b97bd498e1157530aeb3086301d5225b91216",
          "topics": [
            "0x458f5fa412d0f69b08dd84872b0215675cc67bc1d5b6fd93300a1c3878b86196",
            "0x00000000000000000000000062eaf30dbd0e88e14b902e03c096056c55f39831",
            "0x00000000000000000000000062eaf30dbd0e88e14b902e03c096056c55f39831"
          ],
          "data": "0x00000000000000000000000000000000000000000000000000000000000f42400000000000000000000000000000000000000000000000000000000000000000000000000000000000000000000000000000000003782b141a6717daa0498c7a",
          "blockHash": "0x6538f84584d1619d75c9ddbf1eea4005058c0f62a71f3c593e7ce75a96d901f7",
          "blockNumber": "0xc5783bf",
          "transactionHash": "0xb98fe6edaa09a398059707cc512d8e4547bab9d96572743ffb0322bfe8307e6d",
          "transactionIndex": "0x2",
          "logIndex": "0x6",
          "removed": false
        },
        {
          "address": "0xbfc91d59fdaa134a4ed45f7b584caf96d7792eff",
          "topics": [
            "0x00058a56ea94653cdf4f152d227ace22d4c00ad99e2a43f58cb7d9e3feb295f2",
            "0x00000000000000000000000075faf114eafb1bdbe2f0316df893fd58ce46aa4d",
            "0x00000000000000000000000062eaf30dbd0e88e14b902e03c096056c55f39831"
          ],
          "data": "0x",
          "blockHash": "0x6538f84584d1619d75c9ddbf1eea4005058c0f62a71f3c593e7ce75a96d901f7",
          "blockNumber": "0xc5783bf",
          "transactionHash": "0xb98fe6edaa09a398059707cc512d8e4547bab9d96572743ffb0322bfe8307e6d",
          "transactionIndex": "0x2",
          "logIndex": "0x7",
          "removed": false
        },
        {
          "address": "0xbfc91d59fdaa134a4ed45f7b584caf96d7792eff",
          "topics": [
            "0x2b627736bca15cd5381dcf80b0bf11fd197d01a037c52b927a881a10fb73ba61",
            "0x00000000000000000000000075faf114eafb1bdbe2f0316df893fd58ce46aa4d",
            "0x00000000000000000000000062eaf30dbd0e88e14b902e03c096056c55f39831",
            "0x0000000000000000000000000000000000000000000000000000000000000000"
          ],
          "data": "0x00000000000000000000000062eaf30dbd0e88e14b902e03c096056c55f3983100000000000000000000000000000000000000000000000000000000000f4240",
          "blockHash": "0x6538f84584d1619d75c9ddbf1eea4005058c0f62a71f3c593e7ce75a96d901f7",
          "blockNumber": "0xc5783bf",
          "transactionHash": "0xb98fe6edaa09a398059707cc512d8e4547bab9d96572743ffb0322bfe8307e6d",
          "transactionIndex": "0x2",
          "logIndex": "0x8",
          "removed": false
        },
        {
          "address": "0x62eaf30dbd0e88e14b902e03c096056c55f39831",
          "topics": [
            "0xba3ffa58e6beddd202dec6f1b1bb88dbb12d8823d523283b2ebbe9b627c9eb02"
          ],
          "data": "0x00000000000000000000000000000000000000000000000000000000000f424000000000000000000000000000000000000000000000000000000000000f4240",
          "blockHash": "0x6538f84584d1619d75c9ddbf1eea4005058c0f62a71f3c593e7ce75a96d901f7",
          "blockNumber": "0xc5783bf",
          "transactionHash": "0xb98fe6edaa09a398059707cc512d8e4547bab9d96572743ffb0322bfe8307e6d",
          "transactionIndex": "0x2",
          "logIndex": "0x9",
          "removed": false
        }
      ],
      "logsBloom": "0x0000000000000a0000800000000000000000000000000000000000000000000000000000000000000000000000040000000180000000000100000000000000008000004401000002800000080100000000000000000000000000000400000000000000000200000000000000000008000200000000040020000000100001000000000000800000000000000000000000000c0000000000000000000000000040000000008000000000000000000100000000000000000000000000000000010002000002000000000000002040000000008000008008080000000400000020400000000000000000000000000000000040001000000000001100400000000004",
      "type": "0x2",
      "transactionHash": "0xb98fe6edaa09a398059707cc512d8e4547bab9d96572743ffb0322bfe8307e6d",
      "transactionIndex": "0x2",
      "blockHash": "0x6538f84584d1619d75c9ddbf1eea4005058c0f62a71f3c593e7ce75a96d901f7",
      "blockNumber": "0xc5783bf",
      "gasUsed": "0x4d6db",
      "effectiveGasPrice": "0x5f5e100",
      "from": "0x23bf95de9f90338f973056351c8cd2cb78cbe52f",
      "to": "0x62eaf30dbd0e88e14b902e03c096056c55f39831",
      "contractAddress": null,
      "gasUsedForL1": "0x0",
      "l1BlockNumber": "0x905e23",
      "timeboosted": false
    }
  ],
  "libraries": [
    "src/config/Configuration.ArbitrumSepolia.sol:ConfigurationArbitrumSepolia:0xeA877Bb50e4550FAAB3dE0de21110FF2eaDbd607",
    "src/config/Configuration.Base.sol:ConfigurationBaseMainnet:0x42dBf5358d04c4fC65b8A2501732e1b799Cf8C7F",
    "src/config/Configuration.BaseSepolia.sol:ConfigurationBaseSepolia:0x8CD9F0A3Fb33793daeA0828985e8A39b014e4c25",
    "src/config/Configuration.Ethereum.sol:ConfigurationEthereumMainnet:0x7C59aB12ae1cE53A28aeE34d615Eb6f476774fa7",
    "src/config/Configuration.EthereumSepolia.sol:ConfigurationEthereumSepolia:0x43A0e44F7EbbC8DB17807C9583859dc5A06f6E3b",
    "src/config/Configuration.Local.sol:ConfigurationLocal:0xf471EeAbD90669d272Ff633CAAf2d9d6ab6FFC03",
    "src/config/Configuration.OptimismSepolia.sol:ConfigurationOptimismSepolia:0x1447f089Fd0673aD2B03920122Bc9788Be8746cd",
    "src/config/Configuration.sol:Configuration:0xE31E4AE4606486363084bf49f238d681784a7620"
  ],
  "pending": [],
  "returns": {},
  "timestamp": 1761078908475,
  "chain": 421614,
  "commit": "a249124"
}